{
	"contracts/Fundme.sol": {
		"FundMe": {
			"abi": [
				{
					"inputs": [],
					"stateMutability": "nonpayable",
					"type": "constructor"
				},
				{
					"inputs": [],
					"name": "MINIMUM_USD",
					"outputs": [
						{
							"internalType": "uint256",
							"name": "",
							"type": "uint256"
						}
					],
					"stateMutability": "view",
					"type": "function"
				},
				{
					"inputs": [
						{
							"internalType": "address",
							"name": "funder",
							"type": "address"
						}
					],
					"name": "addressToAmountFunded",
					"outputs": [
						{
							"internalType": "uint256",
							"name": "amountFunded",
							"type": "uint256"
						}
					],
					"stateMutability": "view",
					"type": "function"
				},
				{
					"inputs": [],
					"name": "fund",
					"outputs": [],
					"stateMutability": "payable",
					"type": "function"
				},
				{
					"inputs": [
						{
							"internalType": "uint256",
							"name": "",
							"type": "uint256"
						}
					],
					"name": "funders",
					"outputs": [
						{
							"internalType": "address",
							"name": "",
							"type": "address"
						}
					],
					"stateMutability": "view",
					"type": "function"
				},
				{
					"inputs": [],
					"name": "owner",
					"outputs": [
						{
							"internalType": "address",
							"name": "",
							"type": "address"
						}
					],
					"stateMutability": "view",
					"type": "function"
				},
				{
					"inputs": [],
					"name": "withdraw",
					"outputs": [],
					"stateMutability": "nonpayable",
					"type": "function"
				}
			],
			"devdoc": {
				"kind": "dev",
				"methods": {},
				"version": 1
			},
			"evm": {
				"assembly": "    /* \"contracts/Fundme.sol\":334:4604  contract FundMe {... */\n  mstore(0x40, 0x80)\n    /* \"contracts/Fundme.sol\":671:721  constructor(){... */\n  callvalue\n  dup1\n  iszero\n  tag_1\n  jumpi\n  revert(0x00, 0x00)\ntag_1:\n  pop\n    /* \"contracts/Fundme.sol\":703:713  msg.sender */\n  caller\n    /* \"contracts/Fundme.sol\":695:700  owner */\n  0x02\n  0x00\n    /* \"contracts/Fundme.sol\":695:713  owner = msg.sender */\n  0x0100\n  exp\n  dup2\n  sload\n  dup2\n  0xffffffffffffffffffffffffffffffffffffffff\n  mul\n  not\n  and\n  swap1\n  dup4\n  0xffffffffffffffffffffffffffffffffffffffff\n  and\n  mul\n  or\n  swap1\n  sstore\n  pop\n    /* \"contracts/Fundme.sol\":334:4604  contract FundMe {... */\n  dataSize(sub_0)\n  dup1\n  dataOffset(sub_0)\n  0x00\n  codecopy\n  0x00\n  return\nstop\n\nsub_0: assembly {\n        /* \"contracts/Fundme.sol\":334:4604  contract FundMe {... */\n      mstore(0x40, 0x80)\n      jumpi(tag_1, lt(calldatasize, 0x04))\n      shr(0xe0, calldataload(0x00))\n      dup1\n      0x3ccfd60b\n      eq\n      tag_2\n      jumpi\n      dup1\n      0x3e47d6f3\n      eq\n      tag_3\n      jumpi\n      dup1\n      0x6b69a592\n      eq\n      tag_4\n      jumpi\n      dup1\n      0x8da5cb5b\n      eq\n      tag_5\n      jumpi\n      dup1\n      0xb60d4288\n      eq\n      tag_6\n      jumpi\n      dup1\n      0xdc0d3dff\n      eq\n      tag_7\n      jumpi\n    tag_1:\n      revert(0x00, 0x00)\n        /* \"contracts/Fundme.sol\":2430:4107  function withdraw() onlyOwner public {... */\n    tag_2:\n      callvalue\n      dup1\n      iszero\n      tag_8\n      jumpi\n      revert(0x00, 0x00)\n    tag_8:\n      pop\n      tag_9\n      tag_10\n      jump\t// in\n    tag_9:\n      stop\n        /* \"contracts/Fundme.sol\":557:633  mapping(address funder => uint256 amountFunded) public addressToAmountFunded */\n    tag_3:\n      callvalue\n      dup1\n      iszero\n      tag_11\n      jumpi\n      revert(0x00, 0x00)\n    tag_11:\n      pop\n      tag_12\n      0x04\n      dup1\n      calldatasize\n      sub\n      dup2\n      add\n      swap1\n      tag_13\n      swap2\n      swap1\n      tag_14\n      jump\t// in\n    tag_13:\n      tag_15\n      jump\t// in\n    tag_12:\n      mload(0x40)\n      tag_16\n      swap2\n      swap1\n      tag_17\n      jump\t// in\n    tag_16:\n      mload(0x40)\n      dup1\n      swap2\n      sub\n      swap1\n      return\n        /* \"contracts/Fundme.sol\":398:440  uint256 public constant MINIMUM_USD = 5e18 */\n    tag_4:\n      callvalue\n      dup1\n      iszero\n      tag_18\n      jumpi\n      revert(0x00, 0x00)\n    tag_18:\n      pop\n      tag_19\n      tag_20\n      jump\t// in\n    tag_19:\n      mload(0x40)\n      tag_21\n      swap2\n      swap1\n      tag_17\n      jump\t// in\n    tag_21:\n      mload(0x40)\n      dup1\n      swap2\n      sub\n      swap1\n      return\n        /* \"contracts/Fundme.sol\":642:662  address public owner */\n    tag_5:\n      callvalue\n      dup1\n      iszero\n      tag_22\n      jumpi\n      revert(0x00, 0x00)\n    tag_22:\n      pop\n      tag_23\n      tag_24\n      jump\t// in\n    tag_23:\n      mload(0x40)\n      tag_25\n      swap2\n      swap1\n      tag_26\n      jump\t// in\n    tag_25:\n      mload(0x40)\n      dup1\n      swap2\n      sub\n      swap1\n      return\n        /* \"contracts/Fundme.sol\":729:1347  function fund() public payable {... */\n    tag_6:\n      tag_27\n      tag_28\n      jump\t// in\n    tag_27:\n      stop\n        /* \"contracts/Fundme.sol\":526:550  address[] public funders */\n    tag_7:\n      callvalue\n      dup1\n      iszero\n      tag_29\n      jumpi\n      revert(0x00, 0x00)\n    tag_29:\n      pop\n      tag_30\n      0x04\n      dup1\n      calldatasize\n      sub\n      dup2\n      add\n      swap1\n      tag_31\n      swap2\n      swap1\n      tag_32\n      jump\t// in\n    tag_31:\n      tag_33\n      jump\t// in\n    tag_30:\n      mload(0x40)\n      tag_34\n      swap2\n      swap1\n      tag_26\n      jump\t// in\n    tag_34:\n      mload(0x40)\n      dup1\n      swap2\n      sub\n      swap1\n      return\n        /* \"contracts/Fundme.sol\":2430:4107  function withdraw() onlyOwner public {... */\n    tag_10:\n        /* \"contracts/Fundme.sol\":4243:4248  owner */\n      0x02\n      0x00\n      swap1\n      sload\n      swap1\n      0x0100\n      exp\n      swap1\n      div\n      0xffffffffffffffffffffffffffffffffffffffff\n      and\n        /* \"contracts/Fundme.sol\":4229:4248  msg.sender == owner */\n      0xffffffffffffffffffffffffffffffffffffffff\n      and\n        /* \"contracts/Fundme.sol\":4229:4239  msg.sender */\n      caller\n        /* \"contracts/Fundme.sol\":4229:4248  msg.sender == owner */\n      0xffffffffffffffffffffffffffffffffffffffff\n      and\n      eq\n        /* \"contracts/Fundme.sol\":4221:4274  require(msg.sender == owner, \"Send is not the owner\") */\n      tag_36\n      jumpi\n      mload(0x40)\n      0x08c379a000000000000000000000000000000000000000000000000000000000\n      dup2\n      mstore\n      0x04\n      add\n      tag_37\n      swap1\n      tag_38\n      jump\t// in\n    tag_37:\n      mload(0x40)\n      dup1\n      swap2\n      sub\n      swap1\n      revert\n    tag_36:\n        /* \"contracts/Fundme.sol\":2743:2762  uint256 funderIndex */\n      0x00\n        /* \"contracts/Fundme.sol\":2765:2766  0 */\n      0x00\n        /* \"contracts/Fundme.sol\":2743:2766  uint256 funderIndex = 0 */\n      swap1\n      pop\n        /* \"contracts/Fundme.sol\":2739:2924  for(uint256 funderIndex = 0; funderIndex < funders.length; funderIndex++){... */\n    tag_40:\n        /* \"contracts/Fundme.sol\":2782:2789  funders */\n      0x00\n        /* \"contracts/Fundme.sol\":2782:2796  funders.length */\n      dup1\n      sload\n      swap1\n      pop\n        /* \"contracts/Fundme.sol\":2768:2779  funderIndex */\n      dup2\n        /* \"contracts/Fundme.sol\":2768:2796  funderIndex < funders.length */\n      lt\n        /* \"contracts/Fundme.sol\":2739:2924  for(uint256 funderIndex = 0; funderIndex < funders.length; funderIndex++){... */\n      iszero\n      tag_41\n      jumpi\n        /* \"contracts/Fundme.sol\":2827:2841  address funder */\n      0x00\n        /* \"contracts/Fundme.sol\":2844:2851  funders */\n      0x00\n        /* \"contracts/Fundme.sol\":2852:2863  funderIndex */\n      dup3\n        /* \"contracts/Fundme.sol\":2844:2864  funders[funderIndex] */\n      dup2\n      sload\n      dup2\n      lt\n      tag_43\n      jumpi\n      tag_44\n      tag_45\n      jump\t// in\n    tag_44:\n    tag_43:\n      swap1\n      0x00\n      mstore\n      keccak256(0x00, 0x20)\n      add\n      0x00\n      swap1\n      sload\n      swap1\n      0x0100\n      exp\n      swap1\n      div\n      0xffffffffffffffffffffffffffffffffffffffff\n      and\n        /* \"contracts/Fundme.sol\":2827:2864  address funder = funders[funderIndex] */\n      swap1\n      pop\n        /* \"contracts/Fundme.sol\":2911:2912  0 */\n      0x00\n        /* \"contracts/Fundme.sol\":2879:2900  addressToAmountFunded */\n      0x01\n        /* \"contracts/Fundme.sol\":2879:2908  addressToAmountFunded[funder] */\n      0x00\n        /* \"contracts/Fundme.sol\":2901:2907  funder */\n      dup4\n        /* \"contracts/Fundme.sol\":2879:2908  addressToAmountFunded[funder] */\n      0xffffffffffffffffffffffffffffffffffffffff\n      and\n      0xffffffffffffffffffffffffffffffffffffffff\n      and\n      dup2\n      mstore\n      0x20\n      add\n      swap1\n      dup2\n      mstore\n      0x20\n      add\n      0x00\n      keccak256\n        /* \"contracts/Fundme.sol\":2879:2912  addressToAmountFunded[funder] = 0 */\n      dup2\n      swap1\n      sstore\n      pop\n        /* \"contracts/Fundme.sol\":2812:2924  {... */\n      pop\n        /* \"contracts/Fundme.sol\":2798:2811  funderIndex++ */\n      dup1\n      dup1\n      0x01\n      add\n      swap2\n      pop\n      pop\n        /* \"contracts/Fundme.sol\":2739:2924  for(uint256 funderIndex = 0; funderIndex < funders.length; funderIndex++){... */\n      jump(tag_40)\n    tag_41:\n      pop\n        /* \"contracts/Fundme.sol\":2998:2999  0 */\n      0x00\n        /* \"contracts/Fundme.sol\":2984:3000  new address[](0) */\n      0xffffffffffffffff\n      dup2\n      gt\n      iszero\n      tag_47\n      jumpi\n      tag_48\n      tag_49\n      jump\t// in\n    tag_48:\n    tag_47:\n      mload(0x40)\n      swap1\n      dup1\n      dup3\n      mstore\n      dup1\n      0x20\n      mul\n      0x20\n      add\n      dup3\n      add\n      0x40\n      mstore\n      dup1\n      iszero\n      tag_50\n      jumpi\n      dup2\n      0x20\n      add\n      0x20\n      dup3\n      mul\n      dup1\n      calldatasize\n      dup4\n      calldatacopy\n      dup1\n      dup3\n      add\n      swap2\n      pop\n      pop\n      swap1\n      pop\n    tag_50:\n      pop\n        /* \"contracts/Fundme.sol\":2974:2981  funders */\n      0x00\n        /* \"contracts/Fundme.sol\":2974:3000  funders = new address[](0) */\n      swap1\n      dup1\n      mload\n      swap1\n      0x20\n      add\n      swap1\n      tag_51\n      swap3\n      swap2\n      swap1\n      tag_52\n      jump\t// in\n    tag_51:\n      pop\n        /* \"contracts/Fundme.sol\":3973:3989  bool callSuccess */\n      0x00\n        /* \"contracts/Fundme.sol\":4003:4013  msg.sender */\n      caller\n        /* \"contracts/Fundme.sol\":3995:4019  payable(msg.sender).call */\n      0xffffffffffffffffffffffffffffffffffffffff\n      and\n        /* \"contracts/Fundme.sol\":4027:4048  address(this).balance */\n      selfbalance\n        /* \"contracts/Fundme.sol\":3995:4053  payable(msg.sender).call{value: address(this).balance}(\"\") */\n      mload(0x40)\n      tag_53\n      swap1\n      tag_54\n      jump\t// in\n    tag_53:\n      0x00\n      mload(0x40)\n      dup1\n      dup4\n      sub\n      dup2\n      dup6\n      dup8\n      gas\n      call\n      swap3\n      pop\n      pop\n      pop\n      returndatasize\n      dup1\n      0x00\n      dup2\n      eq\n      tag_57\n      jumpi\n      mload(0x40)\n      swap2\n      pop\n      and(add(returndatasize, 0x3f), not(0x1f))\n      dup3\n      add\n      0x40\n      mstore\n      returndatasize\n      dup3\n      mstore\n      returndatasize\n      0x00\n      0x20\n      dup5\n      add\n      returndatacopy\n      jump(tag_56)\n    tag_57:\n      0x60\n      swap2\n      pop\n    tag_56:\n      pop\n        /* \"contracts/Fundme.sol\":3972:4053  (bool callSuccess, ) = payable(msg.sender).call{value: address(this).balance}(\"\") */\n      pop\n      swap1\n      pop\n        /* \"contracts/Fundme.sol\":4072:4083  callSuccess */\n      dup1\n        /* \"contracts/Fundme.sol\":4064:4099  require(callSuccess, \"Call failed\") */\n      tag_58\n      jumpi\n      mload(0x40)\n      0x08c379a000000000000000000000000000000000000000000000000000000000\n      dup2\n      mstore\n      0x04\n      add\n      tag_59\n      swap1\n      tag_60\n      jump\t// in\n    tag_59:\n      mload(0x40)\n      dup1\n      swap2\n      sub\n      swap1\n      revert\n    tag_58:\n        /* \"contracts/Fundme.sol\":2467:4107  {... */\n      pop\n        /* \"contracts/Fundme.sol\":2430:4107  function withdraw() onlyOwner public {... */\n      jump\t// out\n        /* \"contracts/Fundme.sol\":557:633  mapping(address funder => uint256 amountFunded) public addressToAmountFunded */\n    tag_15:\n      mstore(0x20, 0x01)\n      dup1\n      0x00\n      mstore\n      keccak256(0x00, 0x40)\n      0x00\n      swap2\n      pop\n      swap1\n      pop\n      sload\n      dup2\n      jump\t// out\n        /* \"contracts/Fundme.sol\":398:440  uint256 public constant MINIMUM_USD = 5e18 */\n    tag_20:\n        /* \"contracts/Fundme.sol\":436:440  5e18 */\n      0x4563918244f40000\n        /* \"contracts/Fundme.sol\":398:440  uint256 public constant MINIMUM_USD = 5e18 */\n      dup2\n      jump\t// out\n        /* \"contracts/Fundme.sol\":642:662  address public owner */\n    tag_24:\n      0x02\n      0x00\n      swap1\n      sload\n      swap1\n      0x0100\n      exp\n      swap1\n      div\n      0xffffffffffffffffffffffffffffffffffffffff\n      and\n      dup2\n      jump\t// out\n        /* \"contracts/Fundme.sol\":729:1347  function fund() public payable {... */\n    tag_28:\n        /* \"contracts/Fundme.sol\":436:440  5e18 */\n      0x4563918244f40000\n        /* \"contracts/Fundme.sol\":945:974  msg.value.getConversionRate() */\n      tag_62\n        /* \"contracts/Fundme.sol\":945:954  msg.value */\n      callvalue\n        /* \"contracts/Fundme.sol\":945:972  msg.value.getConversionRate */\n      tag_63\n        /* \"contracts/Fundme.sol\":945:974  msg.value.getConversionRate() */\n      jump\t// in\n    tag_62:\n        /* \"contracts/Fundme.sol\":945:989  msg.value.getConversionRate() >= MINIMUM_USD */\n      lt\n      iszero\n        /* \"contracts/Fundme.sol\":937:1009  require(msg.value.getConversionRate() >= MINIMUM_USD, \"not engough ETH\") */\n      tag_64\n      jumpi\n      mload(0x40)\n      0x08c379a000000000000000000000000000000000000000000000000000000000\n      dup2\n      mstore\n      0x04\n      add\n      tag_65\n      swap1\n      tag_66\n      jump\t// in\n    tag_65:\n      mload(0x40)\n      dup1\n      swap2\n      sub\n      swap1\n      revert\n    tag_64:\n        /* \"contracts/Fundme.sol\":1020:1027  funders */\n      0x00\n        /* \"contracts/Fundme.sol\":1033:1043  msg.sender */\n      caller\n        /* \"contracts/Fundme.sol\":1020:1044  funders.push(msg.sender) */\n      swap1\n      dup1\n      0x01\n      dup2\n      sload\n      add\n      dup1\n      dup3\n      sstore\n      dup1\n      swap2\n      pop\n      pop\n      0x01\n      swap1\n      sub\n      swap1\n      0x00\n      mstore\n      keccak256(0x00, 0x20)\n      add\n      0x00\n      swap1\n      swap2\n      swap1\n      swap2\n      swap1\n      swap2\n      0x0100\n      exp\n      dup2\n      sload\n      dup2\n      0xffffffffffffffffffffffffffffffffffffffff\n      mul\n      not\n      and\n      swap1\n      dup4\n      0xffffffffffffffffffffffffffffffffffffffff\n      and\n      mul\n      or\n      swap1\n      sstore\n      pop\n        /* \"contracts/Fundme.sol\":1247:1256  msg.value */\n      callvalue\n        /* \"contracts/Fundme.sol\":1211:1232  addressToAmountFunded */\n      0x01\n        /* \"contracts/Fundme.sol\":1211:1244  addressToAmountFunded[msg.sender] */\n      0x00\n        /* \"contracts/Fundme.sol\":1233:1243  msg.sender */\n      caller\n        /* \"contracts/Fundme.sol\":1211:1244  addressToAmountFunded[msg.sender] */\n      0xffffffffffffffffffffffffffffffffffffffff\n      and\n      0xffffffffffffffffffffffffffffffffffffffff\n      and\n      dup2\n      mstore\n      0x20\n      add\n      swap1\n      dup2\n      mstore\n      0x20\n      add\n      0x00\n      keccak256\n      sload\n        /* \"contracts/Fundme.sol\":1211:1256  addressToAmountFunded[msg.sender] + msg.value */\n      tag_68\n      swap2\n      swap1\n      tag_69\n      jump\t// in\n    tag_68:\n        /* \"contracts/Fundme.sol\":1175:1196  addressToAmountFunded */\n      0x01\n        /* \"contracts/Fundme.sol\":1175:1208  addressToAmountFunded[msg.sender] */\n      0x00\n        /* \"contracts/Fundme.sol\":1197:1207  msg.sender */\n      caller\n        /* \"contracts/Fundme.sol\":1175:1208  addressToAmountFunded[msg.sender] */\n      0xffffffffffffffffffffffffffffffffffffffff\n      and\n      0xffffffffffffffffffffffffffffffffffffffff\n      and\n      dup2\n      mstore\n      0x20\n      add\n      swap1\n      dup2\n      mstore\n      0x20\n      add\n      0x00\n      keccak256\n        /* \"contracts/Fundme.sol\":1175:1256  addressToAmountFunded[msg.sender] = addressToAmountFunded[msg.sender] + msg.value */\n      dup2\n      swap1\n      sstore\n      pop\n        /* \"contracts/Fundme.sol\":729:1347  function fund() public payable {... */\n      jump\t// out\n        /* \"contracts/Fundme.sol\":526:550  address[] public funders */\n    tag_33:\n      0x00\n      dup2\n      dup2\n      sload\n      dup2\n      lt\n      tag_70\n      jumpi\n      0x00\n      dup1\n      revert\n    tag_70:\n      swap1\n      0x00\n      mstore\n      keccak256(0x00, 0x20)\n      add\n      0x00\n      swap2\n      pop\n      sload\n      swap1\n      0x0100\n      exp\n      swap1\n      div\n      0xffffffffffffffffffffffffffffffffffffffff\n      and\n      dup2\n      jump\t// out\n        /* \"contracts/PriceConverter.sol\":574:1112  function getConversionRate(uint256 ethAmount) internal view returns(uint256){... */\n    tag_63:\n        /* \"contracts/PriceConverter.sol\":642:649  uint256 */\n      0x00\n        /* \"contracts/PriceConverter.sol\":781:797  uint256 ethPrice */\n      0x00\n        /* \"contracts/PriceConverter.sol\":800:810  getPrice() */\n      tag_73\n        /* \"contracts/PriceConverter.sol\":800:808  getPrice */\n      tag_74\n        /* \"contracts/PriceConverter.sol\":800:810  getPrice() */\n      jump\t// in\n    tag_73:\n        /* \"contracts/PriceConverter.sol\":781:810  uint256 ethPrice = getPrice() */\n      swap1\n      pop\n        /* \"contracts/PriceConverter.sol\":1010:1032  uint256 ethAmountInUsd */\n      0x00\n        /* \"contracts/PriceConverter.sol\":1060:1064  1e18 */\n      0x0de0b6b3a7640000\n        /* \"contracts/PriceConverter.sol\":1047:1056  ethAmount */\n      dup5\n        /* \"contracts/PriceConverter.sol\":1036:1044  ethPrice */\n      dup4\n        /* \"contracts/PriceConverter.sol\":1036:1056  ethPrice * ethAmount */\n      tag_75\n      swap2\n      swap1\n      tag_76\n      jump\t// in\n    tag_75:\n        /* \"contracts/PriceConverter.sol\":1035:1064  (ethPrice * ethAmount) / 1e18 */\n      tag_77\n      swap2\n      swap1\n      tag_78\n      jump\t// in\n    tag_77:\n        /* \"contracts/PriceConverter.sol\":1010:1064  uint256 ethAmountInUsd = (ethPrice * ethAmount) / 1e18 */\n      swap1\n      pop\n        /* \"contracts/PriceConverter.sol\":1082:1096  ethAmountInUsd */\n      dup1\n        /* \"contracts/PriceConverter.sol\":1075:1096  return ethAmountInUsd */\n      swap3\n      pop\n      pop\n      pop\n        /* \"contracts/PriceConverter.sol\":574:1112  function getConversionRate(uint256 ethAmount) internal view returns(uint256){... */\n      swap2\n      swap1\n      pop\n      jump\t// out\n        /* \"contracts/PriceConverter.sol\":211:566  function getPrice() internal view returns(uint256){... */\n    tag_74:\n        /* \"contracts/PriceConverter.sol\":253:260  uint256 */\n      0x00\n        /* \"contracts/PriceConverter.sol\":361:392  AggregatorV3Interface priceFeed */\n      0x00\n        /* \"contracts/PriceConverter.sol\":417:459  0x694AA1769357215DE4FAC081bf1f309aDC325306 */\n      0x694aa1769357215de4fac081bf1f309adc325306\n        /* \"contracts/PriceConverter.sol\":361:460  AggregatorV3Interface priceFeed = AggregatorV3Interface(0x694AA1769357215DE4FAC081bf1f309aDC325306) */\n      swap1\n      pop\n        /* \"contracts/PriceConverter.sol\":473:485  int256 price */\n      0x00\n        /* \"contracts/PriceConverter.sol\":492:501  priceFeed */\n      dup2\n        /* \"contracts/PriceConverter.sol\":492:517  priceFeed.latestRoundData */\n      0xffffffffffffffffffffffffffffffffffffffff\n      and\n      0xfeaf968c\n        /* \"contracts/PriceConverter.sol\":492:519  priceFeed.latestRoundData() */\n      mload(0x40)\n      dup2\n      0xffffffff\n      and\n      0xe0\n      shl\n      dup2\n      mstore\n      0x04\n      add\n      0xa0\n      mload(0x40)\n      dup1\n      dup4\n      sub\n      dup2\n      dup7\n      gas\n      staticcall\n      iszero\n      dup1\n      iszero\n      tag_81\n      jumpi\n      returndatacopy(0x00, 0x00, returndatasize)\n      revert(0x00, returndatasize)\n    tag_81:\n      pop\n      pop\n      pop\n      pop\n      mload(0x40)\n      returndatasize\n      not(0x1f)\n      0x1f\n      dup3\n      add\n      and\n      dup3\n      add\n      dup1\n      0x40\n      mstore\n      pop\n      dup2\n      add\n      swap1\n      tag_82\n      swap2\n      swap1\n      tag_83\n      jump\t// in\n    tag_82:\n        /* \"contracts/PriceConverter.sol\":471:519  (,int256 price,,,) = priceFeed.latestRoundData() */\n      pop\n      pop\n      pop\n      swap2\n      pop\n      pop\n        /* \"contracts/PriceConverter.sol\":553:557  1e10 */\n      0x02540be400\n        /* \"contracts/PriceConverter.sol\":545:550  price */\n      dup2\n        /* \"contracts/PriceConverter.sol\":545:557  price * 1e10 */\n      tag_84\n      swap2\n      swap1\n      tag_85\n      jump\t// in\n    tag_84:\n        /* \"contracts/PriceConverter.sol\":530:558  return uint256(price * 1e10) */\n      swap3\n      pop\n      pop\n      pop\n        /* \"contracts/PriceConverter.sol\":211:566  function getPrice() internal view returns(uint256){... */\n      swap1\n      jump\t// out\n    tag_52:\n      dup3\n      dup1\n      sload\n      dup3\n      dup3\n      sstore\n      swap1\n      0x00\n      mstore\n      keccak256(0x00, 0x20)\n      swap1\n      dup2\n      add\n      swap3\n      dup3\n      iszero\n      tag_86\n      jumpi\n      swap2\n      0x20\n      mul\n      dup3\n      add\n    tag_87:\n      dup3\n      dup2\n      gt\n      iszero\n      tag_88\n      jumpi\n      dup3\n      mload\n      dup3\n      exp(0x0100, 0x00)\n      dup2\n      sload\n      dup2\n      0xffffffffffffffffffffffffffffffffffffffff\n      mul\n      not\n      and\n      swap1\n      dup4\n      0xffffffffffffffffffffffffffffffffffffffff\n      and\n      mul\n      or\n      swap1\n      sstore\n      pop\n      swap2\n      0x20\n      add\n      swap2\n      swap1\n      0x01\n      add\n      swap1\n      jump(tag_87)\n    tag_88:\n    tag_86:\n      pop\n      swap1\n      pop\n      tag_89\n      swap2\n      swap1\n      tag_90\n      jump\t// in\n    tag_89:\n      pop\n      swap1\n      jump\t// out\n    tag_90:\n    tag_91:\n      dup1\n      dup3\n      gt\n      iszero\n      tag_92\n      jumpi\n      0x00\n      dup2\n      0x00\n      swap1\n      sstore\n      pop\n      0x01\n      add\n      jump(tag_91)\n    tag_92:\n      pop\n      swap1\n      jump\t// out\n        /* \"#utility.yul\":88:205   */\n    tag_94:\n        /* \"#utility.yul\":197:198   */\n      0x00\n        /* \"#utility.yul\":194:195   */\n      0x00\n        /* \"#utility.yul\":187:199   */\n      revert\n        /* \"#utility.yul\":334:460   */\n    tag_96:\n        /* \"#utility.yul\":371:378   */\n      0x00\n        /* \"#utility.yul\":411:453   */\n      0xffffffffffffffffffffffffffffffffffffffff\n        /* \"#utility.yul\":404:409   */\n      dup3\n        /* \"#utility.yul\":400:454   */\n      and\n        /* \"#utility.yul\":389:454   */\n      swap1\n      pop\n        /* \"#utility.yul\":334:460   */\n      swap2\n      swap1\n      pop\n      jump\t// out\n        /* \"#utility.yul\":466:562   */\n    tag_97:\n        /* \"#utility.yul\":503:510   */\n      0x00\n        /* \"#utility.yul\":532:556   */\n      tag_130\n        /* \"#utility.yul\":550:555   */\n      dup3\n        /* \"#utility.yul\":532:556   */\n      tag_96\n      jump\t// in\n    tag_130:\n        /* \"#utility.yul\":521:556   */\n      swap1\n      pop\n        /* \"#utility.yul\":466:562   */\n      swap2\n      swap1\n      pop\n      jump\t// out\n        /* \"#utility.yul\":568:690   */\n    tag_98:\n        /* \"#utility.yul\":641:665   */\n      tag_132\n        /* \"#utility.yul\":659:664   */\n      dup2\n        /* \"#utility.yul\":641:665   */\n      tag_97\n      jump\t// in\n    tag_132:\n        /* \"#utility.yul\":634:639   */\n      dup2\n        /* \"#utility.yul\":631:666   */\n      eq\n        /* \"#utility.yul\":621:684   */\n      tag_133\n      jumpi\n        /* \"#utility.yul\":680:681   */\n      0x00\n        /* \"#utility.yul\":677:678   */\n      0x00\n        /* \"#utility.yul\":670:682   */\n      revert\n        /* \"#utility.yul\":621:684   */\n    tag_133:\n        /* \"#utility.yul\":568:690   */\n      pop\n      jump\t// out\n        /* \"#utility.yul\":696:835   */\n    tag_99:\n        /* \"#utility.yul\":742:747   */\n      0x00\n        /* \"#utility.yul\":780:786   */\n      dup2\n        /* \"#utility.yul\":767:787   */\n      calldataload\n        /* \"#utility.yul\":758:787   */\n      swap1\n      pop\n        /* \"#utility.yul\":796:829   */\n      tag_135\n        /* \"#utility.yul\":823:828   */\n      dup2\n        /* \"#utility.yul\":796:829   */\n      tag_98\n      jump\t// in\n    tag_135:\n        /* \"#utility.yul\":696:835   */\n      swap3\n      swap2\n      pop\n      pop\n      jump\t// out\n        /* \"#utility.yul\":841:1170   */\n    tag_14:\n        /* \"#utility.yul\":900:906   */\n      0x00\n        /* \"#utility.yul\":949:951   */\n      0x20\n        /* \"#utility.yul\":937:946   */\n      dup3\n        /* \"#utility.yul\":928:935   */\n      dup5\n        /* \"#utility.yul\":924:947   */\n      sub\n        /* \"#utility.yul\":920:952   */\n      slt\n        /* \"#utility.yul\":917:1036   */\n      iszero\n      tag_137\n      jumpi\n        /* \"#utility.yul\":955:1034   */\n      tag_138\n      tag_94\n      jump\t// in\n    tag_138:\n        /* \"#utility.yul\":917:1036   */\n    tag_137:\n        /* \"#utility.yul\":1075:1076   */\n      0x00\n        /* \"#utility.yul\":1100:1153   */\n      tag_139\n        /* \"#utility.yul\":1145:1152   */\n      dup5\n        /* \"#utility.yul\":1136:1142   */\n      dup3\n        /* \"#utility.yul\":1125:1134   */\n      dup6\n        /* \"#utility.yul\":1121:1143   */\n      add\n        /* \"#utility.yul\":1100:1153   */\n      tag_99\n      jump\t// in\n    tag_139:\n        /* \"#utility.yul\":1090:1153   */\n      swap2\n      pop\n        /* \"#utility.yul\":1046:1163   */\n      pop\n        /* \"#utility.yul\":841:1170   */\n      swap3\n      swap2\n      pop\n      pop\n      jump\t// out\n        /* \"#utility.yul\":1176:1253   */\n    tag_100:\n        /* \"#utility.yul\":1213:1220   */\n      0x00\n        /* \"#utility.yul\":1242:1247   */\n      dup2\n        /* \"#utility.yul\":1231:1247   */\n      swap1\n      pop\n        /* \"#utility.yul\":1176:1253   */\n      swap2\n      swap1\n      pop\n      jump\t// out\n        /* \"#utility.yul\":1259:1377   */\n    tag_101:\n        /* \"#utility.yul\":1346:1370   */\n      tag_142\n        /* \"#utility.yul\":1364:1369   */\n      dup2\n        /* \"#utility.yul\":1346:1370   */\n      tag_100\n      jump\t// in\n    tag_142:\n        /* \"#utility.yul\":1341:1344   */\n      dup3\n        /* \"#utility.yul\":1334:1371   */\n      mstore\n        /* \"#utility.yul\":1259:1377   */\n      pop\n      pop\n      jump\t// out\n        /* \"#utility.yul\":1383:1605   */\n    tag_17:\n        /* \"#utility.yul\":1476:1480   */\n      0x00\n        /* \"#utility.yul\":1514:1516   */\n      0x20\n        /* \"#utility.yul\":1503:1512   */\n      dup3\n        /* \"#utility.yul\":1499:1517   */\n      add\n        /* \"#utility.yul\":1491:1517   */\n      swap1\n      pop\n        /* \"#utility.yul\":1527:1598   */\n      tag_144\n        /* \"#utility.yul\":1595:1596   */\n      0x00\n        /* \"#utility.yul\":1584:1593   */\n      dup4\n        /* \"#utility.yul\":1580:1597   */\n      add\n        /* \"#utility.yul\":1571:1577   */\n      dup5\n        /* \"#utility.yul\":1527:1598   */\n      tag_101\n      jump\t// in\n    tag_144:\n        /* \"#utility.yul\":1383:1605   */\n      swap3\n      swap2\n      pop\n      pop\n      jump\t// out\n        /* \"#utility.yul\":1611:1729   */\n    tag_102:\n        /* \"#utility.yul\":1698:1722   */\n      tag_146\n        /* \"#utility.yul\":1716:1721   */\n      dup2\n        /* \"#utility.yul\":1698:1722   */\n      tag_97\n      jump\t// in\n    tag_146:\n        /* \"#utility.yul\":1693:1696   */\n      dup3\n        /* \"#utility.yul\":1686:1723   */\n      mstore\n        /* \"#utility.yul\":1611:1729   */\n      pop\n      pop\n      jump\t// out\n        /* \"#utility.yul\":1735:1957   */\n    tag_26:\n        /* \"#utility.yul\":1828:1832   */\n      0x00\n        /* \"#utility.yul\":1866:1868   */\n      0x20\n        /* \"#utility.yul\":1855:1864   */\n      dup3\n        /* \"#utility.yul\":1851:1869   */\n      add\n        /* \"#utility.yul\":1843:1869   */\n      swap1\n      pop\n        /* \"#utility.yul\":1879:1950   */\n      tag_148\n        /* \"#utility.yul\":1947:1948   */\n      0x00\n        /* \"#utility.yul\":1936:1945   */\n      dup4\n        /* \"#utility.yul\":1932:1949   */\n      add\n        /* \"#utility.yul\":1923:1929   */\n      dup5\n        /* \"#utility.yul\":1879:1950   */\n      tag_102\n      jump\t// in\n    tag_148:\n        /* \"#utility.yul\":1735:1957   */\n      swap3\n      swap2\n      pop\n      pop\n      jump\t// out\n        /* \"#utility.yul\":1963:2085   */\n    tag_103:\n        /* \"#utility.yul\":2036:2060   */\n      tag_150\n        /* \"#utility.yul\":2054:2059   */\n      dup2\n        /* \"#utility.yul\":2036:2060   */\n      tag_100\n      jump\t// in\n    tag_150:\n        /* \"#utility.yul\":2029:2034   */\n      dup2\n        /* \"#utility.yul\":2026:2061   */\n      eq\n        /* \"#utility.yul\":2016:2079   */\n      tag_151\n      jumpi\n        /* \"#utility.yul\":2075:2076   */\n      0x00\n        /* \"#utility.yul\":2072:2073   */\n      0x00\n        /* \"#utility.yul\":2065:2077   */\n      revert\n        /* \"#utility.yul\":2016:2079   */\n    tag_151:\n        /* \"#utility.yul\":1963:2085   */\n      pop\n      jump\t// out\n        /* \"#utility.yul\":2091:2230   */\n    tag_104:\n        /* \"#utility.yul\":2137:2142   */\n      0x00\n        /* \"#utility.yul\":2175:2181   */\n      dup2\n        /* \"#utility.yul\":2162:2182   */\n      calldataload\n        /* \"#utility.yul\":2153:2182   */\n      swap1\n      pop\n        /* \"#utility.yul\":2191:2224   */\n      tag_153\n        /* \"#utility.yul\":2218:2223   */\n      dup2\n        /* \"#utility.yul\":2191:2224   */\n      tag_103\n      jump\t// in\n    tag_153:\n        /* \"#utility.yul\":2091:2230   */\n      swap3\n      swap2\n      pop\n      pop\n      jump\t// out\n        /* \"#utility.yul\":2236:2565   */\n    tag_32:\n        /* \"#utility.yul\":2295:2301   */\n      0x00\n        /* \"#utility.yul\":2344:2346   */\n      0x20\n        /* \"#utility.yul\":2332:2341   */\n      dup3\n        /* \"#utility.yul\":2323:2330   */\n      dup5\n        /* \"#utility.yul\":2319:2342   */\n      sub\n        /* \"#utility.yul\":2315:2347   */\n      slt\n        /* \"#utility.yul\":2312:2431   */\n      iszero\n      tag_155\n      jumpi\n        /* \"#utility.yul\":2350:2429   */\n      tag_156\n      tag_94\n      jump\t// in\n    tag_156:\n        /* \"#utility.yul\":2312:2431   */\n    tag_155:\n        /* \"#utility.yul\":2470:2471   */\n      0x00\n        /* \"#utility.yul\":2495:2548   */\n      tag_157\n        /* \"#utility.yul\":2540:2547   */\n      dup5\n        /* \"#utility.yul\":2531:2537   */\n      dup3\n        /* \"#utility.yul\":2520:2529   */\n      dup6\n        /* \"#utility.yul\":2516:2538   */\n      add\n        /* \"#utility.yul\":2495:2548   */\n      tag_104\n      jump\t// in\n    tag_157:\n        /* \"#utility.yul\":2485:2548   */\n      swap2\n      pop\n        /* \"#utility.yul\":2441:2558   */\n      pop\n        /* \"#utility.yul\":2236:2565   */\n      swap3\n      swap2\n      pop\n      pop\n      jump\t// out\n        /* \"#utility.yul\":2571:2740   */\n    tag_105:\n        /* \"#utility.yul\":2655:2666   */\n      0x00\n        /* \"#utility.yul\":2689:2695   */\n      dup3\n        /* \"#utility.yul\":2684:2687   */\n      dup3\n        /* \"#utility.yul\":2677:2696   */\n      mstore\n        /* \"#utility.yul\":2729:2733   */\n      0x20\n        /* \"#utility.yul\":2724:2727   */\n      dup3\n        /* \"#utility.yul\":2720:2734   */\n      add\n        /* \"#utility.yul\":2705:2734   */\n      swap1\n      pop\n        /* \"#utility.yul\":2571:2740   */\n      swap3\n      swap2\n      pop\n      pop\n      jump\t// out\n        /* \"#utility.yul\":2746:2917   */\n    tag_106:\n        /* \"#utility.yul\":2886:2909   */\n      0x53656e64206973206e6f7420746865206f776e65720000000000000000000000\n        /* \"#utility.yul\":2882:2883   */\n      0x00\n        /* \"#utility.yul\":2874:2880   */\n      dup3\n        /* \"#utility.yul\":2870:2884   */\n      add\n        /* \"#utility.yul\":2863:2910   */\n      mstore\n        /* \"#utility.yul\":2746:2917   */\n      pop\n      jump\t// out\n        /* \"#utility.yul\":2923:3289   */\n    tag_107:\n        /* \"#utility.yul\":3065:3068   */\n      0x00\n        /* \"#utility.yul\":3086:3153   */\n      tag_161\n        /* \"#utility.yul\":3150:3152   */\n      0x15\n        /* \"#utility.yul\":3145:3148   */\n      dup4\n        /* \"#utility.yul\":3086:3153   */\n      tag_105\n      jump\t// in\n    tag_161:\n        /* \"#utility.yul\":3079:3153   */\n      swap2\n      pop\n        /* \"#utility.yul\":3162:3255   */\n      tag_162\n        /* \"#utility.yul\":3251:3254   */\n      dup3\n        /* \"#utility.yul\":3162:3255   */\n      tag_106\n      jump\t// in\n    tag_162:\n        /* \"#utility.yul\":3280:3282   */\n      0x20\n        /* \"#utility.yul\":3275:3278   */\n      dup3\n        /* \"#utility.yul\":3271:3283   */\n      add\n        /* \"#utility.yul\":3264:3283   */\n      swap1\n      pop\n        /* \"#utility.yul\":2923:3289   */\n      swap2\n      swap1\n      pop\n      jump\t// out\n        /* \"#utility.yul\":3295:3714   */\n    tag_38:\n        /* \"#utility.yul\":3461:3465   */\n      0x00\n        /* \"#utility.yul\":3499:3501   */\n      0x20\n        /* \"#utility.yul\":3488:3497   */\n      dup3\n        /* \"#utility.yul\":3484:3502   */\n      add\n        /* \"#utility.yul\":3476:3502   */\n      swap1\n      pop\n        /* \"#utility.yul\":3548:3557   */\n      dup2\n        /* \"#utility.yul\":3542:3546   */\n      dup2\n        /* \"#utility.yul\":3538:3558   */\n      sub\n        /* \"#utility.yul\":3534:3535   */\n      0x00\n        /* \"#utility.yul\":3523:3532   */\n      dup4\n        /* \"#utility.yul\":3519:3536   */\n      add\n        /* \"#utility.yul\":3512:3559   */\n      mstore\n        /* \"#utility.yul\":3576:3707   */\n      tag_164\n        /* \"#utility.yul\":3702:3706   */\n      dup2\n        /* \"#utility.yul\":3576:3707   */\n      tag_107\n      jump\t// in\n    tag_164:\n        /* \"#utility.yul\":3568:3707   */\n      swap1\n      pop\n        /* \"#utility.yul\":3295:3714   */\n      swap2\n      swap1\n      pop\n      jump\t// out\n        /* \"#utility.yul\":3720:3900   */\n    tag_45:\n        /* \"#utility.yul\":3768:3845   */\n      0x4e487b7100000000000000000000000000000000000000000000000000000000\n        /* \"#utility.yul\":3765:3766   */\n      0x00\n        /* \"#utility.yul\":3758:3846   */\n      mstore\n        /* \"#utility.yul\":3865:3869   */\n      0x32\n        /* \"#utility.yul\":3862:3863   */\n      0x04\n        /* \"#utility.yul\":3855:3870   */\n      mstore\n        /* \"#utility.yul\":3889:3893   */\n      0x24\n        /* \"#utility.yul\":3886:3887   */\n      0x00\n        /* \"#utility.yul\":3879:3894   */\n      revert\n        /* \"#utility.yul\":3906:4086   */\n    tag_49:\n        /* \"#utility.yul\":3954:4031   */\n      0x4e487b7100000000000000000000000000000000000000000000000000000000\n        /* \"#utility.yul\":3951:3952   */\n      0x00\n        /* \"#utility.yul\":3944:4032   */\n      mstore\n        /* \"#utility.yul\":4051:4055   */\n      0x41\n        /* \"#utility.yul\":4048:4049   */\n      0x04\n        /* \"#utility.yul\":4041:4056   */\n      mstore\n        /* \"#utility.yul\":4075:4079   */\n      0x24\n        /* \"#utility.yul\":4072:4073   */\n      0x00\n        /* \"#utility.yul\":4065:4080   */\n      revert\n        /* \"#utility.yul\":4092:4239   */\n    tag_108:\n        /* \"#utility.yul\":4193:4204   */\n      0x00\n        /* \"#utility.yul\":4230:4233   */\n      dup2\n        /* \"#utility.yul\":4215:4233   */\n      swap1\n      pop\n        /* \"#utility.yul\":4092:4239   */\n      swap3\n      swap2\n      pop\n      pop\n      jump\t// out\n        /* \"#utility.yul\":4245:4359   */\n    tag_109:\n      pop\n      jump\t// out\n        /* \"#utility.yul\":4365:4763   */\n    tag_110:\n        /* \"#utility.yul\":4524:4527   */\n      0x00\n        /* \"#utility.yul\":4545:4628   */\n      tag_170\n        /* \"#utility.yul\":4626:4627   */\n      0x00\n        /* \"#utility.yul\":4621:4624   */\n      dup4\n        /* \"#utility.yul\":4545:4628   */\n      tag_108\n      jump\t// in\n    tag_170:\n        /* \"#utility.yul\":4538:4628   */\n      swap2\n      pop\n        /* \"#utility.yul\":4637:4730   */\n      tag_171\n        /* \"#utility.yul\":4726:4729   */\n      dup3\n        /* \"#utility.yul\":4637:4730   */\n      tag_109\n      jump\t// in\n    tag_171:\n        /* \"#utility.yul\":4755:4756   */\n      0x00\n        /* \"#utility.yul\":4750:4753   */\n      dup3\n        /* \"#utility.yul\":4746:4757   */\n      add\n        /* \"#utility.yul\":4739:4757   */\n      swap1\n      pop\n        /* \"#utility.yul\":4365:4763   */\n      swap2\n      swap1\n      pop\n      jump\t// out\n        /* \"#utility.yul\":4769:5148   */\n    tag_54:\n        /* \"#utility.yul\":4953:4956   */\n      0x00\n        /* \"#utility.yul\":4975:5122   */\n      tag_173\n        /* \"#utility.yul\":5118:5121   */\n      dup3\n        /* \"#utility.yul\":4975:5122   */\n      tag_110\n      jump\t// in\n    tag_173:\n        /* \"#utility.yul\":4968:5122   */\n      swap2\n      pop\n        /* \"#utility.yul\":5139:5142   */\n      dup2\n        /* \"#utility.yul\":5132:5142   */\n      swap1\n      pop\n        /* \"#utility.yul\":4769:5148   */\n      swap2\n      swap1\n      pop\n      jump\t// out\n        /* \"#utility.yul\":5154:5315   */\n    tag_111:\n        /* \"#utility.yul\":5294:5307   */\n      0x43616c6c206661696c6564000000000000000000000000000000000000000000\n        /* \"#utility.yul\":5290:5291   */\n      0x00\n        /* \"#utility.yul\":5282:5288   */\n      dup3\n        /* \"#utility.yul\":5278:5292   */\n      add\n        /* \"#utility.yul\":5271:5308   */\n      mstore\n        /* \"#utility.yul\":5154:5315   */\n      pop\n      jump\t// out\n        /* \"#utility.yul\":5321:5687   */\n    tag_112:\n        /* \"#utility.yul\":5463:5466   */\n      0x00\n        /* \"#utility.yul\":5484:5551   */\n      tag_176\n        /* \"#utility.yul\":5548:5550   */\n      0x0b\n        /* \"#utility.yul\":5543:5546   */\n      dup4\n        /* \"#utility.yul\":5484:5551   */\n      tag_105\n      jump\t// in\n    tag_176:\n        /* \"#utility.yul\":5477:5551   */\n      swap2\n      pop\n        /* \"#utility.yul\":5560:5653   */\n      tag_177\n        /* \"#utility.yul\":5649:5652   */\n      dup3\n        /* \"#utility.yul\":5560:5653   */\n      tag_111\n      jump\t// in\n    tag_177:\n        /* \"#utility.yul\":5678:5680   */\n      0x20\n        /* \"#utility.yul\":5673:5676   */\n      dup3\n        /* \"#utility.yul\":5669:5681   */\n      add\n        /* \"#utility.yul\":5662:5681   */\n      swap1\n      pop\n        /* \"#utility.yul\":5321:5687   */\n      swap2\n      swap1\n      pop\n      jump\t// out\n        /* \"#utility.yul\":5693:6112   */\n    tag_60:\n        /* \"#utility.yul\":5859:5863   */\n      0x00\n        /* \"#utility.yul\":5897:5899   */\n      0x20\n        /* \"#utility.yul\":5886:5895   */\n      dup3\n        /* \"#utility.yul\":5882:5900   */\n      add\n        /* \"#utility.yul\":5874:5900   */\n      swap1\n      pop\n        /* \"#utility.yul\":5946:5955   */\n      dup2\n        /* \"#utility.yul\":5940:5944   */\n      dup2\n        /* \"#utility.yul\":5936:5956   */\n      sub\n        /* \"#utility.yul\":5932:5933   */\n      0x00\n        /* \"#utility.yul\":5921:5930   */\n      dup4\n        /* \"#utility.yul\":5917:5934   */\n      add\n        /* \"#utility.yul\":5910:5957   */\n      mstore\n        /* \"#utility.yul\":5974:6105   */\n      tag_179\n        /* \"#utility.yul\":6100:6104   */\n      dup2\n        /* \"#utility.yul\":5974:6105   */\n      tag_112\n      jump\t// in\n    tag_179:\n        /* \"#utility.yul\":5966:6105   */\n      swap1\n      pop\n        /* \"#utility.yul\":5693:6112   */\n      swap2\n      swap1\n      pop\n      jump\t// out\n        /* \"#utility.yul\":6118:6283   */\n    tag_113:\n        /* \"#utility.yul\":6258:6275   */\n      0x6e6f7420656e676f756768204554480000000000000000000000000000000000\n        /* \"#utility.yul\":6254:6255   */\n      0x00\n        /* \"#utility.yul\":6246:6252   */\n      dup3\n        /* \"#utility.yul\":6242:6256   */\n      add\n        /* \"#utility.yul\":6235:6276   */\n      mstore\n        /* \"#utility.yul\":6118:6283   */\n      pop\n      jump\t// out\n        /* \"#utility.yul\":6289:6655   */\n    tag_114:\n        /* \"#utility.yul\":6431:6434   */\n      0x00\n        /* \"#utility.yul\":6452:6519   */\n      tag_182\n        /* \"#utility.yul\":6516:6518   */\n      0x0f\n        /* \"#utility.yul\":6511:6514   */\n      dup4\n        /* \"#utility.yul\":6452:6519   */\n      tag_105\n      jump\t// in\n    tag_182:\n        /* \"#utility.yul\":6445:6519   */\n      swap2\n      pop\n        /* \"#utility.yul\":6528:6621   */\n      tag_183\n        /* \"#utility.yul\":6617:6620   */\n      dup3\n        /* \"#utility.yul\":6528:6621   */\n      tag_113\n      jump\t// in\n    tag_183:\n        /* \"#utility.yul\":6646:6648   */\n      0x20\n        /* \"#utility.yul\":6641:6644   */\n      dup3\n        /* \"#utility.yul\":6637:6649   */\n      add\n        /* \"#utility.yul\":6630:6649   */\n      swap1\n      pop\n        /* \"#utility.yul\":6289:6655   */\n      swap2\n      swap1\n      pop\n      jump\t// out\n        /* \"#utility.yul\":6661:7080   */\n    tag_66:\n        /* \"#utility.yul\":6827:6831   */\n      0x00\n        /* \"#utility.yul\":6865:6867   */\n      0x20\n        /* \"#utility.yul\":6854:6863   */\n      dup3\n        /* \"#utility.yul\":6850:6868   */\n      add\n        /* \"#utility.yul\":6842:6868   */\n      swap1\n      pop\n        /* \"#utility.yul\":6914:6923   */\n      dup2\n        /* \"#utility.yul\":6908:6912   */\n      dup2\n        /* \"#utility.yul\":6904:6924   */\n      sub\n        /* \"#utility.yul\":6900:6901   */\n      0x00\n        /* \"#utility.yul\":6889:6898   */\n      dup4\n        /* \"#utility.yul\":6885:6902   */\n      add\n        /* \"#utility.yul\":6878:6925   */\n      mstore\n        /* \"#utility.yul\":6942:7073   */\n      tag_185\n        /* \"#utility.yul\":7068:7072   */\n      dup2\n        /* \"#utility.yul\":6942:7073   */\n      tag_114\n      jump\t// in\n    tag_185:\n        /* \"#utility.yul\":6934:7073   */\n      swap1\n      pop\n        /* \"#utility.yul\":6661:7080   */\n      swap2\n      swap1\n      pop\n      jump\t// out\n        /* \"#utility.yul\":7086:7266   */\n    tag_115:\n        /* \"#utility.yul\":7134:7211   */\n      0x4e487b7100000000000000000000000000000000000000000000000000000000\n        /* \"#utility.yul\":7131:7132   */\n      0x00\n        /* \"#utility.yul\":7124:7212   */\n      mstore\n        /* \"#utility.yul\":7231:7235   */\n      0x11\n        /* \"#utility.yul\":7228:7229   */\n      0x04\n        /* \"#utility.yul\":7221:7236   */\n      mstore\n        /* \"#utility.yul\":7255:7259   */\n      0x24\n        /* \"#utility.yul\":7252:7253   */\n      0x00\n        /* \"#utility.yul\":7245:7260   */\n      revert\n        /* \"#utility.yul\":7272:7463   */\n    tag_69:\n        /* \"#utility.yul\":7312:7315   */\n      0x00\n        /* \"#utility.yul\":7331:7351   */\n      tag_188\n        /* \"#utility.yul\":7349:7350   */\n      dup3\n        /* \"#utility.yul\":7331:7351   */\n      tag_100\n      jump\t// in\n    tag_188:\n        /* \"#utility.yul\":7326:7351   */\n      swap2\n      pop\n        /* \"#utility.yul\":7365:7385   */\n      tag_189\n        /* \"#utility.yul\":7383:7384   */\n      dup4\n        /* \"#utility.yul\":7365:7385   */\n      tag_100\n      jump\t// in\n    tag_189:\n        /* \"#utility.yul\":7360:7385   */\n      swap3\n      pop\n        /* \"#utility.yul\":7408:7409   */\n      dup3\n        /* \"#utility.yul\":7405:7406   */\n      dup3\n        /* \"#utility.yul\":7401:7410   */\n      add\n        /* \"#utility.yul\":7394:7410   */\n      swap1\n      pop\n        /* \"#utility.yul\":7429:7432   */\n      dup1\n        /* \"#utility.yul\":7426:7427   */\n      dup3\n        /* \"#utility.yul\":7423:7433   */\n      gt\n        /* \"#utility.yul\":7420:7456   */\n      iszero\n      tag_190\n      jumpi\n        /* \"#utility.yul\":7436:7454   */\n      tag_191\n      tag_115\n      jump\t// in\n    tag_191:\n        /* \"#utility.yul\":7420:7456   */\n    tag_190:\n        /* \"#utility.yul\":7272:7463   */\n      swap3\n      swap2\n      pop\n      pop\n      jump\t// out\n        /* \"#utility.yul\":7469:7879   */\n    tag_76:\n        /* \"#utility.yul\":7509:7516   */\n      0x00\n        /* \"#utility.yul\":7532:7552   */\n      tag_193\n        /* \"#utility.yul\":7550:7551   */\n      dup3\n        /* \"#utility.yul\":7532:7552   */\n      tag_100\n      jump\t// in\n    tag_193:\n        /* \"#utility.yul\":7527:7552   */\n      swap2\n      pop\n        /* \"#utility.yul\":7566:7586   */\n      tag_194\n        /* \"#utility.yul\":7584:7585   */\n      dup4\n        /* \"#utility.yul\":7566:7586   */\n      tag_100\n      jump\t// in\n    tag_194:\n        /* \"#utility.yul\":7561:7586   */\n      swap3\n      pop\n        /* \"#utility.yul\":7621:7622   */\n      dup3\n        /* \"#utility.yul\":7618:7619   */\n      dup3\n        /* \"#utility.yul\":7614:7623   */\n      mul\n        /* \"#utility.yul\":7643:7673   */\n      tag_195\n        /* \"#utility.yul\":7661:7672   */\n      dup2\n        /* \"#utility.yul\":7643:7673   */\n      tag_100\n      jump\t// in\n    tag_195:\n        /* \"#utility.yul\":7632:7673   */\n      swap2\n      pop\n        /* \"#utility.yul\":7822:7823   */\n      dup3\n        /* \"#utility.yul\":7813:7820   */\n      dup3\n        /* \"#utility.yul\":7809:7824   */\n      div\n        /* \"#utility.yul\":7806:7807   */\n      dup5\n        /* \"#utility.yul\":7803:7825   */\n      eq\n        /* \"#utility.yul\":7783:7784   */\n      dup4\n        /* \"#utility.yul\":7776:7785   */\n      iszero\n        /* \"#utility.yul\":7756:7839   */\n      or\n        /* \"#utility.yul\":7733:7872   */\n      tag_196\n      jumpi\n        /* \"#utility.yul\":7852:7870   */\n      tag_197\n      tag_115\n      jump\t// in\n    tag_197:\n        /* \"#utility.yul\":7733:7872   */\n    tag_196:\n        /* \"#utility.yul\":7517:7879   */\n      pop\n        /* \"#utility.yul\":7469:7879   */\n      swap3\n      swap2\n      pop\n      pop\n      jump\t// out\n        /* \"#utility.yul\":7885:8065   */\n    tag_116:\n        /* \"#utility.yul\":7933:8010   */\n      0x4e487b7100000000000000000000000000000000000000000000000000000000\n        /* \"#utility.yul\":7930:7931   */\n      0x00\n        /* \"#utility.yul\":7923:8011   */\n      mstore\n        /* \"#utility.yul\":8030:8034   */\n      0x12\n        /* \"#utility.yul\":8027:8028   */\n      0x04\n        /* \"#utility.yul\":8020:8035   */\n      mstore\n        /* \"#utility.yul\":8054:8058   */\n      0x24\n        /* \"#utility.yul\":8051:8052   */\n      0x00\n        /* \"#utility.yul\":8044:8059   */\n      revert\n        /* \"#utility.yul\":8071:8256   */\n    tag_78:\n        /* \"#utility.yul\":8111:8112   */\n      0x00\n        /* \"#utility.yul\":8128:8148   */\n      tag_200\n        /* \"#utility.yul\":8146:8147   */\n      dup3\n        /* \"#utility.yul\":8128:8148   */\n      tag_100\n      jump\t// in\n    tag_200:\n        /* \"#utility.yul\":8123:8148   */\n      swap2\n      pop\n        /* \"#utility.yul\":8162:8182   */\n      tag_201\n        /* \"#utility.yul\":8180:8181   */\n      dup4\n        /* \"#utility.yul\":8162:8182   */\n      tag_100\n      jump\t// in\n    tag_201:\n        /* \"#utility.yul\":8157:8182   */\n      swap3\n      pop\n        /* \"#utility.yul\":8201:8202   */\n      dup3\n        /* \"#utility.yul\":8191:8226   */\n      tag_202\n      jumpi\n        /* \"#utility.yul\":8206:8224   */\n      tag_203\n      tag_116\n      jump\t// in\n    tag_203:\n        /* \"#utility.yul\":8191:8226   */\n    tag_202:\n        /* \"#utility.yul\":8248:8249   */\n      dup3\n        /* \"#utility.yul\":8245:8246   */\n      dup3\n        /* \"#utility.yul\":8241:8250   */\n      div\n        /* \"#utility.yul\":8236:8250   */\n      swap1\n      pop\n        /* \"#utility.yul\":8071:8256   */\n      swap3\n      swap2\n      pop\n      pop\n      jump\t// out\n        /* \"#utility.yul\":8262:8367   */\n    tag_117:\n        /* \"#utility.yul\":8298:8305   */\n      0x00\n        /* \"#utility.yul\":8338:8360   */\n      0xffffffffffffffffffff\n        /* \"#utility.yul\":8331:8336   */\n      dup3\n        /* \"#utility.yul\":8327:8361   */\n      and\n        /* \"#utility.yul\":8316:8361   */\n      swap1\n      pop\n        /* \"#utility.yul\":8262:8367   */\n      swap2\n      swap1\n      pop\n      jump\t// out\n        /* \"#utility.yul\":8373:8493   */\n    tag_118:\n        /* \"#utility.yul\":8445:8468   */\n      tag_206\n        /* \"#utility.yul\":8462:8467   */\n      dup2\n        /* \"#utility.yul\":8445:8468   */\n      tag_117\n      jump\t// in\n    tag_206:\n        /* \"#utility.yul\":8438:8443   */\n      dup2\n        /* \"#utility.yul\":8435:8469   */\n      eq\n        /* \"#utility.yul\":8425:8487   */\n      tag_207\n      jumpi\n        /* \"#utility.yul\":8483:8484   */\n      0x00\n        /* \"#utility.yul\":8480:8481   */\n      0x00\n        /* \"#utility.yul\":8473:8485   */\n      revert\n        /* \"#utility.yul\":8425:8487   */\n    tag_207:\n        /* \"#utility.yul\":8373:8493   */\n      pop\n      jump\t// out\n        /* \"#utility.yul\":8499:8640   */\n    tag_119:\n        /* \"#utility.yul\":8555:8560   */\n      0x00\n        /* \"#utility.yul\":8586:8592   */\n      dup2\n        /* \"#utility.yul\":8580:8593   */\n      mload\n        /* \"#utility.yul\":8571:8593   */\n      swap1\n      pop\n        /* \"#utility.yul\":8602:8634   */\n      tag_209\n        /* \"#utility.yul\":8628:8633   */\n      dup2\n        /* \"#utility.yul\":8602:8634   */\n      tag_118\n      jump\t// in\n    tag_209:\n        /* \"#utility.yul\":8499:8640   */\n      swap3\n      swap2\n      pop\n      pop\n      jump\t// out\n        /* \"#utility.yul\":8646:8722   */\n    tag_120:\n        /* \"#utility.yul\":8682:8689   */\n      0x00\n        /* \"#utility.yul\":8711:8716   */\n      dup2\n        /* \"#utility.yul\":8700:8716   */\n      swap1\n      pop\n        /* \"#utility.yul\":8646:8722   */\n      swap2\n      swap1\n      pop\n      jump\t// out\n        /* \"#utility.yul\":8728:8848   */\n    tag_121:\n        /* \"#utility.yul\":8800:8823   */\n      tag_212\n        /* \"#utility.yul\":8817:8822   */\n      dup2\n        /* \"#utility.yul\":8800:8823   */\n      tag_120\n      jump\t// in\n    tag_212:\n        /* \"#utility.yul\":8793:8798   */\n      dup2\n        /* \"#utility.yul\":8790:8824   */\n      eq\n        /* \"#utility.yul\":8780:8842   */\n      tag_213\n      jumpi\n        /* \"#utility.yul\":8838:8839   */\n      0x00\n        /* \"#utility.yul\":8835:8836   */\n      0x00\n        /* \"#utility.yul\":8828:8840   */\n      revert\n        /* \"#utility.yul\":8780:8842   */\n    tag_213:\n        /* \"#utility.yul\":8728:8848   */\n      pop\n      jump\t// out\n        /* \"#utility.yul\":8854:8995   */\n    tag_122:\n        /* \"#utility.yul\":8910:8915   */\n      0x00\n        /* \"#utility.yul\":8941:8947   */\n      dup2\n        /* \"#utility.yul\":8935:8948   */\n      mload\n        /* \"#utility.yul\":8926:8948   */\n      swap1\n      pop\n        /* \"#utility.yul\":8957:8989   */\n      tag_215\n        /* \"#utility.yul\":8983:8988   */\n      dup2\n        /* \"#utility.yul\":8957:8989   */\n      tag_121\n      jump\t// in\n    tag_215:\n        /* \"#utility.yul\":8854:8995   */\n      swap3\n      swap2\n      pop\n      pop\n      jump\t// out\n        /* \"#utility.yul\":9001:9144   */\n    tag_123:\n        /* \"#utility.yul\":9058:9063   */\n      0x00\n        /* \"#utility.yul\":9089:9095   */\n      dup2\n        /* \"#utility.yul\":9083:9096   */\n      mload\n        /* \"#utility.yul\":9074:9096   */\n      swap1\n      pop\n        /* \"#utility.yul\":9105:9138   */\n      tag_217\n        /* \"#utility.yul\":9132:9137   */\n      dup2\n        /* \"#utility.yul\":9105:9138   */\n      tag_103\n      jump\t// in\n    tag_217:\n        /* \"#utility.yul\":9001:9144   */\n      swap3\n      swap2\n      pop\n      pop\n      jump\t// out\n        /* \"#utility.yul\":9150:10121   */\n    tag_83:\n        /* \"#utility.yul\":9253:9259   */\n      0x00\n        /* \"#utility.yul\":9261:9267   */\n      0x00\n        /* \"#utility.yul\":9269:9275   */\n      0x00\n        /* \"#utility.yul\":9277:9283   */\n      0x00\n        /* \"#utility.yul\":9285:9291   */\n      0x00\n        /* \"#utility.yul\":9334:9337   */\n      0xa0\n        /* \"#utility.yul\":9322:9331   */\n      dup7\n        /* \"#utility.yul\":9313:9320   */\n      dup9\n        /* \"#utility.yul\":9309:9332   */\n      sub\n        /* \"#utility.yul\":9305:9338   */\n      slt\n        /* \"#utility.yul\":9302:9422   */\n      iszero\n      tag_219\n      jumpi\n        /* \"#utility.yul\":9341:9420   */\n      tag_220\n      tag_94\n      jump\t// in\n    tag_220:\n        /* \"#utility.yul\":9302:9422   */\n    tag_219:\n        /* \"#utility.yul\":9461:9462   */\n      0x00\n        /* \"#utility.yul\":9486:9549   */\n      tag_221\n        /* \"#utility.yul\":9541:9548   */\n      dup9\n        /* \"#utility.yul\":9532:9538   */\n      dup3\n        /* \"#utility.yul\":9521:9530   */\n      dup10\n        /* \"#utility.yul\":9517:9539   */\n      add\n        /* \"#utility.yul\":9486:9549   */\n      tag_119\n      jump\t// in\n    tag_221:\n        /* \"#utility.yul\":9476:9549   */\n      swap6\n      pop\n        /* \"#utility.yul\":9432:9559   */\n      pop\n        /* \"#utility.yul\":9598:9600   */\n      0x20\n        /* \"#utility.yul\":9624:9687   */\n      tag_222\n        /* \"#utility.yul\":9679:9686   */\n      dup9\n        /* \"#utility.yul\":9670:9676   */\n      dup3\n        /* \"#utility.yul\":9659:9668   */\n      dup10\n        /* \"#utility.yul\":9655:9677   */\n      add\n        /* \"#utility.yul\":9624:9687   */\n      tag_122\n      jump\t// in\n    tag_222:\n        /* \"#utility.yul\":9614:9687   */\n      swap5\n      pop\n        /* \"#utility.yul\":9569:9697   */\n      pop\n        /* \"#utility.yul\":9736:9738   */\n      0x40\n        /* \"#utility.yul\":9762:9826   */\n      tag_223\n        /* \"#utility.yul\":9818:9825   */\n      dup9\n        /* \"#utility.yul\":9809:9815   */\n      dup3\n        /* \"#utility.yul\":9798:9807   */\n      dup10\n        /* \"#utility.yul\":9794:9816   */\n      add\n        /* \"#utility.yul\":9762:9826   */\n      tag_123\n      jump\t// in\n    tag_223:\n        /* \"#utility.yul\":9752:9826   */\n      swap4\n      pop\n        /* \"#utility.yul\":9707:9836   */\n      pop\n        /* \"#utility.yul\":9875:9877   */\n      0x60\n        /* \"#utility.yul\":9901:9965   */\n      tag_224\n        /* \"#utility.yul\":9957:9964   */\n      dup9\n        /* \"#utility.yul\":9948:9954   */\n      dup3\n        /* \"#utility.yul\":9937:9946   */\n      dup10\n        /* \"#utility.yul\":9933:9955   */\n      add\n        /* \"#utility.yul\":9901:9965   */\n      tag_123\n      jump\t// in\n    tag_224:\n        /* \"#utility.yul\":9891:9965   */\n      swap3\n      pop\n        /* \"#utility.yul\":9846:9975   */\n      pop\n        /* \"#utility.yul\":10014:10017   */\n      0x80\n        /* \"#utility.yul\":10041:10104   */\n      tag_225\n        /* \"#utility.yul\":10096:10103   */\n      dup9\n        /* \"#utility.yul\":10087:10093   */\n      dup3\n        /* \"#utility.yul\":10076:10085   */\n      dup10\n        /* \"#utility.yul\":10072:10094   */\n      add\n        /* \"#utility.yul\":10041:10104   */\n      tag_119\n      jump\t// in\n    tag_225:\n        /* \"#utility.yul\":10031:10104   */\n      swap2\n      pop\n        /* \"#utility.yul\":9985:10114   */\n      pop\n        /* \"#utility.yul\":9150:10121   */\n      swap3\n      swap6\n      pop\n      swap3\n      swap6\n      swap1\n      swap4\n      pop\n      jump\t// out\n        /* \"#utility.yul\":10127:10683   */\n    tag_85:\n        /* \"#utility.yul\":10166:10173   */\n      0x00\n        /* \"#utility.yul\":10189:10208   */\n      tag_227\n        /* \"#utility.yul\":10206:10207   */\n      dup3\n        /* \"#utility.yul\":10189:10208   */\n      tag_120\n      jump\t// in\n    tag_227:\n        /* \"#utility.yul\":10184:10208   */\n      swap2\n      pop\n        /* \"#utility.yul\":10222:10241   */\n      tag_228\n        /* \"#utility.yul\":10239:10240   */\n      dup4\n        /* \"#utility.yul\":10222:10241   */\n      tag_120\n      jump\t// in\n    tag_228:\n        /* \"#utility.yul\":10217:10241   */\n      swap3\n      pop\n        /* \"#utility.yul\":10276:10277   */\n      dup3\n        /* \"#utility.yul\":10273:10274   */\n      dup3\n        /* \"#utility.yul\":10269:10278   */\n      mul\n        /* \"#utility.yul\":10298:10327   */\n      tag_229\n        /* \"#utility.yul\":10315:10326   */\n      dup2\n        /* \"#utility.yul\":10298:10327   */\n      tag_120\n      jump\t// in\n    tag_229:\n        /* \"#utility.yul\":10287:10327   */\n      swap2\n      pop\n        /* \"#utility.yul\":10385:10451   */\n      0x8000000000000000000000000000000000000000000000000000000000000000\n        /* \"#utility.yul\":10382:10383   */\n      dup5\n        /* \"#utility.yul\":10379:10452   */\n      eq\n        /* \"#utility.yul\":10375:10376   */\n      0x00\n        /* \"#utility.yul\":10372:10373   */\n      dup5\n        /* \"#utility.yul\":10368:10377   */\n      slt\n        /* \"#utility.yul\":10364:10453   */\n      and\n        /* \"#utility.yul\":10361:10476   */\n      iszero\n      tag_230\n      jumpi\n        /* \"#utility.yul\":10456:10474   */\n      tag_231\n      tag_115\n      jump\t// in\n    tag_231:\n        /* \"#utility.yul\":10361:10476   */\n    tag_230:\n        /* \"#utility.yul\":10626:10627   */\n      dup3\n        /* \"#utility.yul\":10617:10624   */\n      dup3\n        /* \"#utility.yul\":10612:10628   */\n      sdiv\n        /* \"#utility.yul\":10609:10610   */\n      dup5\n        /* \"#utility.yul\":10606:10629   */\n      eq\n        /* \"#utility.yul\":10586:10587   */\n      dup4\n        /* \"#utility.yul\":10579:10588   */\n      iszero\n        /* \"#utility.yul\":10559:10643   */\n      or\n        /* \"#utility.yul\":10536:10676   */\n      tag_232\n      jumpi\n        /* \"#utility.yul\":10656:10674   */\n      tag_233\n      tag_115\n      jump\t// in\n    tag_233:\n        /* \"#utility.yul\":10536:10676   */\n    tag_232:\n        /* \"#utility.yul\":10174:10683   */\n      pop\n        /* \"#utility.yul\":10127:10683   */\n      swap3\n      swap2\n      pop\n      pop\n      jump\t// out\n\n    auxdata: 0xa2646970667358221220c72dc585efa0a52e903c476371d3e6a2e9b77081d6719685cec7431b40f03d5e64736f6c634300081e0033\n}\n",
				"bytecode": {
					"linkReferences": {},
					"object": "6080604052348015600e575f5ffd5b503360025f6101000a81548173ffffffffffffffffffffffffffffffffffffffff021916908373ffffffffffffffffffffffffffffffffffffffff160217905550610c7a8061005c5f395ff3fe608060405260043610610054575f3560e01c80633ccfd60b146100585780633e47d6f31461006e5780636b69a592146100aa5780638da5cb5b146100d4578063b60d4288146100fe578063dc0d3dff14610108575b5f5ffd5b348015610063575f5ffd5b5061006c610144565b005b348015610079575f5ffd5b50610094600480360381019061008f9190610717565b61037c565b6040516100a1919061075a565b60405180910390f35b3480156100b5575f5ffd5b506100be610391565b6040516100cb919061075a565b60405180910390f35b3480156100df575f5ffd5b506100e861039d565b6040516100f59190610782565b60405180910390f35b6101066103c2565b005b348015610113575f5ffd5b5061012e600480360381019061012991906107c5565b610500565b60405161013b9190610782565b60405180910390f35b60025f9054906101000a900473ffffffffffffffffffffffffffffffffffffffff1673ffffffffffffffffffffffffffffffffffffffff163373ffffffffffffffffffffffffffffffffffffffff16146101d3576040517f08c379a00000000000000000000000000000000000000000000000000000000081526004016101ca9061084a565b60405180910390fd5b5f5f90505b5f80549050811015610272575f5f82815481106101f8576101f7610868565b5b905f5260205f20015f9054906101000a900473ffffffffffffffffffffffffffffffffffffffff1690505f60015f8373ffffffffffffffffffffffffffffffffffffffff1673ffffffffffffffffffffffffffffffffffffffff1681526020019081526020015f20819055505080806001019150506101d8565b505f67ffffffffffffffff81111561028d5761028c610895565b5b6040519080825280602002602001820160405280156102bb5781602001602082028036833780820191505090505b505f90805190602001906102d0929190610617565b505f3373ffffffffffffffffffffffffffffffffffffffff16476040516102f6906108ef565b5f6040518083038185875af1925050503d805f8114610330576040519150601f19603f3d011682016040523d82523d5f602084013e610335565b606091505b5050905080610379576040517f08c379a00000000000000000000000000000000000000000000000000000000081526004016103709061094d565b60405180910390fd5b50565b6001602052805f5260405f205f915090505481565b674563918244f4000081565b60025f9054906101000a900473ffffffffffffffffffffffffffffffffffffffff1681565b674563918244f400006103d43461053a565b1015610415576040517f08c379a000000000000000000000000000000000000000000000000000000000815260040161040c906109b5565b60405180910390fd5b5f33908060018154018082558091505060019003905f5260205f20015f9091909190916101000a81548173ffffffffffffffffffffffffffffffffffffffff021916908373ffffffffffffffffffffffffffffffffffffffff1602179055503460015f3373ffffffffffffffffffffffffffffffffffffffff1673ffffffffffffffffffffffffffffffffffffffff1681526020019081526020015f20546104bd9190610a00565b60015f3373ffffffffffffffffffffffffffffffffffffffff1673ffffffffffffffffffffffffffffffffffffffff1681526020019081526020015f2081905550565b5f818154811061050e575f80fd5b905f5260205f20015f915054906101000a900473ffffffffffffffffffffffffffffffffffffffff1681565b5f5f610544610572565b90505f670de0b6b3a7640000848361055c9190610a33565b6105669190610aa1565b90508092505050919050565b5f5f73694aa1769357215de4fac081bf1f309adc32530690505f8173ffffffffffffffffffffffffffffffffffffffff1663feaf968c6040518163ffffffff1660e01b815260040160a060405180830381865afa1580156105d5573d5f5f3e3d5ffd5b505050506040513d601f19601f820116820180604052508101906105f99190610b57565b5050509150506402540be400816106109190610bce565b9250505090565b828054828255905f5260205f2090810192821561068d579160200282015b8281111561068c578251825f6101000a81548173ffffffffffffffffffffffffffffffffffffffff021916908373ffffffffffffffffffffffffffffffffffffffff16021790555091602001919060010190610635565b5b50905061069a919061069e565b5090565b5b808211156106b5575f815f90555060010161069f565b5090565b5f5ffd5b5f73ffffffffffffffffffffffffffffffffffffffff82169050919050565b5f6106e6826106bd565b9050919050565b6106f6816106dc565b8114610700575f5ffd5b50565b5f81359050610711816106ed565b92915050565b5f6020828403121561072c5761072b6106b9565b5b5f61073984828501610703565b91505092915050565b5f819050919050565b61075481610742565b82525050565b5f60208201905061076d5f83018461074b565b92915050565b61077c816106dc565b82525050565b5f6020820190506107955f830184610773565b92915050565b6107a481610742565b81146107ae575f5ffd5b50565b5f813590506107bf8161079b565b92915050565b5f602082840312156107da576107d96106b9565b5b5f6107e7848285016107b1565b91505092915050565b5f82825260208201905092915050565b7f53656e64206973206e6f7420746865206f776e657200000000000000000000005f82015250565b5f6108346015836107f0565b915061083f82610800565b602082019050919050565b5f6020820190508181035f83015261086181610828565b9050919050565b7f4e487b71000000000000000000000000000000000000000000000000000000005f52603260045260245ffd5b7f4e487b71000000000000000000000000000000000000000000000000000000005f52604160045260245ffd5b5f81905092915050565b50565b5f6108da5f836108c2565b91506108e5826108cc565b5f82019050919050565b5f6108f9826108cf565b9150819050919050565b7f43616c6c206661696c65640000000000000000000000000000000000000000005f82015250565b5f610937600b836107f0565b915061094282610903565b602082019050919050565b5f6020820190508181035f8301526109648161092b565b9050919050565b7f6e6f7420656e676f7567682045544800000000000000000000000000000000005f82015250565b5f61099f600f836107f0565b91506109aa8261096b565b602082019050919050565b5f6020820190508181035f8301526109cc81610993565b9050919050565b7f4e487b71000000000000000000000000000000000000000000000000000000005f52601160045260245ffd5b5f610a0a82610742565b9150610a1583610742565b9250828201905080821115610a2d57610a2c6109d3565b5b92915050565b5f610a3d82610742565b9150610a4883610742565b9250828202610a5681610742565b91508282048414831517610a6d57610a6c6109d3565b5b5092915050565b7f4e487b71000000000000000000000000000000000000000000000000000000005f52601260045260245ffd5b5f610aab82610742565b9150610ab683610742565b925082610ac657610ac5610a74565b5b828204905092915050565b5f69ffffffffffffffffffff82169050919050565b610aef81610ad1565b8114610af9575f5ffd5b50565b5f81519050610b0a81610ae6565b92915050565b5f819050919050565b610b2281610b10565b8114610b2c575f5ffd5b50565b5f81519050610b3d81610b19565b92915050565b5f81519050610b518161079b565b92915050565b5f5f5f5f5f60a08688031215610b7057610b6f6106b9565b5b5f610b7d88828901610afc565b9550506020610b8e88828901610b2f565b9450506040610b9f88828901610b43565b9350506060610bb088828901610b43565b9250506080610bc188828901610afc565b9150509295509295909350565b5f610bd882610b10565b9150610be383610b10565b9250828202610bf181610b10565b91507f800000000000000000000000000000000000000000000000000000000000000084145f84121615610c2857610c276109d3565b5b8282058414831517610c3d57610c3c6109d3565b5b509291505056fea2646970667358221220c72dc585efa0a52e903c476371d3e6a2e9b77081d6719685cec7431b40f03d5e64736f6c634300081e0033",
					"opcodes": "PUSH1 0x80 PUSH1 0x40 MSTORE CALLVALUE DUP1 ISZERO PUSH1 0xE JUMPI PUSH0 PUSH0 REVERT JUMPDEST POP CALLER PUSH1 0x2 PUSH0 PUSH2 0x100 EXP DUP2 SLOAD DUP2 PUSH20 0xFFFFFFFFFFFFFFFFFFFFFFFFFFFFFFFFFFFFFFFF MUL NOT AND SWAP1 DUP4 PUSH20 0xFFFFFFFFFFFFFFFFFFFFFFFFFFFFFFFFFFFFFFFF AND MUL OR SWAP1 SSTORE POP PUSH2 0xC7A DUP1 PUSH2 0x5C PUSH0 CODECOPY PUSH0 RETURN INVALID PUSH1 0x80 PUSH1 0x40 MSTORE PUSH1 0x4 CALLDATASIZE LT PUSH2 0x54 JUMPI PUSH0 CALLDATALOAD PUSH1 0xE0 SHR DUP1 PUSH4 0x3CCFD60B EQ PUSH2 0x58 JUMPI DUP1 PUSH4 0x3E47D6F3 EQ PUSH2 0x6E JUMPI DUP1 PUSH4 0x6B69A592 EQ PUSH2 0xAA JUMPI DUP1 PUSH4 0x8DA5CB5B EQ PUSH2 0xD4 JUMPI DUP1 PUSH4 0xB60D4288 EQ PUSH2 0xFE JUMPI DUP1 PUSH4 0xDC0D3DFF EQ PUSH2 0x108 JUMPI JUMPDEST PUSH0 PUSH0 REVERT JUMPDEST CALLVALUE DUP1 ISZERO PUSH2 0x63 JUMPI PUSH0 PUSH0 REVERT JUMPDEST POP PUSH2 0x6C PUSH2 0x144 JUMP JUMPDEST STOP JUMPDEST CALLVALUE DUP1 ISZERO PUSH2 0x79 JUMPI PUSH0 PUSH0 REVERT JUMPDEST POP PUSH2 0x94 PUSH1 0x4 DUP1 CALLDATASIZE SUB DUP2 ADD SWAP1 PUSH2 0x8F SWAP2 SWAP1 PUSH2 0x717 JUMP JUMPDEST PUSH2 0x37C JUMP JUMPDEST PUSH1 0x40 MLOAD PUSH2 0xA1 SWAP2 SWAP1 PUSH2 0x75A JUMP JUMPDEST PUSH1 0x40 MLOAD DUP1 SWAP2 SUB SWAP1 RETURN JUMPDEST CALLVALUE DUP1 ISZERO PUSH2 0xB5 JUMPI PUSH0 PUSH0 REVERT JUMPDEST POP PUSH2 0xBE PUSH2 0x391 JUMP JUMPDEST PUSH1 0x40 MLOAD PUSH2 0xCB SWAP2 SWAP1 PUSH2 0x75A JUMP JUMPDEST PUSH1 0x40 MLOAD DUP1 SWAP2 SUB SWAP1 RETURN JUMPDEST CALLVALUE DUP1 ISZERO PUSH2 0xDF JUMPI PUSH0 PUSH0 REVERT JUMPDEST POP PUSH2 0xE8 PUSH2 0x39D JUMP JUMPDEST PUSH1 0x40 MLOAD PUSH2 0xF5 SWAP2 SWAP1 PUSH2 0x782 JUMP JUMPDEST PUSH1 0x40 MLOAD DUP1 SWAP2 SUB SWAP1 RETURN JUMPDEST PUSH2 0x106 PUSH2 0x3C2 JUMP JUMPDEST STOP JUMPDEST CALLVALUE DUP1 ISZERO PUSH2 0x113 JUMPI PUSH0 PUSH0 REVERT JUMPDEST POP PUSH2 0x12E PUSH1 0x4 DUP1 CALLDATASIZE SUB DUP2 ADD SWAP1 PUSH2 0x129 SWAP2 SWAP1 PUSH2 0x7C5 JUMP JUMPDEST PUSH2 0x500 JUMP JUMPDEST PUSH1 0x40 MLOAD PUSH2 0x13B SWAP2 SWAP1 PUSH2 0x782 JUMP JUMPDEST PUSH1 0x40 MLOAD DUP1 SWAP2 SUB SWAP1 RETURN JUMPDEST PUSH1 0x2 PUSH0 SWAP1 SLOAD SWAP1 PUSH2 0x100 EXP SWAP1 DIV PUSH20 0xFFFFFFFFFFFFFFFFFFFFFFFFFFFFFFFFFFFFFFFF AND PUSH20 0xFFFFFFFFFFFFFFFFFFFFFFFFFFFFFFFFFFFFFFFF AND CALLER PUSH20 0xFFFFFFFFFFFFFFFFFFFFFFFFFFFFFFFFFFFFFFFF AND EQ PUSH2 0x1D3 JUMPI PUSH1 0x40 MLOAD PUSH32 0x8C379A000000000000000000000000000000000000000000000000000000000 DUP2 MSTORE PUSH1 0x4 ADD PUSH2 0x1CA SWAP1 PUSH2 0x84A JUMP JUMPDEST PUSH1 0x40 MLOAD DUP1 SWAP2 SUB SWAP1 REVERT JUMPDEST PUSH0 PUSH0 SWAP1 POP JUMPDEST PUSH0 DUP1 SLOAD SWAP1 POP DUP2 LT ISZERO PUSH2 0x272 JUMPI PUSH0 PUSH0 DUP3 DUP2 SLOAD DUP2 LT PUSH2 0x1F8 JUMPI PUSH2 0x1F7 PUSH2 0x868 JUMP JUMPDEST JUMPDEST SWAP1 PUSH0 MSTORE PUSH1 0x20 PUSH0 KECCAK256 ADD PUSH0 SWAP1 SLOAD SWAP1 PUSH2 0x100 EXP SWAP1 DIV PUSH20 0xFFFFFFFFFFFFFFFFFFFFFFFFFFFFFFFFFFFFFFFF AND SWAP1 POP PUSH0 PUSH1 0x1 PUSH0 DUP4 PUSH20 0xFFFFFFFFFFFFFFFFFFFFFFFFFFFFFFFFFFFFFFFF AND PUSH20 0xFFFFFFFFFFFFFFFFFFFFFFFFFFFFFFFFFFFFFFFF AND DUP2 MSTORE PUSH1 0x20 ADD SWAP1 DUP2 MSTORE PUSH1 0x20 ADD PUSH0 KECCAK256 DUP2 SWAP1 SSTORE POP POP DUP1 DUP1 PUSH1 0x1 ADD SWAP2 POP POP PUSH2 0x1D8 JUMP JUMPDEST POP PUSH0 PUSH8 0xFFFFFFFFFFFFFFFF DUP2 GT ISZERO PUSH2 0x28D JUMPI PUSH2 0x28C PUSH2 0x895 JUMP JUMPDEST JUMPDEST PUSH1 0x40 MLOAD SWAP1 DUP1 DUP3 MSTORE DUP1 PUSH1 0x20 MUL PUSH1 0x20 ADD DUP3 ADD PUSH1 0x40 MSTORE DUP1 ISZERO PUSH2 0x2BB JUMPI DUP2 PUSH1 0x20 ADD PUSH1 0x20 DUP3 MUL DUP1 CALLDATASIZE DUP4 CALLDATACOPY DUP1 DUP3 ADD SWAP2 POP POP SWAP1 POP JUMPDEST POP PUSH0 SWAP1 DUP1 MLOAD SWAP1 PUSH1 0x20 ADD SWAP1 PUSH2 0x2D0 SWAP3 SWAP2 SWAP1 PUSH2 0x617 JUMP JUMPDEST POP PUSH0 CALLER PUSH20 0xFFFFFFFFFFFFFFFFFFFFFFFFFFFFFFFFFFFFFFFF AND SELFBALANCE PUSH1 0x40 MLOAD PUSH2 0x2F6 SWAP1 PUSH2 0x8EF JUMP JUMPDEST PUSH0 PUSH1 0x40 MLOAD DUP1 DUP4 SUB DUP2 DUP6 DUP8 GAS CALL SWAP3 POP POP POP RETURNDATASIZE DUP1 PUSH0 DUP2 EQ PUSH2 0x330 JUMPI PUSH1 0x40 MLOAD SWAP2 POP PUSH1 0x1F NOT PUSH1 0x3F RETURNDATASIZE ADD AND DUP3 ADD PUSH1 0x40 MSTORE RETURNDATASIZE DUP3 MSTORE RETURNDATASIZE PUSH0 PUSH1 0x20 DUP5 ADD RETURNDATACOPY PUSH2 0x335 JUMP JUMPDEST PUSH1 0x60 SWAP2 POP JUMPDEST POP POP SWAP1 POP DUP1 PUSH2 0x379 JUMPI PUSH1 0x40 MLOAD PUSH32 0x8C379A000000000000000000000000000000000000000000000000000000000 DUP2 MSTORE PUSH1 0x4 ADD PUSH2 0x370 SWAP1 PUSH2 0x94D JUMP JUMPDEST PUSH1 0x40 MLOAD DUP1 SWAP2 SUB SWAP1 REVERT JUMPDEST POP JUMP JUMPDEST PUSH1 0x1 PUSH1 0x20 MSTORE DUP1 PUSH0 MSTORE PUSH1 0x40 PUSH0 KECCAK256 PUSH0 SWAP2 POP SWAP1 POP SLOAD DUP2 JUMP JUMPDEST PUSH8 0x4563918244F40000 DUP2 JUMP JUMPDEST PUSH1 0x2 PUSH0 SWAP1 SLOAD SWAP1 PUSH2 0x100 EXP SWAP1 DIV PUSH20 0xFFFFFFFFFFFFFFFFFFFFFFFFFFFFFFFFFFFFFFFF AND DUP2 JUMP JUMPDEST PUSH8 0x4563918244F40000 PUSH2 0x3D4 CALLVALUE PUSH2 0x53A JUMP JUMPDEST LT ISZERO PUSH2 0x415 JUMPI PUSH1 0x40 MLOAD PUSH32 0x8C379A000000000000000000000000000000000000000000000000000000000 DUP2 MSTORE PUSH1 0x4 ADD PUSH2 0x40C SWAP1 PUSH2 0x9B5 JUMP JUMPDEST PUSH1 0x40 MLOAD DUP1 SWAP2 SUB SWAP1 REVERT JUMPDEST PUSH0 CALLER SWAP1 DUP1 PUSH1 0x1 DUP2 SLOAD ADD DUP1 DUP3 SSTORE DUP1 SWAP2 POP POP PUSH1 0x1 SWAP1 SUB SWAP1 PUSH0 MSTORE PUSH1 0x20 PUSH0 KECCAK256 ADD PUSH0 SWAP1 SWAP2 SWAP1 SWAP2 SWAP1 SWAP2 PUSH2 0x100 EXP DUP2 SLOAD DUP2 PUSH20 0xFFFFFFFFFFFFFFFFFFFFFFFFFFFFFFFFFFFFFFFF MUL NOT AND SWAP1 DUP4 PUSH20 0xFFFFFFFFFFFFFFFFFFFFFFFFFFFFFFFFFFFFFFFF AND MUL OR SWAP1 SSTORE POP CALLVALUE PUSH1 0x1 PUSH0 CALLER PUSH20 0xFFFFFFFFFFFFFFFFFFFFFFFFFFFFFFFFFFFFFFFF AND PUSH20 0xFFFFFFFFFFFFFFFFFFFFFFFFFFFFFFFFFFFFFFFF AND DUP2 MSTORE PUSH1 0x20 ADD SWAP1 DUP2 MSTORE PUSH1 0x20 ADD PUSH0 KECCAK256 SLOAD PUSH2 0x4BD SWAP2 SWAP1 PUSH2 0xA00 JUMP JUMPDEST PUSH1 0x1 PUSH0 CALLER PUSH20 0xFFFFFFFFFFFFFFFFFFFFFFFFFFFFFFFFFFFFFFFF AND PUSH20 0xFFFFFFFFFFFFFFFFFFFFFFFFFFFFFFFFFFFFFFFF AND DUP2 MSTORE PUSH1 0x20 ADD SWAP1 DUP2 MSTORE PUSH1 0x20 ADD PUSH0 KECCAK256 DUP2 SWAP1 SSTORE POP JUMP JUMPDEST PUSH0 DUP2 DUP2 SLOAD DUP2 LT PUSH2 0x50E JUMPI PUSH0 DUP1 REVERT JUMPDEST SWAP1 PUSH0 MSTORE PUSH1 0x20 PUSH0 KECCAK256 ADD PUSH0 SWAP2 POP SLOAD SWAP1 PUSH2 0x100 EXP SWAP1 DIV PUSH20 0xFFFFFFFFFFFFFFFFFFFFFFFFFFFFFFFFFFFFFFFF AND DUP2 JUMP JUMPDEST PUSH0 PUSH0 PUSH2 0x544 PUSH2 0x572 JUMP JUMPDEST SWAP1 POP PUSH0 PUSH8 0xDE0B6B3A7640000 DUP5 DUP4 PUSH2 0x55C SWAP2 SWAP1 PUSH2 0xA33 JUMP JUMPDEST PUSH2 0x566 SWAP2 SWAP1 PUSH2 0xAA1 JUMP JUMPDEST SWAP1 POP DUP1 SWAP3 POP POP POP SWAP2 SWAP1 POP JUMP JUMPDEST PUSH0 PUSH0 PUSH20 0x694AA1769357215DE4FAC081BF1F309ADC325306 SWAP1 POP PUSH0 DUP2 PUSH20 0xFFFFFFFFFFFFFFFFFFFFFFFFFFFFFFFFFFFFFFFF AND PUSH4 0xFEAF968C PUSH1 0x40 MLOAD DUP2 PUSH4 0xFFFFFFFF AND PUSH1 0xE0 SHL DUP2 MSTORE PUSH1 0x4 ADD PUSH1 0xA0 PUSH1 0x40 MLOAD DUP1 DUP4 SUB DUP2 DUP7 GAS STATICCALL ISZERO DUP1 ISZERO PUSH2 0x5D5 JUMPI RETURNDATASIZE PUSH0 PUSH0 RETURNDATACOPY RETURNDATASIZE PUSH0 REVERT JUMPDEST POP POP POP POP PUSH1 0x40 MLOAD RETURNDATASIZE PUSH1 0x1F NOT PUSH1 0x1F DUP3 ADD AND DUP3 ADD DUP1 PUSH1 0x40 MSTORE POP DUP2 ADD SWAP1 PUSH2 0x5F9 SWAP2 SWAP1 PUSH2 0xB57 JUMP JUMPDEST POP POP POP SWAP2 POP POP PUSH5 0x2540BE400 DUP2 PUSH2 0x610 SWAP2 SWAP1 PUSH2 0xBCE JUMP JUMPDEST SWAP3 POP POP POP SWAP1 JUMP JUMPDEST DUP3 DUP1 SLOAD DUP3 DUP3 SSTORE SWAP1 PUSH0 MSTORE PUSH1 0x20 PUSH0 KECCAK256 SWAP1 DUP2 ADD SWAP3 DUP3 ISZERO PUSH2 0x68D JUMPI SWAP2 PUSH1 0x20 MUL DUP3 ADD JUMPDEST DUP3 DUP2 GT ISZERO PUSH2 0x68C JUMPI DUP3 MLOAD DUP3 PUSH0 PUSH2 0x100 EXP DUP2 SLOAD DUP2 PUSH20 0xFFFFFFFFFFFFFFFFFFFFFFFFFFFFFFFFFFFFFFFF MUL NOT AND SWAP1 DUP4 PUSH20 0xFFFFFFFFFFFFFFFFFFFFFFFFFFFFFFFFFFFFFFFF AND MUL OR SWAP1 SSTORE POP SWAP2 PUSH1 0x20 ADD SWAP2 SWAP1 PUSH1 0x1 ADD SWAP1 PUSH2 0x635 JUMP JUMPDEST JUMPDEST POP SWAP1 POP PUSH2 0x69A SWAP2 SWAP1 PUSH2 0x69E JUMP JUMPDEST POP SWAP1 JUMP JUMPDEST JUMPDEST DUP1 DUP3 GT ISZERO PUSH2 0x6B5 JUMPI PUSH0 DUP2 PUSH0 SWAP1 SSTORE POP PUSH1 0x1 ADD PUSH2 0x69F JUMP JUMPDEST POP SWAP1 JUMP JUMPDEST PUSH0 PUSH0 REVERT JUMPDEST PUSH0 PUSH20 0xFFFFFFFFFFFFFFFFFFFFFFFFFFFFFFFFFFFFFFFF DUP3 AND SWAP1 POP SWAP2 SWAP1 POP JUMP JUMPDEST PUSH0 PUSH2 0x6E6 DUP3 PUSH2 0x6BD JUMP JUMPDEST SWAP1 POP SWAP2 SWAP1 POP JUMP JUMPDEST PUSH2 0x6F6 DUP2 PUSH2 0x6DC JUMP JUMPDEST DUP2 EQ PUSH2 0x700 JUMPI PUSH0 PUSH0 REVERT JUMPDEST POP JUMP JUMPDEST PUSH0 DUP2 CALLDATALOAD SWAP1 POP PUSH2 0x711 DUP2 PUSH2 0x6ED JUMP JUMPDEST SWAP3 SWAP2 POP POP JUMP JUMPDEST PUSH0 PUSH1 0x20 DUP3 DUP5 SUB SLT ISZERO PUSH2 0x72C JUMPI PUSH2 0x72B PUSH2 0x6B9 JUMP JUMPDEST JUMPDEST PUSH0 PUSH2 0x739 DUP5 DUP3 DUP6 ADD PUSH2 0x703 JUMP JUMPDEST SWAP2 POP POP SWAP3 SWAP2 POP POP JUMP JUMPDEST PUSH0 DUP2 SWAP1 POP SWAP2 SWAP1 POP JUMP JUMPDEST PUSH2 0x754 DUP2 PUSH2 0x742 JUMP JUMPDEST DUP3 MSTORE POP POP JUMP JUMPDEST PUSH0 PUSH1 0x20 DUP3 ADD SWAP1 POP PUSH2 0x76D PUSH0 DUP4 ADD DUP5 PUSH2 0x74B JUMP JUMPDEST SWAP3 SWAP2 POP POP JUMP JUMPDEST PUSH2 0x77C DUP2 PUSH2 0x6DC JUMP JUMPDEST DUP3 MSTORE POP POP JUMP JUMPDEST PUSH0 PUSH1 0x20 DUP3 ADD SWAP1 POP PUSH2 0x795 PUSH0 DUP4 ADD DUP5 PUSH2 0x773 JUMP JUMPDEST SWAP3 SWAP2 POP POP JUMP JUMPDEST PUSH2 0x7A4 DUP2 PUSH2 0x742 JUMP JUMPDEST DUP2 EQ PUSH2 0x7AE JUMPI PUSH0 PUSH0 REVERT JUMPDEST POP JUMP JUMPDEST PUSH0 DUP2 CALLDATALOAD SWAP1 POP PUSH2 0x7BF DUP2 PUSH2 0x79B JUMP JUMPDEST SWAP3 SWAP2 POP POP JUMP JUMPDEST PUSH0 PUSH1 0x20 DUP3 DUP5 SUB SLT ISZERO PUSH2 0x7DA JUMPI PUSH2 0x7D9 PUSH2 0x6B9 JUMP JUMPDEST JUMPDEST PUSH0 PUSH2 0x7E7 DUP5 DUP3 DUP6 ADD PUSH2 0x7B1 JUMP JUMPDEST SWAP2 POP POP SWAP3 SWAP2 POP POP JUMP JUMPDEST PUSH0 DUP3 DUP3 MSTORE PUSH1 0x20 DUP3 ADD SWAP1 POP SWAP3 SWAP2 POP POP JUMP JUMPDEST PUSH32 0x53656E64206973206E6F7420746865206F776E65720000000000000000000000 PUSH0 DUP3 ADD MSTORE POP JUMP JUMPDEST PUSH0 PUSH2 0x834 PUSH1 0x15 DUP4 PUSH2 0x7F0 JUMP JUMPDEST SWAP2 POP PUSH2 0x83F DUP3 PUSH2 0x800 JUMP JUMPDEST PUSH1 0x20 DUP3 ADD SWAP1 POP SWAP2 SWAP1 POP JUMP JUMPDEST PUSH0 PUSH1 0x20 DUP3 ADD SWAP1 POP DUP2 DUP2 SUB PUSH0 DUP4 ADD MSTORE PUSH2 0x861 DUP2 PUSH2 0x828 JUMP JUMPDEST SWAP1 POP SWAP2 SWAP1 POP JUMP JUMPDEST PUSH32 0x4E487B7100000000000000000000000000000000000000000000000000000000 PUSH0 MSTORE PUSH1 0x32 PUSH1 0x4 MSTORE PUSH1 0x24 PUSH0 REVERT JUMPDEST PUSH32 0x4E487B7100000000000000000000000000000000000000000000000000000000 PUSH0 MSTORE PUSH1 0x41 PUSH1 0x4 MSTORE PUSH1 0x24 PUSH0 REVERT JUMPDEST PUSH0 DUP2 SWAP1 POP SWAP3 SWAP2 POP POP JUMP JUMPDEST POP JUMP JUMPDEST PUSH0 PUSH2 0x8DA PUSH0 DUP4 PUSH2 0x8C2 JUMP JUMPDEST SWAP2 POP PUSH2 0x8E5 DUP3 PUSH2 0x8CC JUMP JUMPDEST PUSH0 DUP3 ADD SWAP1 POP SWAP2 SWAP1 POP JUMP JUMPDEST PUSH0 PUSH2 0x8F9 DUP3 PUSH2 0x8CF JUMP JUMPDEST SWAP2 POP DUP2 SWAP1 POP SWAP2 SWAP1 POP JUMP JUMPDEST PUSH32 0x43616C6C206661696C6564000000000000000000000000000000000000000000 PUSH0 DUP3 ADD MSTORE POP JUMP JUMPDEST PUSH0 PUSH2 0x937 PUSH1 0xB DUP4 PUSH2 0x7F0 JUMP JUMPDEST SWAP2 POP PUSH2 0x942 DUP3 PUSH2 0x903 JUMP JUMPDEST PUSH1 0x20 DUP3 ADD SWAP1 POP SWAP2 SWAP1 POP JUMP JUMPDEST PUSH0 PUSH1 0x20 DUP3 ADD SWAP1 POP DUP2 DUP2 SUB PUSH0 DUP4 ADD MSTORE PUSH2 0x964 DUP2 PUSH2 0x92B JUMP JUMPDEST SWAP1 POP SWAP2 SWAP1 POP JUMP JUMPDEST PUSH32 0x6E6F7420656E676F756768204554480000000000000000000000000000000000 PUSH0 DUP3 ADD MSTORE POP JUMP JUMPDEST PUSH0 PUSH2 0x99F PUSH1 0xF DUP4 PUSH2 0x7F0 JUMP JUMPDEST SWAP2 POP PUSH2 0x9AA DUP3 PUSH2 0x96B JUMP JUMPDEST PUSH1 0x20 DUP3 ADD SWAP1 POP SWAP2 SWAP1 POP JUMP JUMPDEST PUSH0 PUSH1 0x20 DUP3 ADD SWAP1 POP DUP2 DUP2 SUB PUSH0 DUP4 ADD MSTORE PUSH2 0x9CC DUP2 PUSH2 0x993 JUMP JUMPDEST SWAP1 POP SWAP2 SWAP1 POP JUMP JUMPDEST PUSH32 0x4E487B7100000000000000000000000000000000000000000000000000000000 PUSH0 MSTORE PUSH1 0x11 PUSH1 0x4 MSTORE PUSH1 0x24 PUSH0 REVERT JUMPDEST PUSH0 PUSH2 0xA0A DUP3 PUSH2 0x742 JUMP JUMPDEST SWAP2 POP PUSH2 0xA15 DUP4 PUSH2 0x742 JUMP JUMPDEST SWAP3 POP DUP3 DUP3 ADD SWAP1 POP DUP1 DUP3 GT ISZERO PUSH2 0xA2D JUMPI PUSH2 0xA2C PUSH2 0x9D3 JUMP JUMPDEST JUMPDEST SWAP3 SWAP2 POP POP JUMP JUMPDEST PUSH0 PUSH2 0xA3D DUP3 PUSH2 0x742 JUMP JUMPDEST SWAP2 POP PUSH2 0xA48 DUP4 PUSH2 0x742 JUMP JUMPDEST SWAP3 POP DUP3 DUP3 MUL PUSH2 0xA56 DUP2 PUSH2 0x742 JUMP JUMPDEST SWAP2 POP DUP3 DUP3 DIV DUP5 EQ DUP4 ISZERO OR PUSH2 0xA6D JUMPI PUSH2 0xA6C PUSH2 0x9D3 JUMP JUMPDEST JUMPDEST POP SWAP3 SWAP2 POP POP JUMP JUMPDEST PUSH32 0x4E487B7100000000000000000000000000000000000000000000000000000000 PUSH0 MSTORE PUSH1 0x12 PUSH1 0x4 MSTORE PUSH1 0x24 PUSH0 REVERT JUMPDEST PUSH0 PUSH2 0xAAB DUP3 PUSH2 0x742 JUMP JUMPDEST SWAP2 POP PUSH2 0xAB6 DUP4 PUSH2 0x742 JUMP JUMPDEST SWAP3 POP DUP3 PUSH2 0xAC6 JUMPI PUSH2 0xAC5 PUSH2 0xA74 JUMP JUMPDEST JUMPDEST DUP3 DUP3 DIV SWAP1 POP SWAP3 SWAP2 POP POP JUMP JUMPDEST PUSH0 PUSH10 0xFFFFFFFFFFFFFFFFFFFF DUP3 AND SWAP1 POP SWAP2 SWAP1 POP JUMP JUMPDEST PUSH2 0xAEF DUP2 PUSH2 0xAD1 JUMP JUMPDEST DUP2 EQ PUSH2 0xAF9 JUMPI PUSH0 PUSH0 REVERT JUMPDEST POP JUMP JUMPDEST PUSH0 DUP2 MLOAD SWAP1 POP PUSH2 0xB0A DUP2 PUSH2 0xAE6 JUMP JUMPDEST SWAP3 SWAP2 POP POP JUMP JUMPDEST PUSH0 DUP2 SWAP1 POP SWAP2 SWAP1 POP JUMP JUMPDEST PUSH2 0xB22 DUP2 PUSH2 0xB10 JUMP JUMPDEST DUP2 EQ PUSH2 0xB2C JUMPI PUSH0 PUSH0 REVERT JUMPDEST POP JUMP JUMPDEST PUSH0 DUP2 MLOAD SWAP1 POP PUSH2 0xB3D DUP2 PUSH2 0xB19 JUMP JUMPDEST SWAP3 SWAP2 POP POP JUMP JUMPDEST PUSH0 DUP2 MLOAD SWAP1 POP PUSH2 0xB51 DUP2 PUSH2 0x79B JUMP JUMPDEST SWAP3 SWAP2 POP POP JUMP JUMPDEST PUSH0 PUSH0 PUSH0 PUSH0 PUSH0 PUSH1 0xA0 DUP7 DUP9 SUB SLT ISZERO PUSH2 0xB70 JUMPI PUSH2 0xB6F PUSH2 0x6B9 JUMP JUMPDEST JUMPDEST PUSH0 PUSH2 0xB7D DUP9 DUP3 DUP10 ADD PUSH2 0xAFC JUMP JUMPDEST SWAP6 POP POP PUSH1 0x20 PUSH2 0xB8E DUP9 DUP3 DUP10 ADD PUSH2 0xB2F JUMP JUMPDEST SWAP5 POP POP PUSH1 0x40 PUSH2 0xB9F DUP9 DUP3 DUP10 ADD PUSH2 0xB43 JUMP JUMPDEST SWAP4 POP POP PUSH1 0x60 PUSH2 0xBB0 DUP9 DUP3 DUP10 ADD PUSH2 0xB43 JUMP JUMPDEST SWAP3 POP POP PUSH1 0x80 PUSH2 0xBC1 DUP9 DUP3 DUP10 ADD PUSH2 0xAFC JUMP JUMPDEST SWAP2 POP POP SWAP3 SWAP6 POP SWAP3 SWAP6 SWAP1 SWAP4 POP JUMP JUMPDEST PUSH0 PUSH2 0xBD8 DUP3 PUSH2 0xB10 JUMP JUMPDEST SWAP2 POP PUSH2 0xBE3 DUP4 PUSH2 0xB10 JUMP JUMPDEST SWAP3 POP DUP3 DUP3 MUL PUSH2 0xBF1 DUP2 PUSH2 0xB10 JUMP JUMPDEST SWAP2 POP PUSH32 0x8000000000000000000000000000000000000000000000000000000000000000 DUP5 EQ PUSH0 DUP5 SLT AND ISZERO PUSH2 0xC28 JUMPI PUSH2 0xC27 PUSH2 0x9D3 JUMP JUMPDEST JUMPDEST DUP3 DUP3 SDIV DUP5 EQ DUP4 ISZERO OR PUSH2 0xC3D JUMPI PUSH2 0xC3C PUSH2 0x9D3 JUMP JUMPDEST JUMPDEST POP SWAP3 SWAP2 POP POP JUMP INVALID LOG2 PUSH5 0x6970667358 0x22 SLT KECCAK256 0xC7 0x2D 0xC5 DUP6 0xEF LOG0 0xA5 0x2E SWAP1 EXTCODECOPY SELFBALANCE PUSH4 0x71D3E6A2 0xE9 0xB7 PUSH17 0x81D6719685CEC7431B40F03D5E64736F6C PUSH4 0x4300081E STOP CALLER "
				},
				"gasEstimates": {
					"creation": {
						"codeDepositCost": "638800",
						"executionCost": "24933",
						"totalCost": "663733"
					},
					"external": {
						"MINIMUM_USD()": "347",
						"addressToAmountFunded(address)": "2802",
						"fund()": "infinite",
						"funders(uint256)": "5031",
						"owner()": "2552",
						"withdraw()": "infinite"
					}
				},
				"methodIdentifiers": {
					"MINIMUM_USD()": "6b69a592",
					"addressToAmountFunded(address)": "3e47d6f3",
					"fund()": "b60d4288",
					"funders(uint256)": "dc0d3dff",
					"owner()": "8da5cb5b",
					"withdraw()": "3ccfd60b"
				}
			},
			"storageLayout": {
				"storage": [
					{
						"astId": 58,
						"contract": "contracts/Fundme.sol:FundMe",
						"label": "funders",
						"offset": 0,
						"slot": "0",
						"type": "t_array(t_address)dyn_storage"
					},
					{
						"astId": 62,
						"contract": "contracts/Fundme.sol:FundMe",
						"label": "addressToAmountFunded",
						"offset": 0,
						"slot": "1",
						"type": "t_mapping(t_address,t_uint256)"
					},
					{
						"astId": 64,
						"contract": "contracts/Fundme.sol:FundMe",
						"label": "owner",
						"offset": 0,
						"slot": "2",
						"type": "t_address"
					}
				],
				"types": {
					"t_address": {
						"encoding": "inplace",
						"label": "address",
						"numberOfBytes": "20"
					},
					"t_array(t_address)dyn_storage": {
						"base": "t_address",
						"encoding": "dynamic_array",
						"label": "address[]",
						"numberOfBytes": "32"
					},
					"t_mapping(t_address,t_uint256)": {
						"encoding": "mapping",
						"key": "t_address",
						"label": "mapping(address => uint256)",
						"numberOfBytes": "32",
						"value": "t_uint256"
					},
					"t_uint256": {
						"encoding": "inplace",
						"label": "uint256",
						"numberOfBytes": "32"
					}
				}
			},
			"userdoc": {
				"kind": "user",
				"methods": {},
				"version": 1
			}
		}
	}
}