{
	"contracts/Fundme.sol": {
		"FundMe": {
			"abi": [
				{
					"inputs": [],
					"stateMutability": "nonpayable",
					"type": "constructor"
				},
				{
					"inputs": [],
					"name": "CallFailed",
					"type": "error"
				},
				{
					"inputs": [],
					"name": "NotOwner",
					"type": "error"
				},
				{
					"stateMutability": "payable",
					"type": "fallback"
				},
				{
					"inputs": [],
					"name": "MINIMUM_USD",
					"outputs": [
						{
							"internalType": "uint256",
							"name": "",
							"type": "uint256"
						}
					],
					"stateMutability": "view",
					"type": "function"
				},
				{
					"inputs": [
						{
							"internalType": "address",
							"name": "funder",
							"type": "address"
						}
					],
					"name": "addressToAmountFunded",
					"outputs": [
						{
							"internalType": "uint256",
							"name": "amountFunded",
							"type": "uint256"
						}
					],
					"stateMutability": "view",
					"type": "function"
				},
				{
					"inputs": [],
					"name": "fund",
					"outputs": [],
					"stateMutability": "payable",
					"type": "function"
				},
				{
					"inputs": [
						{
							"internalType": "uint256",
							"name": "",
							"type": "uint256"
						}
					],
					"name": "funders",
					"outputs": [
						{
							"internalType": "address",
							"name": "",
							"type": "address"
						}
					],
					"stateMutability": "view",
					"type": "function"
				},
				{
					"inputs": [],
					"name": "getVerson",
					"outputs": [
						{
							"internalType": "uint256",
							"name": "",
							"type": "uint256"
						}
					],
					"stateMutability": "view",
					"type": "function"
				},
				{
					"inputs": [],
					"name": "i_owner",
					"outputs": [
						{
							"internalType": "address",
							"name": "",
							"type": "address"
						}
					],
					"stateMutability": "view",
					"type": "function"
				},
				{
					"inputs": [],
					"name": "withdraw",
					"outputs": [],
					"stateMutability": "nonpayable",
					"type": "function"
				},
				{
					"stateMutability": "payable",
					"type": "receive"
				}
			],
			"devdoc": {
				"kind": "dev",
				"methods": {},
				"version": 1
			},
			"evm": {
				"assembly": "    /* \"contracts/Fundme.sol\":1380:5995  contract FundMe {... */\n  mstore(0x40, 0xa0)\n    /* \"contracts/Fundme.sol\":1779:1831  constructor(){... */\n  callvalue\n  dup1\n  iszero\n  tag_1\n  jumpi\n  revert(0x00, 0x00)\ntag_1:\n  pop\n    /* \"contracts/Fundme.sol\":1813:1823  msg.sender */\n  caller\n    /* \"contracts/Fundme.sol\":1803:1823  i_owner = msg.sender */\n  0xffffffffffffffffffffffffffffffffffffffff\n  and\n  0x80\n  dup2\n  0xffffffffffffffffffffffffffffffffffffffff\n  and\n  dup2\n  mstore\n  pop\n  pop\n    /* \"contracts/Fundme.sol\":1380:5995  contract FundMe {... */\n  mload(0x80)\n  codecopy(0x00, dataOffset(sub_0), dataSize(sub_0))\n  0x00\n  assignImmutable(\"0xf65e3ff0de05ca77aa8c820bd528facc139ee4b0986f7c350f3198928bd2c72b\")\n  return(0x00, dataSize(sub_0))\nstop\n\nsub_0: assembly {\n        /* \"contracts/Fundme.sol\":1380:5995  contract FundMe {... */\n      mstore(0x40, 0x80)\n      jumpi(tag_1, lt(calldatasize, 0x04))\n      shr(0xe0, calldataload(0x00))\n      dup1\n      0x6b69a592\n      gt\n      tag_10\n      jumpi\n      dup1\n      0x6b69a592\n      eq\n      tag_6\n      jumpi\n      dup1\n      0xb60d4288\n      eq\n      tag_7\n      jumpi\n      dup1\n      0xdba6335f\n      eq\n      tag_8\n      jumpi\n      dup1\n      0xdc0d3dff\n      eq\n      tag_9\n      jumpi\n      jump(tag_2)\n    tag_10:\n      dup1\n      0x3ccfd60b\n      eq\n      tag_3\n      jumpi\n      dup1\n      0x3e47d6f3\n      eq\n      tag_4\n      jumpi\n      dup1\n      0x6141c5a7\n      eq\n      tag_5\n      jumpi\n      jump(tag_2)\n    tag_1:\n      jumpi(tag_2, calldatasize)\n        /* \"contracts/Fundme.sol\":5936:5942  fund() */\n      tag_13\n        /* \"contracts/Fundme.sol\":5936:5940  fund */\n      tag_14\n        /* \"contracts/Fundme.sol\":5936:5942  fund() */\n      jump\t// in\n    tag_13:\n        /* \"contracts/Fundme.sol\":1380:5995  contract FundMe {... */\n      stop\n    tag_2:\n        /* \"contracts/Fundme.sol\":5983:5989  fund() */\n      tag_17\n        /* \"contracts/Fundme.sol\":5983:5987  fund */\n      tag_14\n        /* \"contracts/Fundme.sol\":5983:5989  fund() */\n      jump\t// in\n    tag_17:\n        /* \"contracts/Fundme.sol\":1380:5995  contract FundMe {... */\n      stop\n        /* \"contracts/Fundme.sol\":3558:5287  function withdraw() onlyOwner public {... */\n    tag_3:\n      callvalue\n      dup1\n      iszero\n      tag_18\n      jumpi\n      revert(0x00, 0x00)\n    tag_18:\n      pop\n      tag_19\n      tag_20\n      jump\t// in\n    tag_19:\n      stop\n        /* \"contracts/Fundme.sol\":1603:1679  mapping(address funder => uint256 amountFunded) public addressToAmountFunded */\n    tag_4:\n      callvalue\n      dup1\n      iszero\n      tag_21\n      jumpi\n      revert(0x00, 0x00)\n    tag_21:\n      pop\n      tag_22\n      0x04\n      dup1\n      calldatasize\n      sub\n      dup2\n      add\n      swap1\n      tag_23\n      swap2\n      swap1\n      tag_24\n      jump\t// in\n    tag_23:\n      tag_25\n      jump\t// in\n    tag_22:\n      mload(0x40)\n      tag_26\n      swap2\n      swap1\n      tag_27\n      jump\t// in\n    tag_26:\n      mload(0x40)\n      dup1\n      swap2\n      sub\n      swap1\n      return\n        /* \"contracts/Fundme.sol\":3380:3550  function getVerson() public view returns (uint256) {... */\n    tag_5:\n      callvalue\n      dup1\n      iszero\n      tag_28\n      jumpi\n      revert(0x00, 0x00)\n    tag_28:\n      pop\n      tag_29\n      tag_30\n      jump\t// in\n    tag_29:\n      mload(0x40)\n      tag_31\n      swap2\n      swap1\n      tag_27\n      jump\t// in\n    tag_31:\n      mload(0x40)\n      dup1\n      swap2\n      sub\n      swap1\n      return\n        /* \"contracts/Fundme.sol\":1444:1486  uint256 public constant MINIMUM_USD = 5e18 */\n    tag_6:\n      callvalue\n      dup1\n      iszero\n      tag_32\n      jumpi\n      revert(0x00, 0x00)\n    tag_32:\n      pop\n      tag_33\n      tag_34\n      jump\t// in\n    tag_33:\n      mload(0x40)\n      tag_35\n      swap2\n      swap1\n      tag_27\n      jump\t// in\n    tag_35:\n      mload(0x40)\n      dup1\n      swap2\n      sub\n      swap1\n      return\n        /* \"contracts/Fundme.sol\":1839:2457  function fund() public payable {... */\n    tag_7:\n      tag_36\n      tag_14\n      jump\t// in\n    tag_36:\n      stop\n        /* \"contracts/Fundme.sol\":1688:1720  address public immutable i_owner */\n    tag_8:\n      callvalue\n      dup1\n      iszero\n      tag_37\n      jumpi\n      revert(0x00, 0x00)\n    tag_37:\n      pop\n      tag_38\n      tag_39\n      jump\t// in\n    tag_38:\n      mload(0x40)\n      tag_40\n      swap2\n      swap1\n      tag_41\n      jump\t// in\n    tag_40:\n      mload(0x40)\n      dup1\n      swap2\n      sub\n      swap1\n      return\n        /* \"contracts/Fundme.sol\":1572:1596  address[] public funders */\n    tag_9:\n      callvalue\n      dup1\n      iszero\n      tag_42\n      jumpi\n      revert(0x00, 0x00)\n    tag_42:\n      pop\n      tag_43\n      0x04\n      dup1\n      calldatasize\n      sub\n      dup2\n      add\n      swap1\n      tag_44\n      swap2\n      swap1\n      tag_45\n      jump\t// in\n    tag_44:\n      tag_46\n      jump\t// in\n    tag_43:\n      mload(0x40)\n      tag_47\n      swap2\n      swap1\n      tag_41\n      jump\t// in\n    tag_47:\n      mload(0x40)\n      dup1\n      swap2\n      sub\n      swap1\n      return\n        /* \"contracts/Fundme.sol\":1839:2457  function fund() public payable {... */\n    tag_14:\n        /* \"contracts/Fundme.sol\":1482:1486  5e18 */\n      0x4563918244f40000\n        /* \"contracts/Fundme.sol\":2055:2084  msg.value.getConversionRate() */\n      tag_49\n        /* \"contracts/Fundme.sol\":2055:2064  msg.value */\n      callvalue\n        /* \"contracts/Fundme.sol\":2055:2082  msg.value.getConversionRate */\n      tag_50\n        /* \"contracts/Fundme.sol\":2055:2084  msg.value.getConversionRate() */\n      jump\t// in\n    tag_49:\n        /* \"contracts/Fundme.sol\":2055:2099  msg.value.getConversionRate() >= MINIMUM_USD */\n      lt\n      iszero\n        /* \"contracts/Fundme.sol\":2047:2119  require(msg.value.getConversionRate() >= MINIMUM_USD, \"not engough ETH\") */\n      tag_51\n      jumpi\n      mload(0x40)\n      0x08c379a000000000000000000000000000000000000000000000000000000000\n      dup2\n      mstore\n      0x04\n      add\n      tag_52\n      swap1\n      tag_53\n      jump\t// in\n    tag_52:\n      mload(0x40)\n      dup1\n      swap2\n      sub\n      swap1\n      revert\n    tag_51:\n        /* \"contracts/Fundme.sol\":2130:2137  funders */\n      0x00\n        /* \"contracts/Fundme.sol\":2143:2153  msg.sender */\n      caller\n        /* \"contracts/Fundme.sol\":2130:2154  funders.push(msg.sender) */\n      swap1\n      dup1\n      0x01\n      dup2\n      sload\n      add\n      dup1\n      dup3\n      sstore\n      dup1\n      swap2\n      pop\n      pop\n      0x01\n      swap1\n      sub\n      swap1\n      0x00\n      mstore\n      keccak256(0x00, 0x20)\n      add\n      0x00\n      swap1\n      swap2\n      swap1\n      swap2\n      swap1\n      swap2\n      0x0100\n      exp\n      dup2\n      sload\n      dup2\n      0xffffffffffffffffffffffffffffffffffffffff\n      mul\n      not\n      and\n      swap1\n      dup4\n      0xffffffffffffffffffffffffffffffffffffffff\n      and\n      mul\n      or\n      swap1\n      sstore\n      pop\n        /* \"contracts/Fundme.sol\":2357:2366  msg.value */\n      callvalue\n        /* \"contracts/Fundme.sol\":2321:2342  addressToAmountFunded */\n      0x01\n        /* \"contracts/Fundme.sol\":2321:2354  addressToAmountFunded[msg.sender] */\n      0x00\n        /* \"contracts/Fundme.sol\":2343:2353  msg.sender */\n      caller\n        /* \"contracts/Fundme.sol\":2321:2354  addressToAmountFunded[msg.sender] */\n      0xffffffffffffffffffffffffffffffffffffffff\n      and\n      0xffffffffffffffffffffffffffffffffffffffff\n      and\n      dup2\n      mstore\n      0x20\n      add\n      swap1\n      dup2\n      mstore\n      0x20\n      add\n      0x00\n      keccak256\n      sload\n        /* \"contracts/Fundme.sol\":2321:2366  addressToAmountFunded[msg.sender] + msg.value */\n      tag_55\n      swap2\n      swap1\n      tag_56\n      jump\t// in\n    tag_55:\n        /* \"contracts/Fundme.sol\":2285:2306  addressToAmountFunded */\n      0x01\n        /* \"contracts/Fundme.sol\":2285:2318  addressToAmountFunded[msg.sender] */\n      0x00\n        /* \"contracts/Fundme.sol\":2307:2317  msg.sender */\n      caller\n        /* \"contracts/Fundme.sol\":2285:2318  addressToAmountFunded[msg.sender] */\n      0xffffffffffffffffffffffffffffffffffffffff\n      and\n      0xffffffffffffffffffffffffffffffffffffffff\n      and\n      dup2\n      mstore\n      0x20\n      add\n      swap1\n      dup2\n      mstore\n      0x20\n      add\n      0x00\n      keccak256\n        /* \"contracts/Fundme.sol\":2285:2366  addressToAmountFunded[msg.sender] = addressToAmountFunded[msg.sender] + msg.value */\n      dup2\n      swap1\n      sstore\n      pop\n        /* \"contracts/Fundme.sol\":1839:2457  function fund() public payable {... */\n      jump\t// out\n        /* \"contracts/Fundme.sol\":3558:5287  function withdraw() onlyOwner public {... */\n    tag_20:\n        /* \"contracts/Fundme.sol\":5486:5493  i_owner */\n      immutable(\"0xf65e3ff0de05ca77aa8c820bd528facc139ee4b0986f7c350f3198928bd2c72b\")\n        /* \"contracts/Fundme.sol\":5472:5493  msg.sender != i_owner */\n      0xffffffffffffffffffffffffffffffffffffffff\n      and\n        /* \"contracts/Fundme.sol\":5472:5482  msg.sender */\n      caller\n        /* \"contracts/Fundme.sol\":5472:5493  msg.sender != i_owner */\n      0xffffffffffffffffffffffffffffffffffffffff\n      and\n      eq\n        /* \"contracts/Fundme.sol\":5469:5515  if(msg.sender != i_owner) {revert NotOwner();} */\n      tag_58\n      jumpi\n        /* \"contracts/Fundme.sol\":5503:5513  NotOwner() */\n      mload(0x40)\n      0x30cd747100000000000000000000000000000000000000000000000000000000\n      dup2\n      mstore\n      0x04\n      add\n      mload(0x40)\n      dup1\n      swap2\n      sub\n      swap1\n      revert\n        /* \"contracts/Fundme.sol\":5469:5515  if(msg.sender != i_owner) {revert NotOwner();} */\n    tag_58:\n        /* \"contracts/Fundme.sol\":3871:3890  uint256 funderIndex */\n      0x00\n        /* \"contracts/Fundme.sol\":3893:3894  0 */\n      0x00\n        /* \"contracts/Fundme.sol\":3871:3894  uint256 funderIndex = 0 */\n      swap1\n      pop\n        /* \"contracts/Fundme.sol\":3867:4052  for(uint256 funderIndex = 0; funderIndex < funders.length; funderIndex++){... */\n    tag_60:\n        /* \"contracts/Fundme.sol\":3910:3917  funders */\n      0x00\n        /* \"contracts/Fundme.sol\":3910:3924  funders.length */\n      dup1\n      sload\n      swap1\n      pop\n        /* \"contracts/Fundme.sol\":3896:3907  funderIndex */\n      dup2\n        /* \"contracts/Fundme.sol\":3896:3924  funderIndex < funders.length */\n      lt\n        /* \"contracts/Fundme.sol\":3867:4052  for(uint256 funderIndex = 0; funderIndex < funders.length; funderIndex++){... */\n      iszero\n      tag_61\n      jumpi\n        /* \"contracts/Fundme.sol\":3955:3969  address funder */\n      0x00\n        /* \"contracts/Fundme.sol\":3972:3979  funders */\n      0x00\n        /* \"contracts/Fundme.sol\":3980:3991  funderIndex */\n      dup3\n        /* \"contracts/Fundme.sol\":3972:3992  funders[funderIndex] */\n      dup2\n      sload\n      dup2\n      lt\n      tag_63\n      jumpi\n      tag_64\n      tag_65\n      jump\t// in\n    tag_64:\n    tag_63:\n      swap1\n      0x00\n      mstore\n      keccak256(0x00, 0x20)\n      add\n      0x00\n      swap1\n      sload\n      swap1\n      0x0100\n      exp\n      swap1\n      div\n      0xffffffffffffffffffffffffffffffffffffffff\n      and\n        /* \"contracts/Fundme.sol\":3955:3992  address funder = funders[funderIndex] */\n      swap1\n      pop\n        /* \"contracts/Fundme.sol\":4039:4040  0 */\n      0x00\n        /* \"contracts/Fundme.sol\":4007:4028  addressToAmountFunded */\n      0x01\n        /* \"contracts/Fundme.sol\":4007:4036  addressToAmountFunded[funder] */\n      0x00\n        /* \"contracts/Fundme.sol\":4029:4035  funder */\n      dup4\n        /* \"contracts/Fundme.sol\":4007:4036  addressToAmountFunded[funder] */\n      0xffffffffffffffffffffffffffffffffffffffff\n      and\n      0xffffffffffffffffffffffffffffffffffffffff\n      and\n      dup2\n      mstore\n      0x20\n      add\n      swap1\n      dup2\n      mstore\n      0x20\n      add\n      0x00\n      keccak256\n        /* \"contracts/Fundme.sol\":4007:4040  addressToAmountFunded[funder] = 0 */\n      dup2\n      swap1\n      sstore\n      pop\n        /* \"contracts/Fundme.sol\":3940:4052  {... */\n      pop\n        /* \"contracts/Fundme.sol\":3926:3939  funderIndex++ */\n      dup1\n      dup1\n      0x01\n      add\n      swap2\n      pop\n      pop\n        /* \"contracts/Fundme.sol\":3867:4052  for(uint256 funderIndex = 0; funderIndex < funders.length; funderIndex++){... */\n      jump(tag_60)\n    tag_61:\n      pop\n        /* \"contracts/Fundme.sol\":4126:4127  0 */\n      0x00\n        /* \"contracts/Fundme.sol\":4112:4128  new address[](0) */\n      0xffffffffffffffff\n      dup2\n      gt\n      iszero\n      tag_67\n      jumpi\n      tag_68\n      tag_69\n      jump\t// in\n    tag_68:\n    tag_67:\n      mload(0x40)\n      swap1\n      dup1\n      dup3\n      mstore\n      dup1\n      0x20\n      mul\n      0x20\n      add\n      dup3\n      add\n      0x40\n      mstore\n      dup1\n      iszero\n      tag_70\n      jumpi\n      dup2\n      0x20\n      add\n      0x20\n      dup3\n      mul\n      dup1\n      calldatasize\n      dup4\n      calldatacopy\n      dup1\n      dup3\n      add\n      swap2\n      pop\n      pop\n      swap1\n      pop\n    tag_70:\n      pop\n        /* \"contracts/Fundme.sol\":4102:4109  funders */\n      0x00\n        /* \"contracts/Fundme.sol\":4102:4128  funders = new address[](0) */\n      swap1\n      dup1\n      mload\n      swap1\n      0x20\n      add\n      swap1\n      tag_71\n      swap3\n      swap2\n      swap1\n      tag_72\n      jump\t// in\n    tag_71:\n      pop\n        /* \"contracts/Fundme.sol\":5101:5117  bool callSuccess */\n      0x00\n        /* \"contracts/Fundme.sol\":5131:5141  msg.sender */\n      caller\n        /* \"contracts/Fundme.sol\":5123:5147  payable(msg.sender).call */\n      0xffffffffffffffffffffffffffffffffffffffff\n      and\n        /* \"contracts/Fundme.sol\":5155:5176  address(this).balance */\n      selfbalance\n        /* \"contracts/Fundme.sol\":5123:5181  payable(msg.sender).call{value: address(this).balance}(\"\") */\n      mload(0x40)\n      tag_73\n      swap1\n      tag_74\n      jump\t// in\n    tag_73:\n      0x00\n      mload(0x40)\n      dup1\n      dup4\n      sub\n      dup2\n      dup6\n      dup8\n      gas\n      call\n      swap3\n      pop\n      pop\n      pop\n      returndatasize\n      dup1\n      0x00\n      dup2\n      eq\n      tag_77\n      jumpi\n      mload(0x40)\n      swap2\n      pop\n      and(add(returndatasize, 0x3f), not(0x1f))\n      dup3\n      add\n      0x40\n      mstore\n      returndatasize\n      dup3\n      mstore\n      returndatasize\n      0x00\n      0x20\n      dup5\n      add\n      returndatacopy\n      jump(tag_76)\n    tag_77:\n      0x60\n      swap2\n      pop\n    tag_76:\n      pop\n        /* \"contracts/Fundme.sol\":5100:5181  (bool callSuccess, ) = payable(msg.sender).call{value: address(this).balance}(\"\") */\n      pop\n      swap1\n      pop\n        /* \"contracts/Fundme.sol\":5245:5256  callSuccess */\n      dup1\n        /* \"contracts/Fundme.sol\":5240:5280  if (!callSuccess) {revert CallFailed();} */\n      tag_78\n      jumpi\n        /* \"contracts/Fundme.sol\":5266:5278  CallFailed() */\n      mload(0x40)\n      0x3204506f00000000000000000000000000000000000000000000000000000000\n      dup2\n      mstore\n      0x04\n      add\n      mload(0x40)\n      dup1\n      swap2\n      sub\n      swap1\n      revert\n        /* \"contracts/Fundme.sol\":5240:5280  if (!callSuccess) {revert CallFailed();} */\n    tag_78:\n        /* \"contracts/Fundme.sol\":3595:5287  {... */\n      pop\n        /* \"contracts/Fundme.sol\":3558:5287  function withdraw() onlyOwner public {... */\n      jump\t// out\n        /* \"contracts/Fundme.sol\":1603:1679  mapping(address funder => uint256 amountFunded) public addressToAmountFunded */\n    tag_25:\n      mstore(0x20, 0x01)\n      dup1\n      0x00\n      mstore\n      keccak256(0x00, 0x40)\n      0x00\n      swap2\n      pop\n      swap1\n      pop\n      sload\n      dup2\n      jump\t// out\n        /* \"contracts/Fundme.sol\":3380:3550  function getVerson() public view returns (uint256) {... */\n    tag_30:\n        /* \"contracts/Fundme.sol\":3422:3429  uint256 */\n      0x00\n        /* \"contracts/Fundme.sol\":3471:3513  0x6D41d1dc818112880b40e26BD6FD347E41008eDA */\n      0x6d41d1dc818112880b40e26bd6fd347e41008eda\n        /* \"contracts/Fundme.sol\":3449:3522  AggregatorV3Interface(0x6D41d1dc818112880b40e26BD6FD347E41008eDA).version */\n      0xffffffffffffffffffffffffffffffffffffffff\n      and\n      0x54fd4d50\n        /* \"contracts/Fundme.sol\":3449:3524  AggregatorV3Interface(0x6D41d1dc818112880b40e26BD6FD347E41008eDA).version() */\n      mload(0x40)\n      dup2\n      0xffffffff\n      and\n      0xe0\n      shl\n      dup2\n      mstore\n      0x04\n      add\n      0x20\n      mload(0x40)\n      dup1\n      dup4\n      sub\n      dup2\n      dup7\n      gas\n      staticcall\n      iszero\n      dup1\n      iszero\n      tag_81\n      jumpi\n      returndatacopy(0x00, 0x00, returndatasize)\n      revert(0x00, returndatasize)\n    tag_81:\n      pop\n      pop\n      pop\n      pop\n      mload(0x40)\n      returndatasize\n      not(0x1f)\n      0x1f\n      dup3\n      add\n      and\n      dup3\n      add\n      dup1\n      0x40\n      mstore\n      pop\n      dup2\n      add\n      swap1\n      tag_82\n      swap2\n      swap1\n      tag_83\n      jump\t// in\n    tag_82:\n        /* \"contracts/Fundme.sol\":3442:3524  return AggregatorV3Interface(0x6D41d1dc818112880b40e26BD6FD347E41008eDA).version() */\n      swap1\n      pop\n        /* \"contracts/Fundme.sol\":3380:3550  function getVerson() public view returns (uint256) {... */\n      swap1\n      jump\t// out\n        /* \"contracts/Fundme.sol\":1444:1486  uint256 public constant MINIMUM_USD = 5e18 */\n    tag_34:\n        /* \"contracts/Fundme.sol\":1482:1486  5e18 */\n      0x4563918244f40000\n        /* \"contracts/Fundme.sol\":1444:1486  uint256 public constant MINIMUM_USD = 5e18 */\n      dup2\n      jump\t// out\n        /* \"contracts/Fundme.sol\":1688:1720  address public immutable i_owner */\n    tag_39:\n      immutable(\"0xf65e3ff0de05ca77aa8c820bd528facc139ee4b0986f7c350f3198928bd2c72b\")\n      dup2\n      jump\t// out\n        /* \"contracts/Fundme.sol\":1572:1596  address[] public funders */\n    tag_46:\n      0x00\n      dup2\n      dup2\n      sload\n      dup2\n      lt\n      tag_84\n      jumpi\n      0x00\n      dup1\n      revert\n    tag_84:\n      swap1\n      0x00\n      mstore\n      keccak256(0x00, 0x20)\n      add\n      0x00\n      swap2\n      pop\n      sload\n      swap1\n      0x0100\n      exp\n      swap1\n      div\n      0xffffffffffffffffffffffffffffffffffffffff\n      and\n      dup2\n      jump\t// out\n        /* \"contracts/Fundme.sol\":673:1211  function getConversionRate(uint256 ethAmount) internal view returns(uint256){... */\n    tag_50:\n        /* \"contracts/Fundme.sol\":741:748  uint256 */\n      0x00\n        /* \"contracts/Fundme.sol\":880:896  uint256 ethPrice */\n      0x00\n        /* \"contracts/Fundme.sol\":899:909  getPrice() */\n      tag_87\n        /* \"contracts/Fundme.sol\":899:907  getPrice */\n      tag_88\n        /* \"contracts/Fundme.sol\":899:909  getPrice() */\n      jump\t// in\n    tag_87:\n        /* \"contracts/Fundme.sol\":880:909  uint256 ethPrice = getPrice() */\n      swap1\n      pop\n        /* \"contracts/Fundme.sol\":1109:1131  uint256 ethAmountInUsd */\n      0x00\n        /* \"contracts/Fundme.sol\":1159:1163  1e18 */\n      0x0de0b6b3a7640000\n        /* \"contracts/Fundme.sol\":1146:1155  ethAmount */\n      dup5\n        /* \"contracts/Fundme.sol\":1135:1143  ethPrice */\n      dup4\n        /* \"contracts/Fundme.sol\":1135:1155  ethPrice * ethAmount */\n      tag_89\n      swap2\n      swap1\n      tag_90\n      jump\t// in\n    tag_89:\n        /* \"contracts/Fundme.sol\":1134:1163  (ethPrice * ethAmount) / 1e18 */\n      tag_91\n      swap2\n      swap1\n      tag_92\n      jump\t// in\n    tag_91:\n        /* \"contracts/Fundme.sol\":1109:1163  uint256 ethAmountInUsd = (ethPrice * ethAmount) / 1e18 */\n      swap1\n      pop\n        /* \"contracts/Fundme.sol\":1181:1195  ethAmountInUsd */\n      dup1\n        /* \"contracts/Fundme.sol\":1174:1195  return ethAmountInUsd */\n      swap3\n      pop\n      pop\n      pop\n        /* \"contracts/Fundme.sol\":673:1211  function getConversionRate(uint256 ethAmount) internal view returns(uint256){... */\n      swap2\n      swap1\n      pop\n      jump\t// out\n        /* \"contracts/Fundme.sol\":310:665  function getPrice() internal view returns(uint256){... */\n    tag_88:\n        /* \"contracts/Fundme.sol\":352:359  uint256 */\n      0x00\n        /* \"contracts/Fundme.sol\":460:491  AggregatorV3Interface priceFeed */\n      0x00\n        /* \"contracts/Fundme.sol\":516:558  0x6D41d1dc818112880b40e26BD6FD347E41008eDA */\n      0x6d41d1dc818112880b40e26bd6fd347e41008eda\n        /* \"contracts/Fundme.sol\":460:559  AggregatorV3Interface priceFeed = AggregatorV3Interface(0x6D41d1dc818112880b40e26BD6FD347E41008eDA) */\n      swap1\n      pop\n        /* \"contracts/Fundme.sol\":572:584  int256 price */\n      0x00\n        /* \"contracts/Fundme.sol\":591:600  priceFeed */\n      dup2\n        /* \"contracts/Fundme.sol\":591:616  priceFeed.latestRoundData */\n      0xffffffffffffffffffffffffffffffffffffffff\n      and\n      0xfeaf968c\n        /* \"contracts/Fundme.sol\":591:618  priceFeed.latestRoundData() */\n      mload(0x40)\n      dup2\n      0xffffffff\n      and\n      0xe0\n      shl\n      dup2\n      mstore\n      0x04\n      add\n      0xa0\n      mload(0x40)\n      dup1\n      dup4\n      sub\n      dup2\n      dup7\n      gas\n      staticcall\n      iszero\n      dup1\n      iszero\n      tag_95\n      jumpi\n      returndatacopy(0x00, 0x00, returndatasize)\n      revert(0x00, returndatasize)\n    tag_95:\n      pop\n      pop\n      pop\n      pop\n      mload(0x40)\n      returndatasize\n      not(0x1f)\n      0x1f\n      dup3\n      add\n      and\n      dup3\n      add\n      dup1\n      0x40\n      mstore\n      pop\n      dup2\n      add\n      swap1\n      tag_96\n      swap2\n      swap1\n      tag_97\n      jump\t// in\n    tag_96:\n        /* \"contracts/Fundme.sol\":570:618  (,int256 price,,,) = priceFeed.latestRoundData() */\n      pop\n      pop\n      pop\n      swap2\n      pop\n      pop\n        /* \"contracts/Fundme.sol\":652:656  1e10 */\n      0x02540be400\n        /* \"contracts/Fundme.sol\":644:649  price */\n      dup2\n        /* \"contracts/Fundme.sol\":644:656  price * 1e10 */\n      tag_98\n      swap2\n      swap1\n      tag_99\n      jump\t// in\n    tag_98:\n        /* \"contracts/Fundme.sol\":629:657  return uint256(price * 1e10) */\n      swap3\n      pop\n      pop\n      pop\n        /* \"contracts/Fundme.sol\":310:665  function getPrice() internal view returns(uint256){... */\n      swap1\n      jump\t// out\n    tag_72:\n      dup3\n      dup1\n      sload\n      dup3\n      dup3\n      sstore\n      swap1\n      0x00\n      mstore\n      keccak256(0x00, 0x20)\n      swap1\n      dup2\n      add\n      swap3\n      dup3\n      iszero\n      tag_100\n      jumpi\n      swap2\n      0x20\n      mul\n      dup3\n      add\n    tag_101:\n      dup3\n      dup2\n      gt\n      iszero\n      tag_102\n      jumpi\n      dup3\n      mload\n      dup3\n      exp(0x0100, 0x00)\n      dup2\n      sload\n      dup2\n      0xffffffffffffffffffffffffffffffffffffffff\n      mul\n      not\n      and\n      swap1\n      dup4\n      0xffffffffffffffffffffffffffffffffffffffff\n      and\n      mul\n      or\n      swap1\n      sstore\n      pop\n      swap2\n      0x20\n      add\n      swap2\n      swap1\n      0x01\n      add\n      swap1\n      jump(tag_101)\n    tag_102:\n    tag_100:\n      pop\n      swap1\n      pop\n      tag_103\n      swap2\n      swap1\n      tag_104\n      jump\t// in\n    tag_103:\n      pop\n      swap1\n      jump\t// out\n    tag_104:\n    tag_105:\n      dup1\n      dup3\n      gt\n      iszero\n      tag_106\n      jumpi\n      0x00\n      dup2\n      0x00\n      swap1\n      sstore\n      pop\n      0x01\n      add\n      jump(tag_105)\n    tag_106:\n      pop\n      swap1\n      jump\t// out\n        /* \"#utility.yul\":88:205   */\n    tag_108:\n        /* \"#utility.yul\":197:198   */\n      0x00\n        /* \"#utility.yul\":194:195   */\n      0x00\n        /* \"#utility.yul\":187:199   */\n      revert\n        /* \"#utility.yul\":334:460   */\n    tag_110:\n        /* \"#utility.yul\":371:378   */\n      0x00\n        /* \"#utility.yul\":411:453   */\n      0xffffffffffffffffffffffffffffffffffffffff\n        /* \"#utility.yul\":404:409   */\n      dup3\n        /* \"#utility.yul\":400:454   */\n      and\n        /* \"#utility.yul\":389:454   */\n      swap1\n      pop\n        /* \"#utility.yul\":334:460   */\n      swap2\n      swap1\n      pop\n      jump\t// out\n        /* \"#utility.yul\":466:562   */\n    tag_111:\n        /* \"#utility.yul\":503:510   */\n      0x00\n        /* \"#utility.yul\":532:556   */\n      tag_140\n        /* \"#utility.yul\":550:555   */\n      dup3\n        /* \"#utility.yul\":532:556   */\n      tag_110\n      jump\t// in\n    tag_140:\n        /* \"#utility.yul\":521:556   */\n      swap1\n      pop\n        /* \"#utility.yul\":466:562   */\n      swap2\n      swap1\n      pop\n      jump\t// out\n        /* \"#utility.yul\":568:690   */\n    tag_112:\n        /* \"#utility.yul\":641:665   */\n      tag_142\n        /* \"#utility.yul\":659:664   */\n      dup2\n        /* \"#utility.yul\":641:665   */\n      tag_111\n      jump\t// in\n    tag_142:\n        /* \"#utility.yul\":634:639   */\n      dup2\n        /* \"#utility.yul\":631:666   */\n      eq\n        /* \"#utility.yul\":621:684   */\n      tag_143\n      jumpi\n        /* \"#utility.yul\":680:681   */\n      0x00\n        /* \"#utility.yul\":677:678   */\n      0x00\n        /* \"#utility.yul\":670:682   */\n      revert\n        /* \"#utility.yul\":621:684   */\n    tag_143:\n        /* \"#utility.yul\":568:690   */\n      pop\n      jump\t// out\n        /* \"#utility.yul\":696:835   */\n    tag_113:\n        /* \"#utility.yul\":742:747   */\n      0x00\n        /* \"#utility.yul\":780:786   */\n      dup2\n        /* \"#utility.yul\":767:787   */\n      calldataload\n        /* \"#utility.yul\":758:787   */\n      swap1\n      pop\n        /* \"#utility.yul\":796:829   */\n      tag_145\n        /* \"#utility.yul\":823:828   */\n      dup2\n        /* \"#utility.yul\":796:829   */\n      tag_112\n      jump\t// in\n    tag_145:\n        /* \"#utility.yul\":696:835   */\n      swap3\n      swap2\n      pop\n      pop\n      jump\t// out\n        /* \"#utility.yul\":841:1170   */\n    tag_24:\n        /* \"#utility.yul\":900:906   */\n      0x00\n        /* \"#utility.yul\":949:951   */\n      0x20\n        /* \"#utility.yul\":937:946   */\n      dup3\n        /* \"#utility.yul\":928:935   */\n      dup5\n        /* \"#utility.yul\":924:947   */\n      sub\n        /* \"#utility.yul\":920:952   */\n      slt\n        /* \"#utility.yul\":917:1036   */\n      iszero\n      tag_147\n      jumpi\n        /* \"#utility.yul\":955:1034   */\n      tag_148\n      tag_108\n      jump\t// in\n    tag_148:\n        /* \"#utility.yul\":917:1036   */\n    tag_147:\n        /* \"#utility.yul\":1075:1076   */\n      0x00\n        /* \"#utility.yul\":1100:1153   */\n      tag_149\n        /* \"#utility.yul\":1145:1152   */\n      dup5\n        /* \"#utility.yul\":1136:1142   */\n      dup3\n        /* \"#utility.yul\":1125:1134   */\n      dup6\n        /* \"#utility.yul\":1121:1143   */\n      add\n        /* \"#utility.yul\":1100:1153   */\n      tag_113\n      jump\t// in\n    tag_149:\n        /* \"#utility.yul\":1090:1153   */\n      swap2\n      pop\n        /* \"#utility.yul\":1046:1163   */\n      pop\n        /* \"#utility.yul\":841:1170   */\n      swap3\n      swap2\n      pop\n      pop\n      jump\t// out\n        /* \"#utility.yul\":1176:1253   */\n    tag_114:\n        /* \"#utility.yul\":1213:1220   */\n      0x00\n        /* \"#utility.yul\":1242:1247   */\n      dup2\n        /* \"#utility.yul\":1231:1247   */\n      swap1\n      pop\n        /* \"#utility.yul\":1176:1253   */\n      swap2\n      swap1\n      pop\n      jump\t// out\n        /* \"#utility.yul\":1259:1377   */\n    tag_115:\n        /* \"#utility.yul\":1346:1370   */\n      tag_152\n        /* \"#utility.yul\":1364:1369   */\n      dup2\n        /* \"#utility.yul\":1346:1370   */\n      tag_114\n      jump\t// in\n    tag_152:\n        /* \"#utility.yul\":1341:1344   */\n      dup3\n        /* \"#utility.yul\":1334:1371   */\n      mstore\n        /* \"#utility.yul\":1259:1377   */\n      pop\n      pop\n      jump\t// out\n        /* \"#utility.yul\":1383:1605   */\n    tag_27:\n        /* \"#utility.yul\":1476:1480   */\n      0x00\n        /* \"#utility.yul\":1514:1516   */\n      0x20\n        /* \"#utility.yul\":1503:1512   */\n      dup3\n        /* \"#utility.yul\":1499:1517   */\n      add\n        /* \"#utility.yul\":1491:1517   */\n      swap1\n      pop\n        /* \"#utility.yul\":1527:1598   */\n      tag_154\n        /* \"#utility.yul\":1595:1596   */\n      0x00\n        /* \"#utility.yul\":1584:1593   */\n      dup4\n        /* \"#utility.yul\":1580:1597   */\n      add\n        /* \"#utility.yul\":1571:1577   */\n      dup5\n        /* \"#utility.yul\":1527:1598   */\n      tag_115\n      jump\t// in\n    tag_154:\n        /* \"#utility.yul\":1383:1605   */\n      swap3\n      swap2\n      pop\n      pop\n      jump\t// out\n        /* \"#utility.yul\":1611:1729   */\n    tag_116:\n        /* \"#utility.yul\":1698:1722   */\n      tag_156\n        /* \"#utility.yul\":1716:1721   */\n      dup2\n        /* \"#utility.yul\":1698:1722   */\n      tag_111\n      jump\t// in\n    tag_156:\n        /* \"#utility.yul\":1693:1696   */\n      dup3\n        /* \"#utility.yul\":1686:1723   */\n      mstore\n        /* \"#utility.yul\":1611:1729   */\n      pop\n      pop\n      jump\t// out\n        /* \"#utility.yul\":1735:1957   */\n    tag_41:\n        /* \"#utility.yul\":1828:1832   */\n      0x00\n        /* \"#utility.yul\":1866:1868   */\n      0x20\n        /* \"#utility.yul\":1855:1864   */\n      dup3\n        /* \"#utility.yul\":1851:1869   */\n      add\n        /* \"#utility.yul\":1843:1869   */\n      swap1\n      pop\n        /* \"#utility.yul\":1879:1950   */\n      tag_158\n        /* \"#utility.yul\":1947:1948   */\n      0x00\n        /* \"#utility.yul\":1936:1945   */\n      dup4\n        /* \"#utility.yul\":1932:1949   */\n      add\n        /* \"#utility.yul\":1923:1929   */\n      dup5\n        /* \"#utility.yul\":1879:1950   */\n      tag_116\n      jump\t// in\n    tag_158:\n        /* \"#utility.yul\":1735:1957   */\n      swap3\n      swap2\n      pop\n      pop\n      jump\t// out\n        /* \"#utility.yul\":1963:2085   */\n    tag_117:\n        /* \"#utility.yul\":2036:2060   */\n      tag_160\n        /* \"#utility.yul\":2054:2059   */\n      dup2\n        /* \"#utility.yul\":2036:2060   */\n      tag_114\n      jump\t// in\n    tag_160:\n        /* \"#utility.yul\":2029:2034   */\n      dup2\n        /* \"#utility.yul\":2026:2061   */\n      eq\n        /* \"#utility.yul\":2016:2079   */\n      tag_161\n      jumpi\n        /* \"#utility.yul\":2075:2076   */\n      0x00\n        /* \"#utility.yul\":2072:2073   */\n      0x00\n        /* \"#utility.yul\":2065:2077   */\n      revert\n        /* \"#utility.yul\":2016:2079   */\n    tag_161:\n        /* \"#utility.yul\":1963:2085   */\n      pop\n      jump\t// out\n        /* \"#utility.yul\":2091:2230   */\n    tag_118:\n        /* \"#utility.yul\":2137:2142   */\n      0x00\n        /* \"#utility.yul\":2175:2181   */\n      dup2\n        /* \"#utility.yul\":2162:2182   */\n      calldataload\n        /* \"#utility.yul\":2153:2182   */\n      swap1\n      pop\n        /* \"#utility.yul\":2191:2224   */\n      tag_163\n        /* \"#utility.yul\":2218:2223   */\n      dup2\n        /* \"#utility.yul\":2191:2224   */\n      tag_117\n      jump\t// in\n    tag_163:\n        /* \"#utility.yul\":2091:2230   */\n      swap3\n      swap2\n      pop\n      pop\n      jump\t// out\n        /* \"#utility.yul\":2236:2565   */\n    tag_45:\n        /* \"#utility.yul\":2295:2301   */\n      0x00\n        /* \"#utility.yul\":2344:2346   */\n      0x20\n        /* \"#utility.yul\":2332:2341   */\n      dup3\n        /* \"#utility.yul\":2323:2330   */\n      dup5\n        /* \"#utility.yul\":2319:2342   */\n      sub\n        /* \"#utility.yul\":2315:2347   */\n      slt\n        /* \"#utility.yul\":2312:2431   */\n      iszero\n      tag_165\n      jumpi\n        /* \"#utility.yul\":2350:2429   */\n      tag_166\n      tag_108\n      jump\t// in\n    tag_166:\n        /* \"#utility.yul\":2312:2431   */\n    tag_165:\n        /* \"#utility.yul\":2470:2471   */\n      0x00\n        /* \"#utility.yul\":2495:2548   */\n      tag_167\n        /* \"#utility.yul\":2540:2547   */\n      dup5\n        /* \"#utility.yul\":2531:2537   */\n      dup3\n        /* \"#utility.yul\":2520:2529   */\n      dup6\n        /* \"#utility.yul\":2516:2538   */\n      add\n        /* \"#utility.yul\":2495:2548   */\n      tag_118\n      jump\t// in\n    tag_167:\n        /* \"#utility.yul\":2485:2548   */\n      swap2\n      pop\n        /* \"#utility.yul\":2441:2558   */\n      pop\n        /* \"#utility.yul\":2236:2565   */\n      swap3\n      swap2\n      pop\n      pop\n      jump\t// out\n        /* \"#utility.yul\":2571:2740   */\n    tag_119:\n        /* \"#utility.yul\":2655:2666   */\n      0x00\n        /* \"#utility.yul\":2689:2695   */\n      dup3\n        /* \"#utility.yul\":2684:2687   */\n      dup3\n        /* \"#utility.yul\":2677:2696   */\n      mstore\n        /* \"#utility.yul\":2729:2733   */\n      0x20\n        /* \"#utility.yul\":2724:2727   */\n      dup3\n        /* \"#utility.yul\":2720:2734   */\n      add\n        /* \"#utility.yul\":2705:2734   */\n      swap1\n      pop\n        /* \"#utility.yul\":2571:2740   */\n      swap3\n      swap2\n      pop\n      pop\n      jump\t// out\n        /* \"#utility.yul\":2746:2911   */\n    tag_120:\n        /* \"#utility.yul\":2886:2903   */\n      0x6e6f7420656e676f756768204554480000000000000000000000000000000000\n        /* \"#utility.yul\":2882:2883   */\n      0x00\n        /* \"#utility.yul\":2874:2880   */\n      dup3\n        /* \"#utility.yul\":2870:2884   */\n      add\n        /* \"#utility.yul\":2863:2904   */\n      mstore\n        /* \"#utility.yul\":2746:2911   */\n      pop\n      jump\t// out\n        /* \"#utility.yul\":2917:3283   */\n    tag_121:\n        /* \"#utility.yul\":3059:3062   */\n      0x00\n        /* \"#utility.yul\":3080:3147   */\n      tag_171\n        /* \"#utility.yul\":3144:3146   */\n      0x0f\n        /* \"#utility.yul\":3139:3142   */\n      dup4\n        /* \"#utility.yul\":3080:3147   */\n      tag_119\n      jump\t// in\n    tag_171:\n        /* \"#utility.yul\":3073:3147   */\n      swap2\n      pop\n        /* \"#utility.yul\":3156:3249   */\n      tag_172\n        /* \"#utility.yul\":3245:3248   */\n      dup3\n        /* \"#utility.yul\":3156:3249   */\n      tag_120\n      jump\t// in\n    tag_172:\n        /* \"#utility.yul\":3274:3276   */\n      0x20\n        /* \"#utility.yul\":3269:3272   */\n      dup3\n        /* \"#utility.yul\":3265:3277   */\n      add\n        /* \"#utility.yul\":3258:3277   */\n      swap1\n      pop\n        /* \"#utility.yul\":2917:3283   */\n      swap2\n      swap1\n      pop\n      jump\t// out\n        /* \"#utility.yul\":3289:3708   */\n    tag_53:\n        /* \"#utility.yul\":3455:3459   */\n      0x00\n        /* \"#utility.yul\":3493:3495   */\n      0x20\n        /* \"#utility.yul\":3482:3491   */\n      dup3\n        /* \"#utility.yul\":3478:3496   */\n      add\n        /* \"#utility.yul\":3470:3496   */\n      swap1\n      pop\n        /* \"#utility.yul\":3542:3551   */\n      dup2\n        /* \"#utility.yul\":3536:3540   */\n      dup2\n        /* \"#utility.yul\":3532:3552   */\n      sub\n        /* \"#utility.yul\":3528:3529   */\n      0x00\n        /* \"#utility.yul\":3517:3526   */\n      dup4\n        /* \"#utility.yul\":3513:3530   */\n      add\n        /* \"#utility.yul\":3506:3553   */\n      mstore\n        /* \"#utility.yul\":3570:3701   */\n      tag_174\n        /* \"#utility.yul\":3696:3700   */\n      dup2\n        /* \"#utility.yul\":3570:3701   */\n      tag_121\n      jump\t// in\n    tag_174:\n        /* \"#utility.yul\":3562:3701   */\n      swap1\n      pop\n        /* \"#utility.yul\":3289:3708   */\n      swap2\n      swap1\n      pop\n      jump\t// out\n        /* \"#utility.yul\":3714:3894   */\n    tag_122:\n        /* \"#utility.yul\":3762:3839   */\n      0x4e487b7100000000000000000000000000000000000000000000000000000000\n        /* \"#utility.yul\":3759:3760   */\n      0x00\n        /* \"#utility.yul\":3752:3840   */\n      mstore\n        /* \"#utility.yul\":3859:3863   */\n      0x11\n        /* \"#utility.yul\":3856:3857   */\n      0x04\n        /* \"#utility.yul\":3849:3864   */\n      mstore\n        /* \"#utility.yul\":3883:3887   */\n      0x24\n        /* \"#utility.yul\":3880:3881   */\n      0x00\n        /* \"#utility.yul\":3873:3888   */\n      revert\n        /* \"#utility.yul\":3900:4091   */\n    tag_56:\n        /* \"#utility.yul\":3940:3943   */\n      0x00\n        /* \"#utility.yul\":3959:3979   */\n      tag_177\n        /* \"#utility.yul\":3977:3978   */\n      dup3\n        /* \"#utility.yul\":3959:3979   */\n      tag_114\n      jump\t// in\n    tag_177:\n        /* \"#utility.yul\":3954:3979   */\n      swap2\n      pop\n        /* \"#utility.yul\":3993:4013   */\n      tag_178\n        /* \"#utility.yul\":4011:4012   */\n      dup4\n        /* \"#utility.yul\":3993:4013   */\n      tag_114\n      jump\t// in\n    tag_178:\n        /* \"#utility.yul\":3988:4013   */\n      swap3\n      pop\n        /* \"#utility.yul\":4036:4037   */\n      dup3\n        /* \"#utility.yul\":4033:4034   */\n      dup3\n        /* \"#utility.yul\":4029:4038   */\n      add\n        /* \"#utility.yul\":4022:4038   */\n      swap1\n      pop\n        /* \"#utility.yul\":4057:4060   */\n      dup1\n        /* \"#utility.yul\":4054:4055   */\n      dup3\n        /* \"#utility.yul\":4051:4061   */\n      gt\n        /* \"#utility.yul\":4048:4084   */\n      iszero\n      tag_179\n      jumpi\n        /* \"#utility.yul\":4064:4082   */\n      tag_180\n      tag_122\n      jump\t// in\n    tag_180:\n        /* \"#utility.yul\":4048:4084   */\n    tag_179:\n        /* \"#utility.yul\":3900:4091   */\n      swap3\n      swap2\n      pop\n      pop\n      jump\t// out\n        /* \"#utility.yul\":4097:4277   */\n    tag_65:\n        /* \"#utility.yul\":4145:4222   */\n      0x4e487b7100000000000000000000000000000000000000000000000000000000\n        /* \"#utility.yul\":4142:4143   */\n      0x00\n        /* \"#utility.yul\":4135:4223   */\n      mstore\n        /* \"#utility.yul\":4242:4246   */\n      0x32\n        /* \"#utility.yul\":4239:4240   */\n      0x04\n        /* \"#utility.yul\":4232:4247   */\n      mstore\n        /* \"#utility.yul\":4266:4270   */\n      0x24\n        /* \"#utility.yul\":4263:4264   */\n      0x00\n        /* \"#utility.yul\":4256:4271   */\n      revert\n        /* \"#utility.yul\":4283:4463   */\n    tag_69:\n        /* \"#utility.yul\":4331:4408   */\n      0x4e487b7100000000000000000000000000000000000000000000000000000000\n        /* \"#utility.yul\":4328:4329   */\n      0x00\n        /* \"#utility.yul\":4321:4409   */\n      mstore\n        /* \"#utility.yul\":4428:4432   */\n      0x41\n        /* \"#utility.yul\":4425:4426   */\n      0x04\n        /* \"#utility.yul\":4418:4433   */\n      mstore\n        /* \"#utility.yul\":4452:4456   */\n      0x24\n        /* \"#utility.yul\":4449:4450   */\n      0x00\n        /* \"#utility.yul\":4442:4457   */\n      revert\n        /* \"#utility.yul\":4469:4616   */\n    tag_123:\n        /* \"#utility.yul\":4570:4581   */\n      0x00\n        /* \"#utility.yul\":4607:4610   */\n      dup2\n        /* \"#utility.yul\":4592:4610   */\n      swap1\n      pop\n        /* \"#utility.yul\":4469:4616   */\n      swap3\n      swap2\n      pop\n      pop\n      jump\t// out\n        /* \"#utility.yul\":4622:4736   */\n    tag_124:\n      pop\n      jump\t// out\n        /* \"#utility.yul\":4742:5140   */\n    tag_125:\n        /* \"#utility.yul\":4901:4904   */\n      0x00\n        /* \"#utility.yul\":4922:5005   */\n      tag_186\n        /* \"#utility.yul\":5003:5004   */\n      0x00\n        /* \"#utility.yul\":4998:5001   */\n      dup4\n        /* \"#utility.yul\":4922:5005   */\n      tag_123\n      jump\t// in\n    tag_186:\n        /* \"#utility.yul\":4915:5005   */\n      swap2\n      pop\n        /* \"#utility.yul\":5014:5107   */\n      tag_187\n        /* \"#utility.yul\":5103:5106   */\n      dup3\n        /* \"#utility.yul\":5014:5107   */\n      tag_124\n      jump\t// in\n    tag_187:\n        /* \"#utility.yul\":5132:5133   */\n      0x00\n        /* \"#utility.yul\":5127:5130   */\n      dup3\n        /* \"#utility.yul\":5123:5134   */\n      add\n        /* \"#utility.yul\":5116:5134   */\n      swap1\n      pop\n        /* \"#utility.yul\":4742:5140   */\n      swap2\n      swap1\n      pop\n      jump\t// out\n        /* \"#utility.yul\":5146:5525   */\n    tag_74:\n        /* \"#utility.yul\":5330:5333   */\n      0x00\n        /* \"#utility.yul\":5352:5499   */\n      tag_189\n        /* \"#utility.yul\":5495:5498   */\n      dup3\n        /* \"#utility.yul\":5352:5499   */\n      tag_125\n      jump\t// in\n    tag_189:\n        /* \"#utility.yul\":5345:5499   */\n      swap2\n      pop\n        /* \"#utility.yul\":5516:5519   */\n      dup2\n        /* \"#utility.yul\":5509:5519   */\n      swap1\n      pop\n        /* \"#utility.yul\":5146:5525   */\n      swap2\n      swap1\n      pop\n      jump\t// out\n        /* \"#utility.yul\":5531:5674   */\n    tag_126:\n        /* \"#utility.yul\":5588:5593   */\n      0x00\n        /* \"#utility.yul\":5619:5625   */\n      dup2\n        /* \"#utility.yul\":5613:5626   */\n      mload\n        /* \"#utility.yul\":5604:5626   */\n      swap1\n      pop\n        /* \"#utility.yul\":5635:5668   */\n      tag_191\n        /* \"#utility.yul\":5662:5667   */\n      dup2\n        /* \"#utility.yul\":5635:5668   */\n      tag_117\n      jump\t// in\n    tag_191:\n        /* \"#utility.yul\":5531:5674   */\n      swap3\n      swap2\n      pop\n      pop\n      jump\t// out\n        /* \"#utility.yul\":5680:6031   */\n    tag_83:\n        /* \"#utility.yul\":5750:5756   */\n      0x00\n        /* \"#utility.yul\":5799:5801   */\n      0x20\n        /* \"#utility.yul\":5787:5796   */\n      dup3\n        /* \"#utility.yul\":5778:5785   */\n      dup5\n        /* \"#utility.yul\":5774:5797   */\n      sub\n        /* \"#utility.yul\":5770:5802   */\n      slt\n        /* \"#utility.yul\":5767:5886   */\n      iszero\n      tag_193\n      jumpi\n        /* \"#utility.yul\":5805:5884   */\n      tag_194\n      tag_108\n      jump\t// in\n    tag_194:\n        /* \"#utility.yul\":5767:5886   */\n    tag_193:\n        /* \"#utility.yul\":5925:5926   */\n      0x00\n        /* \"#utility.yul\":5950:6014   */\n      tag_195\n        /* \"#utility.yul\":6006:6013   */\n      dup5\n        /* \"#utility.yul\":5997:6003   */\n      dup3\n        /* \"#utility.yul\":5986:5995   */\n      dup6\n        /* \"#utility.yul\":5982:6004   */\n      add\n        /* \"#utility.yul\":5950:6014   */\n      tag_126\n      jump\t// in\n    tag_195:\n        /* \"#utility.yul\":5940:6014   */\n      swap2\n      pop\n        /* \"#utility.yul\":5896:6024   */\n      pop\n        /* \"#utility.yul\":5680:6031   */\n      swap3\n      swap2\n      pop\n      pop\n      jump\t// out\n        /* \"#utility.yul\":6037:6447   */\n    tag_90:\n        /* \"#utility.yul\":6077:6084   */\n      0x00\n        /* \"#utility.yul\":6100:6120   */\n      tag_197\n        /* \"#utility.yul\":6118:6119   */\n      dup3\n        /* \"#utility.yul\":6100:6120   */\n      tag_114\n      jump\t// in\n    tag_197:\n        /* \"#utility.yul\":6095:6120   */\n      swap2\n      pop\n        /* \"#utility.yul\":6134:6154   */\n      tag_198\n        /* \"#utility.yul\":6152:6153   */\n      dup4\n        /* \"#utility.yul\":6134:6154   */\n      tag_114\n      jump\t// in\n    tag_198:\n        /* \"#utility.yul\":6129:6154   */\n      swap3\n      pop\n        /* \"#utility.yul\":6189:6190   */\n      dup3\n        /* \"#utility.yul\":6186:6187   */\n      dup3\n        /* \"#utility.yul\":6182:6191   */\n      mul\n        /* \"#utility.yul\":6211:6241   */\n      tag_199\n        /* \"#utility.yul\":6229:6240   */\n      dup2\n        /* \"#utility.yul\":6211:6241   */\n      tag_114\n      jump\t// in\n    tag_199:\n        /* \"#utility.yul\":6200:6241   */\n      swap2\n      pop\n        /* \"#utility.yul\":6390:6391   */\n      dup3\n        /* \"#utility.yul\":6381:6388   */\n      dup3\n        /* \"#utility.yul\":6377:6392   */\n      div\n        /* \"#utility.yul\":6374:6375   */\n      dup5\n        /* \"#utility.yul\":6371:6393   */\n      eq\n        /* \"#utility.yul\":6351:6352   */\n      dup4\n        /* \"#utility.yul\":6344:6353   */\n      iszero\n        /* \"#utility.yul\":6324:6407   */\n      or\n        /* \"#utility.yul\":6301:6440   */\n      tag_200\n      jumpi\n        /* \"#utility.yul\":6420:6438   */\n      tag_201\n      tag_122\n      jump\t// in\n    tag_201:\n        /* \"#utility.yul\":6301:6440   */\n    tag_200:\n        /* \"#utility.yul\":6085:6447   */\n      pop\n        /* \"#utility.yul\":6037:6447   */\n      swap3\n      swap2\n      pop\n      pop\n      jump\t// out\n        /* \"#utility.yul\":6453:6633   */\n    tag_127:\n        /* \"#utility.yul\":6501:6578   */\n      0x4e487b7100000000000000000000000000000000000000000000000000000000\n        /* \"#utility.yul\":6498:6499   */\n      0x00\n        /* \"#utility.yul\":6491:6579   */\n      mstore\n        /* \"#utility.yul\":6598:6602   */\n      0x12\n        /* \"#utility.yul\":6595:6596   */\n      0x04\n        /* \"#utility.yul\":6588:6603   */\n      mstore\n        /* \"#utility.yul\":6622:6626   */\n      0x24\n        /* \"#utility.yul\":6619:6620   */\n      0x00\n        /* \"#utility.yul\":6612:6627   */\n      revert\n        /* \"#utility.yul\":6639:6824   */\n    tag_92:\n        /* \"#utility.yul\":6679:6680   */\n      0x00\n        /* \"#utility.yul\":6696:6716   */\n      tag_204\n        /* \"#utility.yul\":6714:6715   */\n      dup3\n        /* \"#utility.yul\":6696:6716   */\n      tag_114\n      jump\t// in\n    tag_204:\n        /* \"#utility.yul\":6691:6716   */\n      swap2\n      pop\n        /* \"#utility.yul\":6730:6750   */\n      tag_205\n        /* \"#utility.yul\":6748:6749   */\n      dup4\n        /* \"#utility.yul\":6730:6750   */\n      tag_114\n      jump\t// in\n    tag_205:\n        /* \"#utility.yul\":6725:6750   */\n      swap3\n      pop\n        /* \"#utility.yul\":6769:6770   */\n      dup3\n        /* \"#utility.yul\":6759:6794   */\n      tag_206\n      jumpi\n        /* \"#utility.yul\":6774:6792   */\n      tag_207\n      tag_127\n      jump\t// in\n    tag_207:\n        /* \"#utility.yul\":6759:6794   */\n    tag_206:\n        /* \"#utility.yul\":6816:6817   */\n      dup3\n        /* \"#utility.yul\":6813:6814   */\n      dup3\n        /* \"#utility.yul\":6809:6818   */\n      div\n        /* \"#utility.yul\":6804:6818   */\n      swap1\n      pop\n        /* \"#utility.yul\":6639:6824   */\n      swap3\n      swap2\n      pop\n      pop\n      jump\t// out\n        /* \"#utility.yul\":6830:6935   */\n    tag_128:\n        /* \"#utility.yul\":6866:6873   */\n      0x00\n        /* \"#utility.yul\":6906:6928   */\n      0xffffffffffffffffffff\n        /* \"#utility.yul\":6899:6904   */\n      dup3\n        /* \"#utility.yul\":6895:6929   */\n      and\n        /* \"#utility.yul\":6884:6929   */\n      swap1\n      pop\n        /* \"#utility.yul\":6830:6935   */\n      swap2\n      swap1\n      pop\n      jump\t// out\n        /* \"#utility.yul\":6941:7061   */\n    tag_129:\n        /* \"#utility.yul\":7013:7036   */\n      tag_210\n        /* \"#utility.yul\":7030:7035   */\n      dup2\n        /* \"#utility.yul\":7013:7036   */\n      tag_128\n      jump\t// in\n    tag_210:\n        /* \"#utility.yul\":7006:7011   */\n      dup2\n        /* \"#utility.yul\":7003:7037   */\n      eq\n        /* \"#utility.yul\":6993:7055   */\n      tag_211\n      jumpi\n        /* \"#utility.yul\":7051:7052   */\n      0x00\n        /* \"#utility.yul\":7048:7049   */\n      0x00\n        /* \"#utility.yul\":7041:7053   */\n      revert\n        /* \"#utility.yul\":6993:7055   */\n    tag_211:\n        /* \"#utility.yul\":6941:7061   */\n      pop\n      jump\t// out\n        /* \"#utility.yul\":7067:7208   */\n    tag_130:\n        /* \"#utility.yul\":7123:7128   */\n      0x00\n        /* \"#utility.yul\":7154:7160   */\n      dup2\n        /* \"#utility.yul\":7148:7161   */\n      mload\n        /* \"#utility.yul\":7139:7161   */\n      swap1\n      pop\n        /* \"#utility.yul\":7170:7202   */\n      tag_213\n        /* \"#utility.yul\":7196:7201   */\n      dup2\n        /* \"#utility.yul\":7170:7202   */\n      tag_129\n      jump\t// in\n    tag_213:\n        /* \"#utility.yul\":7067:7208   */\n      swap3\n      swap2\n      pop\n      pop\n      jump\t// out\n        /* \"#utility.yul\":7214:7290   */\n    tag_131:\n        /* \"#utility.yul\":7250:7257   */\n      0x00\n        /* \"#utility.yul\":7279:7284   */\n      dup2\n        /* \"#utility.yul\":7268:7284   */\n      swap1\n      pop\n        /* \"#utility.yul\":7214:7290   */\n      swap2\n      swap1\n      pop\n      jump\t// out\n        /* \"#utility.yul\":7296:7416   */\n    tag_132:\n        /* \"#utility.yul\":7368:7391   */\n      tag_216\n        /* \"#utility.yul\":7385:7390   */\n      dup2\n        /* \"#utility.yul\":7368:7391   */\n      tag_131\n      jump\t// in\n    tag_216:\n        /* \"#utility.yul\":7361:7366   */\n      dup2\n        /* \"#utility.yul\":7358:7392   */\n      eq\n        /* \"#utility.yul\":7348:7410   */\n      tag_217\n      jumpi\n        /* \"#utility.yul\":7406:7407   */\n      0x00\n        /* \"#utility.yul\":7403:7404   */\n      0x00\n        /* \"#utility.yul\":7396:7408   */\n      revert\n        /* \"#utility.yul\":7348:7410   */\n    tag_217:\n        /* \"#utility.yul\":7296:7416   */\n      pop\n      jump\t// out\n        /* \"#utility.yul\":7422:7563   */\n    tag_133:\n        /* \"#utility.yul\":7478:7483   */\n      0x00\n        /* \"#utility.yul\":7509:7515   */\n      dup2\n        /* \"#utility.yul\":7503:7516   */\n      mload\n        /* \"#utility.yul\":7494:7516   */\n      swap1\n      pop\n        /* \"#utility.yul\":7525:7557   */\n      tag_219\n        /* \"#utility.yul\":7551:7556   */\n      dup2\n        /* \"#utility.yul\":7525:7557   */\n      tag_132\n      jump\t// in\n    tag_219:\n        /* \"#utility.yul\":7422:7563   */\n      swap3\n      swap2\n      pop\n      pop\n      jump\t// out\n        /* \"#utility.yul\":7569:8540   */\n    tag_97:\n        /* \"#utility.yul\":7672:7678   */\n      0x00\n        /* \"#utility.yul\":7680:7686   */\n      0x00\n        /* \"#utility.yul\":7688:7694   */\n      0x00\n        /* \"#utility.yul\":7696:7702   */\n      0x00\n        /* \"#utility.yul\":7704:7710   */\n      0x00\n        /* \"#utility.yul\":7753:7756   */\n      0xa0\n        /* \"#utility.yul\":7741:7750   */\n      dup7\n        /* \"#utility.yul\":7732:7739   */\n      dup9\n        /* \"#utility.yul\":7728:7751   */\n      sub\n        /* \"#utility.yul\":7724:7757   */\n      slt\n        /* \"#utility.yul\":7721:7841   */\n      iszero\n      tag_221\n      jumpi\n        /* \"#utility.yul\":7760:7839   */\n      tag_222\n      tag_108\n      jump\t// in\n    tag_222:\n        /* \"#utility.yul\":7721:7841   */\n    tag_221:\n        /* \"#utility.yul\":7880:7881   */\n      0x00\n        /* \"#utility.yul\":7905:7968   */\n      tag_223\n        /* \"#utility.yul\":7960:7967   */\n      dup9\n        /* \"#utility.yul\":7951:7957   */\n      dup3\n        /* \"#utility.yul\":7940:7949   */\n      dup10\n        /* \"#utility.yul\":7936:7958   */\n      add\n        /* \"#utility.yul\":7905:7968   */\n      tag_130\n      jump\t// in\n    tag_223:\n        /* \"#utility.yul\":7895:7968   */\n      swap6\n      pop\n        /* \"#utility.yul\":7851:7978   */\n      pop\n        /* \"#utility.yul\":8017:8019   */\n      0x20\n        /* \"#utility.yul\":8043:8106   */\n      tag_224\n        /* \"#utility.yul\":8098:8105   */\n      dup9\n        /* \"#utility.yul\":8089:8095   */\n      dup3\n        /* \"#utility.yul\":8078:8087   */\n      dup10\n        /* \"#utility.yul\":8074:8096   */\n      add\n        /* \"#utility.yul\":8043:8106   */\n      tag_133\n      jump\t// in\n    tag_224:\n        /* \"#utility.yul\":8033:8106   */\n      swap5\n      pop\n        /* \"#utility.yul\":7988:8116   */\n      pop\n        /* \"#utility.yul\":8155:8157   */\n      0x40\n        /* \"#utility.yul\":8181:8245   */\n      tag_225\n        /* \"#utility.yul\":8237:8244   */\n      dup9\n        /* \"#utility.yul\":8228:8234   */\n      dup3\n        /* \"#utility.yul\":8217:8226   */\n      dup10\n        /* \"#utility.yul\":8213:8235   */\n      add\n        /* \"#utility.yul\":8181:8245   */\n      tag_126\n      jump\t// in\n    tag_225:\n        /* \"#utility.yul\":8171:8245   */\n      swap4\n      pop\n        /* \"#utility.yul\":8126:8255   */\n      pop\n        /* \"#utility.yul\":8294:8296   */\n      0x60\n        /* \"#utility.yul\":8320:8384   */\n      tag_226\n        /* \"#utility.yul\":8376:8383   */\n      dup9\n        /* \"#utility.yul\":8367:8373   */\n      dup3\n        /* \"#utility.yul\":8356:8365   */\n      dup10\n        /* \"#utility.yul\":8352:8374   */\n      add\n        /* \"#utility.yul\":8320:8384   */\n      tag_126\n      jump\t// in\n    tag_226:\n        /* \"#utility.yul\":8310:8384   */\n      swap3\n      pop\n        /* \"#utility.yul\":8265:8394   */\n      pop\n        /* \"#utility.yul\":8433:8436   */\n      0x80\n        /* \"#utility.yul\":8460:8523   */\n      tag_227\n        /* \"#utility.yul\":8515:8522   */\n      dup9\n        /* \"#utility.yul\":8506:8512   */\n      dup3\n        /* \"#utility.yul\":8495:8504   */\n      dup10\n        /* \"#utility.yul\":8491:8513   */\n      add\n        /* \"#utility.yul\":8460:8523   */\n      tag_130\n      jump\t// in\n    tag_227:\n        /* \"#utility.yul\":8450:8523   */\n      swap2\n      pop\n        /* \"#utility.yul\":8404:8533   */\n      pop\n        /* \"#utility.yul\":7569:8540   */\n      swap3\n      swap6\n      pop\n      swap3\n      swap6\n      swap1\n      swap4\n      pop\n      jump\t// out\n        /* \"#utility.yul\":8546:9102   */\n    tag_99:\n        /* \"#utility.yul\":8585:8592   */\n      0x00\n        /* \"#utility.yul\":8608:8627   */\n      tag_229\n        /* \"#utility.yul\":8625:8626   */\n      dup3\n        /* \"#utility.yul\":8608:8627   */\n      tag_131\n      jump\t// in\n    tag_229:\n        /* \"#utility.yul\":8603:8627   */\n      swap2\n      pop\n        /* \"#utility.yul\":8641:8660   */\n      tag_230\n        /* \"#utility.yul\":8658:8659   */\n      dup4\n        /* \"#utility.yul\":8641:8660   */\n      tag_131\n      jump\t// in\n    tag_230:\n        /* \"#utility.yul\":8636:8660   */\n      swap3\n      pop\n        /* \"#utility.yul\":8695:8696   */\n      dup3\n        /* \"#utility.yul\":8692:8693   */\n      dup3\n        /* \"#utility.yul\":8688:8697   */\n      mul\n        /* \"#utility.yul\":8717:8746   */\n      tag_231\n        /* \"#utility.yul\":8734:8745   */\n      dup2\n        /* \"#utility.yul\":8717:8746   */\n      tag_131\n      jump\t// in\n    tag_231:\n        /* \"#utility.yul\":8706:8746   */\n      swap2\n      pop\n        /* \"#utility.yul\":8804:8870   */\n      0x8000000000000000000000000000000000000000000000000000000000000000\n        /* \"#utility.yul\":8801:8802   */\n      dup5\n        /* \"#utility.yul\":8798:8871   */\n      eq\n        /* \"#utility.yul\":8794:8795   */\n      0x00\n        /* \"#utility.yul\":8791:8792   */\n      dup5\n        /* \"#utility.yul\":8787:8796   */\n      slt\n        /* \"#utility.yul\":8783:8872   */\n      and\n        /* \"#utility.yul\":8780:8895   */\n      iszero\n      tag_232\n      jumpi\n        /* \"#utility.yul\":8875:8893   */\n      tag_233\n      tag_122\n      jump\t// in\n    tag_233:\n        /* \"#utility.yul\":8780:8895   */\n    tag_232:\n        /* \"#utility.yul\":9045:9046   */\n      dup3\n        /* \"#utility.yul\":9036:9043   */\n      dup3\n        /* \"#utility.yul\":9031:9047   */\n      sdiv\n        /* \"#utility.yul\":9028:9029   */\n      dup5\n        /* \"#utility.yul\":9025:9048   */\n      eq\n        /* \"#utility.yul\":9005:9006   */\n      dup4\n        /* \"#utility.yul\":8998:9007   */\n      iszero\n        /* \"#utility.yul\":8978:9062   */\n      or\n        /* \"#utility.yul\":8955:9095   */\n      tag_234\n      jumpi\n        /* \"#utility.yul\":9075:9093   */\n      tag_235\n      tag_122\n      jump\t// in\n    tag_235:\n        /* \"#utility.yul\":8955:9095   */\n    tag_234:\n        /* \"#utility.yul\":8593:9102   */\n      pop\n        /* \"#utility.yul\":8546:9102   */\n      swap3\n      swap2\n      pop\n      pop\n      jump\t// out\n\n    auxdata: 0xa2646970667358221220f3f5e516ab7738bd82ee8cb6ab102cf88356248d10e3572a79e37b4cf365288e64736f6c634300081e0033\n}\n",
				"bytecode": {
					"linkReferences": {},
					"object": "60a0604052348015600e575f5ffd5b503373ffffffffffffffffffffffffffffffffffffffff1660808173ffffffffffffffffffffffffffffffffffffffff1681525050608051610ca66100625f395f81816102e201526105af0152610ca65ff3fe608060405260043610610073575f3560e01c80636b69a5921161004d5780636b69a59214610108578063b60d428814610132578063dba6335f1461013c578063dc0d3dff1461016657610082565b80633ccfd60b1461008c5780633e47d6f3146100a25780636141c5a7146100de57610082565b36610082576100806101a2565b005b61008a6101a2565b005b348015610097575f5ffd5b506100a06102e0565b005b3480156100ad575f5ffd5b506100c860048036038101906100c391906107e8565b610505565b6040516100d5919061082b565b60405180910390f35b3480156100e9575f5ffd5b506100f261051a565b6040516100ff919061082b565b60405180910390f35b348015610113575f5ffd5b5061011c6105a1565b604051610129919061082b565b60405180910390f35b61013a6101a2565b005b348015610147575f5ffd5b506101506105ad565b60405161015d9190610853565b60405180910390f35b348015610171575f5ffd5b5061018c60048036038101906101879190610896565b6105d1565b6040516101999190610853565b60405180910390f35b674563918244f400006101b43461060b565b10156101f5576040517f08c379a00000000000000000000000000000000000000000000000000000000081526004016101ec9061091b565b60405180910390fd5b5f33908060018154018082558091505060019003905f5260205f20015f9091909190916101000a81548173ffffffffffffffffffffffffffffffffffffffff021916908373ffffffffffffffffffffffffffffffffffffffff1602179055503460015f3373ffffffffffffffffffffffffffffffffffffffff1673ffffffffffffffffffffffffffffffffffffffff1681526020019081526020015f205461029d9190610966565b60015f3373ffffffffffffffffffffffffffffffffffffffff1673ffffffffffffffffffffffffffffffffffffffff1681526020019081526020015f2081905550565b7f000000000000000000000000000000000000000000000000000000000000000073ffffffffffffffffffffffffffffffffffffffff163373ffffffffffffffffffffffffffffffffffffffff1614610365576040517f30cd747100000000000000000000000000000000000000000000000000000000815260040160405180910390fd5b5f5f90505b5f80549050811015610404575f5f828154811061038a57610389610999565b5b905f5260205f20015f9054906101000a900473ffffffffffffffffffffffffffffffffffffffff1690505f60015f8373ffffffffffffffffffffffffffffffffffffffff1673ffffffffffffffffffffffffffffffffffffffff1681526020019081526020015f208190555050808060010191505061036a565b505f67ffffffffffffffff81111561041f5761041e6109c6565b5b60405190808252806020026020018201604052801561044d5781602001602082028036833780820191505090505b505f90805190602001906104629291906106e8565b505f3373ffffffffffffffffffffffffffffffffffffffff164760405161048890610a20565b5f6040518083038185875af1925050503d805f81146104c2576040519150601f19603f3d011682016040523d82523d5f602084013e6104c7565b606091505b5050905080610502576040517f3204506f00000000000000000000000000000000000000000000000000000000815260040160405180910390fd5b50565b6001602052805f5260405f205f915090505481565b5f736d41d1dc818112880b40e26bd6fd347e41008eda73ffffffffffffffffffffffffffffffffffffffff166354fd4d506040518163ffffffff1660e01b8152600401602060405180830381865afa158015610578573d5f5f3e3d5ffd5b505050506040513d601f19601f8201168201806040525081019061059c9190610a48565b905090565b674563918244f4000081565b7f000000000000000000000000000000000000000000000000000000000000000081565b5f81815481106105df575f80fd5b905f5260205f20015f915054906101000a900473ffffffffffffffffffffffffffffffffffffffff1681565b5f5f610615610643565b90505f670de0b6b3a7640000848361062d9190610a73565b6106379190610ae1565b90508092505050919050565b5f5f736d41d1dc818112880b40e26bd6fd347e41008eda90505f8173ffffffffffffffffffffffffffffffffffffffff1663feaf968c6040518163ffffffff1660e01b815260040160a060405180830381865afa1580156106a6573d5f5f3e3d5ffd5b505050506040513d601f19601f820116820180604052508101906106ca9190610b83565b5050509150506402540be400816106e19190610bfa565b9250505090565b828054828255905f5260205f2090810192821561075e579160200282015b8281111561075d578251825f6101000a81548173ffffffffffffffffffffffffffffffffffffffff021916908373ffffffffffffffffffffffffffffffffffffffff16021790555091602001919060010190610706565b5b50905061076b919061076f565b5090565b5b80821115610786575f815f905550600101610770565b5090565b5f5ffd5b5f73ffffffffffffffffffffffffffffffffffffffff82169050919050565b5f6107b78261078e565b9050919050565b6107c7816107ad565b81146107d1575f5ffd5b50565b5f813590506107e2816107be565b92915050565b5f602082840312156107fd576107fc61078a565b5b5f61080a848285016107d4565b91505092915050565b5f819050919050565b61082581610813565b82525050565b5f60208201905061083e5f83018461081c565b92915050565b61084d816107ad565b82525050565b5f6020820190506108665f830184610844565b92915050565b61087581610813565b811461087f575f5ffd5b50565b5f813590506108908161086c565b92915050565b5f602082840312156108ab576108aa61078a565b5b5f6108b884828501610882565b91505092915050565b5f82825260208201905092915050565b7f6e6f7420656e676f7567682045544800000000000000000000000000000000005f82015250565b5f610905600f836108c1565b9150610910826108d1565b602082019050919050565b5f6020820190508181035f830152610932816108f9565b9050919050565b7f4e487b71000000000000000000000000000000000000000000000000000000005f52601160045260245ffd5b5f61097082610813565b915061097b83610813565b925082820190508082111561099357610992610939565b5b92915050565b7f4e487b71000000000000000000000000000000000000000000000000000000005f52603260045260245ffd5b7f4e487b71000000000000000000000000000000000000000000000000000000005f52604160045260245ffd5b5f81905092915050565b50565b5f610a0b5f836109f3565b9150610a16826109fd565b5f82019050919050565b5f610a2a82610a00565b9150819050919050565b5f81519050610a428161086c565b92915050565b5f60208284031215610a5d57610a5c61078a565b5b5f610a6a84828501610a34565b91505092915050565b5f610a7d82610813565b9150610a8883610813565b9250828202610a9681610813565b91508282048414831517610aad57610aac610939565b5b5092915050565b7f4e487b71000000000000000000000000000000000000000000000000000000005f52601260045260245ffd5b5f610aeb82610813565b9150610af683610813565b925082610b0657610b05610ab4565b5b828204905092915050565b5f69ffffffffffffffffffff82169050919050565b610b2f81610b11565b8114610b39575f5ffd5b50565b5f81519050610b4a81610b26565b92915050565b5f819050919050565b610b6281610b50565b8114610b6c575f5ffd5b50565b5f81519050610b7d81610b59565b92915050565b5f5f5f5f5f60a08688031215610b9c57610b9b61078a565b5b5f610ba988828901610b3c565b9550506020610bba88828901610b6f565b9450506040610bcb88828901610a34565b9350506060610bdc88828901610a34565b9250506080610bed88828901610b3c565b9150509295509295909350565b5f610c0482610b50565b9150610c0f83610b50565b9250828202610c1d81610b50565b91507f800000000000000000000000000000000000000000000000000000000000000084145f84121615610c5457610c53610939565b5b8282058414831517610c6957610c68610939565b5b509291505056fea2646970667358221220f3f5e516ab7738bd82ee8cb6ab102cf88356248d10e3572a79e37b4cf365288e64736f6c634300081e0033",
					"opcodes": "PUSH1 0xA0 PUSH1 0x40 MSTORE CALLVALUE DUP1 ISZERO PUSH1 0xE JUMPI PUSH0 PUSH0 REVERT JUMPDEST POP CALLER PUSH20 0xFFFFFFFFFFFFFFFFFFFFFFFFFFFFFFFFFFFFFFFF AND PUSH1 0x80 DUP2 PUSH20 0xFFFFFFFFFFFFFFFFFFFFFFFFFFFFFFFFFFFFFFFF AND DUP2 MSTORE POP POP PUSH1 0x80 MLOAD PUSH2 0xCA6 PUSH2 0x62 PUSH0 CODECOPY PUSH0 DUP2 DUP2 PUSH2 0x2E2 ADD MSTORE PUSH2 0x5AF ADD MSTORE PUSH2 0xCA6 PUSH0 RETURN INVALID PUSH1 0x80 PUSH1 0x40 MSTORE PUSH1 0x4 CALLDATASIZE LT PUSH2 0x73 JUMPI PUSH0 CALLDATALOAD PUSH1 0xE0 SHR DUP1 PUSH4 0x6B69A592 GT PUSH2 0x4D JUMPI DUP1 PUSH4 0x6B69A592 EQ PUSH2 0x108 JUMPI DUP1 PUSH4 0xB60D4288 EQ PUSH2 0x132 JUMPI DUP1 PUSH4 0xDBA6335F EQ PUSH2 0x13C JUMPI DUP1 PUSH4 0xDC0D3DFF EQ PUSH2 0x166 JUMPI PUSH2 0x82 JUMP JUMPDEST DUP1 PUSH4 0x3CCFD60B EQ PUSH2 0x8C JUMPI DUP1 PUSH4 0x3E47D6F3 EQ PUSH2 0xA2 JUMPI DUP1 PUSH4 0x6141C5A7 EQ PUSH2 0xDE JUMPI PUSH2 0x82 JUMP JUMPDEST CALLDATASIZE PUSH2 0x82 JUMPI PUSH2 0x80 PUSH2 0x1A2 JUMP JUMPDEST STOP JUMPDEST PUSH2 0x8A PUSH2 0x1A2 JUMP JUMPDEST STOP JUMPDEST CALLVALUE DUP1 ISZERO PUSH2 0x97 JUMPI PUSH0 PUSH0 REVERT JUMPDEST POP PUSH2 0xA0 PUSH2 0x2E0 JUMP JUMPDEST STOP JUMPDEST CALLVALUE DUP1 ISZERO PUSH2 0xAD JUMPI PUSH0 PUSH0 REVERT JUMPDEST POP PUSH2 0xC8 PUSH1 0x4 DUP1 CALLDATASIZE SUB DUP2 ADD SWAP1 PUSH2 0xC3 SWAP2 SWAP1 PUSH2 0x7E8 JUMP JUMPDEST PUSH2 0x505 JUMP JUMPDEST PUSH1 0x40 MLOAD PUSH2 0xD5 SWAP2 SWAP1 PUSH2 0x82B JUMP JUMPDEST PUSH1 0x40 MLOAD DUP1 SWAP2 SUB SWAP1 RETURN JUMPDEST CALLVALUE DUP1 ISZERO PUSH2 0xE9 JUMPI PUSH0 PUSH0 REVERT JUMPDEST POP PUSH2 0xF2 PUSH2 0x51A JUMP JUMPDEST PUSH1 0x40 MLOAD PUSH2 0xFF SWAP2 SWAP1 PUSH2 0x82B JUMP JUMPDEST PUSH1 0x40 MLOAD DUP1 SWAP2 SUB SWAP1 RETURN JUMPDEST CALLVALUE DUP1 ISZERO PUSH2 0x113 JUMPI PUSH0 PUSH0 REVERT JUMPDEST POP PUSH2 0x11C PUSH2 0x5A1 JUMP JUMPDEST PUSH1 0x40 MLOAD PUSH2 0x129 SWAP2 SWAP1 PUSH2 0x82B JUMP JUMPDEST PUSH1 0x40 MLOAD DUP1 SWAP2 SUB SWAP1 RETURN JUMPDEST PUSH2 0x13A PUSH2 0x1A2 JUMP JUMPDEST STOP JUMPDEST CALLVALUE DUP1 ISZERO PUSH2 0x147 JUMPI PUSH0 PUSH0 REVERT JUMPDEST POP PUSH2 0x150 PUSH2 0x5AD JUMP JUMPDEST PUSH1 0x40 MLOAD PUSH2 0x15D SWAP2 SWAP1 PUSH2 0x853 JUMP JUMPDEST PUSH1 0x40 MLOAD DUP1 SWAP2 SUB SWAP1 RETURN JUMPDEST CALLVALUE DUP1 ISZERO PUSH2 0x171 JUMPI PUSH0 PUSH0 REVERT JUMPDEST POP PUSH2 0x18C PUSH1 0x4 DUP1 CALLDATASIZE SUB DUP2 ADD SWAP1 PUSH2 0x187 SWAP2 SWAP1 PUSH2 0x896 JUMP JUMPDEST PUSH2 0x5D1 JUMP JUMPDEST PUSH1 0x40 MLOAD PUSH2 0x199 SWAP2 SWAP1 PUSH2 0x853 JUMP JUMPDEST PUSH1 0x40 MLOAD DUP1 SWAP2 SUB SWAP1 RETURN JUMPDEST PUSH8 0x4563918244F40000 PUSH2 0x1B4 CALLVALUE PUSH2 0x60B JUMP JUMPDEST LT ISZERO PUSH2 0x1F5 JUMPI PUSH1 0x40 MLOAD PUSH32 0x8C379A000000000000000000000000000000000000000000000000000000000 DUP2 MSTORE PUSH1 0x4 ADD PUSH2 0x1EC SWAP1 PUSH2 0x91B JUMP JUMPDEST PUSH1 0x40 MLOAD DUP1 SWAP2 SUB SWAP1 REVERT JUMPDEST PUSH0 CALLER SWAP1 DUP1 PUSH1 0x1 DUP2 SLOAD ADD DUP1 DUP3 SSTORE DUP1 SWAP2 POP POP PUSH1 0x1 SWAP1 SUB SWAP1 PUSH0 MSTORE PUSH1 0x20 PUSH0 KECCAK256 ADD PUSH0 SWAP1 SWAP2 SWAP1 SWAP2 SWAP1 SWAP2 PUSH2 0x100 EXP DUP2 SLOAD DUP2 PUSH20 0xFFFFFFFFFFFFFFFFFFFFFFFFFFFFFFFFFFFFFFFF MUL NOT AND SWAP1 DUP4 PUSH20 0xFFFFFFFFFFFFFFFFFFFFFFFFFFFFFFFFFFFFFFFF AND MUL OR SWAP1 SSTORE POP CALLVALUE PUSH1 0x1 PUSH0 CALLER PUSH20 0xFFFFFFFFFFFFFFFFFFFFFFFFFFFFFFFFFFFFFFFF AND PUSH20 0xFFFFFFFFFFFFFFFFFFFFFFFFFFFFFFFFFFFFFFFF AND DUP2 MSTORE PUSH1 0x20 ADD SWAP1 DUP2 MSTORE PUSH1 0x20 ADD PUSH0 KECCAK256 SLOAD PUSH2 0x29D SWAP2 SWAP1 PUSH2 0x966 JUMP JUMPDEST PUSH1 0x1 PUSH0 CALLER PUSH20 0xFFFFFFFFFFFFFFFFFFFFFFFFFFFFFFFFFFFFFFFF AND PUSH20 0xFFFFFFFFFFFFFFFFFFFFFFFFFFFFFFFFFFFFFFFF AND DUP2 MSTORE PUSH1 0x20 ADD SWAP1 DUP2 MSTORE PUSH1 0x20 ADD PUSH0 KECCAK256 DUP2 SWAP1 SSTORE POP JUMP JUMPDEST PUSH32 0x0 PUSH20 0xFFFFFFFFFFFFFFFFFFFFFFFFFFFFFFFFFFFFFFFF AND CALLER PUSH20 0xFFFFFFFFFFFFFFFFFFFFFFFFFFFFFFFFFFFFFFFF AND EQ PUSH2 0x365 JUMPI PUSH1 0x40 MLOAD PUSH32 0x30CD747100000000000000000000000000000000000000000000000000000000 DUP2 MSTORE PUSH1 0x4 ADD PUSH1 0x40 MLOAD DUP1 SWAP2 SUB SWAP1 REVERT JUMPDEST PUSH0 PUSH0 SWAP1 POP JUMPDEST PUSH0 DUP1 SLOAD SWAP1 POP DUP2 LT ISZERO PUSH2 0x404 JUMPI PUSH0 PUSH0 DUP3 DUP2 SLOAD DUP2 LT PUSH2 0x38A JUMPI PUSH2 0x389 PUSH2 0x999 JUMP JUMPDEST JUMPDEST SWAP1 PUSH0 MSTORE PUSH1 0x20 PUSH0 KECCAK256 ADD PUSH0 SWAP1 SLOAD SWAP1 PUSH2 0x100 EXP SWAP1 DIV PUSH20 0xFFFFFFFFFFFFFFFFFFFFFFFFFFFFFFFFFFFFFFFF AND SWAP1 POP PUSH0 PUSH1 0x1 PUSH0 DUP4 PUSH20 0xFFFFFFFFFFFFFFFFFFFFFFFFFFFFFFFFFFFFFFFF AND PUSH20 0xFFFFFFFFFFFFFFFFFFFFFFFFFFFFFFFFFFFFFFFF AND DUP2 MSTORE PUSH1 0x20 ADD SWAP1 DUP2 MSTORE PUSH1 0x20 ADD PUSH0 KECCAK256 DUP2 SWAP1 SSTORE POP POP DUP1 DUP1 PUSH1 0x1 ADD SWAP2 POP POP PUSH2 0x36A JUMP JUMPDEST POP PUSH0 PUSH8 0xFFFFFFFFFFFFFFFF DUP2 GT ISZERO PUSH2 0x41F JUMPI PUSH2 0x41E PUSH2 0x9C6 JUMP JUMPDEST JUMPDEST PUSH1 0x40 MLOAD SWAP1 DUP1 DUP3 MSTORE DUP1 PUSH1 0x20 MUL PUSH1 0x20 ADD DUP3 ADD PUSH1 0x40 MSTORE DUP1 ISZERO PUSH2 0x44D JUMPI DUP2 PUSH1 0x20 ADD PUSH1 0x20 DUP3 MUL DUP1 CALLDATASIZE DUP4 CALLDATACOPY DUP1 DUP3 ADD SWAP2 POP POP SWAP1 POP JUMPDEST POP PUSH0 SWAP1 DUP1 MLOAD SWAP1 PUSH1 0x20 ADD SWAP1 PUSH2 0x462 SWAP3 SWAP2 SWAP1 PUSH2 0x6E8 JUMP JUMPDEST POP PUSH0 CALLER PUSH20 0xFFFFFFFFFFFFFFFFFFFFFFFFFFFFFFFFFFFFFFFF AND SELFBALANCE PUSH1 0x40 MLOAD PUSH2 0x488 SWAP1 PUSH2 0xA20 JUMP JUMPDEST PUSH0 PUSH1 0x40 MLOAD DUP1 DUP4 SUB DUP2 DUP6 DUP8 GAS CALL SWAP3 POP POP POP RETURNDATASIZE DUP1 PUSH0 DUP2 EQ PUSH2 0x4C2 JUMPI PUSH1 0x40 MLOAD SWAP2 POP PUSH1 0x1F NOT PUSH1 0x3F RETURNDATASIZE ADD AND DUP3 ADD PUSH1 0x40 MSTORE RETURNDATASIZE DUP3 MSTORE RETURNDATASIZE PUSH0 PUSH1 0x20 DUP5 ADD RETURNDATACOPY PUSH2 0x4C7 JUMP JUMPDEST PUSH1 0x60 SWAP2 POP JUMPDEST POP POP SWAP1 POP DUP1 PUSH2 0x502 JUMPI PUSH1 0x40 MLOAD PUSH32 0x3204506F00000000000000000000000000000000000000000000000000000000 DUP2 MSTORE PUSH1 0x4 ADD PUSH1 0x40 MLOAD DUP1 SWAP2 SUB SWAP1 REVERT JUMPDEST POP JUMP JUMPDEST PUSH1 0x1 PUSH1 0x20 MSTORE DUP1 PUSH0 MSTORE PUSH1 0x40 PUSH0 KECCAK256 PUSH0 SWAP2 POP SWAP1 POP SLOAD DUP2 JUMP JUMPDEST PUSH0 PUSH20 0x6D41D1DC818112880B40E26BD6FD347E41008EDA PUSH20 0xFFFFFFFFFFFFFFFFFFFFFFFFFFFFFFFFFFFFFFFF AND PUSH4 0x54FD4D50 PUSH1 0x40 MLOAD DUP2 PUSH4 0xFFFFFFFF AND PUSH1 0xE0 SHL DUP2 MSTORE PUSH1 0x4 ADD PUSH1 0x20 PUSH1 0x40 MLOAD DUP1 DUP4 SUB DUP2 DUP7 GAS STATICCALL ISZERO DUP1 ISZERO PUSH2 0x578 JUMPI RETURNDATASIZE PUSH0 PUSH0 RETURNDATACOPY RETURNDATASIZE PUSH0 REVERT JUMPDEST POP POP POP POP PUSH1 0x40 MLOAD RETURNDATASIZE PUSH1 0x1F NOT PUSH1 0x1F DUP3 ADD AND DUP3 ADD DUP1 PUSH1 0x40 MSTORE POP DUP2 ADD SWAP1 PUSH2 0x59C SWAP2 SWAP1 PUSH2 0xA48 JUMP JUMPDEST SWAP1 POP SWAP1 JUMP JUMPDEST PUSH8 0x4563918244F40000 DUP2 JUMP JUMPDEST PUSH32 0x0 DUP2 JUMP JUMPDEST PUSH0 DUP2 DUP2 SLOAD DUP2 LT PUSH2 0x5DF JUMPI PUSH0 DUP1 REVERT JUMPDEST SWAP1 PUSH0 MSTORE PUSH1 0x20 PUSH0 KECCAK256 ADD PUSH0 SWAP2 POP SLOAD SWAP1 PUSH2 0x100 EXP SWAP1 DIV PUSH20 0xFFFFFFFFFFFFFFFFFFFFFFFFFFFFFFFFFFFFFFFF AND DUP2 JUMP JUMPDEST PUSH0 PUSH0 PUSH2 0x615 PUSH2 0x643 JUMP JUMPDEST SWAP1 POP PUSH0 PUSH8 0xDE0B6B3A7640000 DUP5 DUP4 PUSH2 0x62D SWAP2 SWAP1 PUSH2 0xA73 JUMP JUMPDEST PUSH2 0x637 SWAP2 SWAP1 PUSH2 0xAE1 JUMP JUMPDEST SWAP1 POP DUP1 SWAP3 POP POP POP SWAP2 SWAP1 POP JUMP JUMPDEST PUSH0 PUSH0 PUSH20 0x6D41D1DC818112880B40E26BD6FD347E41008EDA SWAP1 POP PUSH0 DUP2 PUSH20 0xFFFFFFFFFFFFFFFFFFFFFFFFFFFFFFFFFFFFFFFF AND PUSH4 0xFEAF968C PUSH1 0x40 MLOAD DUP2 PUSH4 0xFFFFFFFF AND PUSH1 0xE0 SHL DUP2 MSTORE PUSH1 0x4 ADD PUSH1 0xA0 PUSH1 0x40 MLOAD DUP1 DUP4 SUB DUP2 DUP7 GAS STATICCALL ISZERO DUP1 ISZERO PUSH2 0x6A6 JUMPI RETURNDATASIZE PUSH0 PUSH0 RETURNDATACOPY RETURNDATASIZE PUSH0 REVERT JUMPDEST POP POP POP POP PUSH1 0x40 MLOAD RETURNDATASIZE PUSH1 0x1F NOT PUSH1 0x1F DUP3 ADD AND DUP3 ADD DUP1 PUSH1 0x40 MSTORE POP DUP2 ADD SWAP1 PUSH2 0x6CA SWAP2 SWAP1 PUSH2 0xB83 JUMP JUMPDEST POP POP POP SWAP2 POP POP PUSH5 0x2540BE400 DUP2 PUSH2 0x6E1 SWAP2 SWAP1 PUSH2 0xBFA JUMP JUMPDEST SWAP3 POP POP POP SWAP1 JUMP JUMPDEST DUP3 DUP1 SLOAD DUP3 DUP3 SSTORE SWAP1 PUSH0 MSTORE PUSH1 0x20 PUSH0 KECCAK256 SWAP1 DUP2 ADD SWAP3 DUP3 ISZERO PUSH2 0x75E JUMPI SWAP2 PUSH1 0x20 MUL DUP3 ADD JUMPDEST DUP3 DUP2 GT ISZERO PUSH2 0x75D JUMPI DUP3 MLOAD DUP3 PUSH0 PUSH2 0x100 EXP DUP2 SLOAD DUP2 PUSH20 0xFFFFFFFFFFFFFFFFFFFFFFFFFFFFFFFFFFFFFFFF MUL NOT AND SWAP1 DUP4 PUSH20 0xFFFFFFFFFFFFFFFFFFFFFFFFFFFFFFFFFFFFFFFF AND MUL OR SWAP1 SSTORE POP SWAP2 PUSH1 0x20 ADD SWAP2 SWAP1 PUSH1 0x1 ADD SWAP1 PUSH2 0x706 JUMP JUMPDEST JUMPDEST POP SWAP1 POP PUSH2 0x76B SWAP2 SWAP1 PUSH2 0x76F JUMP JUMPDEST POP SWAP1 JUMP JUMPDEST JUMPDEST DUP1 DUP3 GT ISZERO PUSH2 0x786 JUMPI PUSH0 DUP2 PUSH0 SWAP1 SSTORE POP PUSH1 0x1 ADD PUSH2 0x770 JUMP JUMPDEST POP SWAP1 JUMP JUMPDEST PUSH0 PUSH0 REVERT JUMPDEST PUSH0 PUSH20 0xFFFFFFFFFFFFFFFFFFFFFFFFFFFFFFFFFFFFFFFF DUP3 AND SWAP1 POP SWAP2 SWAP1 POP JUMP JUMPDEST PUSH0 PUSH2 0x7B7 DUP3 PUSH2 0x78E JUMP JUMPDEST SWAP1 POP SWAP2 SWAP1 POP JUMP JUMPDEST PUSH2 0x7C7 DUP2 PUSH2 0x7AD JUMP JUMPDEST DUP2 EQ PUSH2 0x7D1 JUMPI PUSH0 PUSH0 REVERT JUMPDEST POP JUMP JUMPDEST PUSH0 DUP2 CALLDATALOAD SWAP1 POP PUSH2 0x7E2 DUP2 PUSH2 0x7BE JUMP JUMPDEST SWAP3 SWAP2 POP POP JUMP JUMPDEST PUSH0 PUSH1 0x20 DUP3 DUP5 SUB SLT ISZERO PUSH2 0x7FD JUMPI PUSH2 0x7FC PUSH2 0x78A JUMP JUMPDEST JUMPDEST PUSH0 PUSH2 0x80A DUP5 DUP3 DUP6 ADD PUSH2 0x7D4 JUMP JUMPDEST SWAP2 POP POP SWAP3 SWAP2 POP POP JUMP JUMPDEST PUSH0 DUP2 SWAP1 POP SWAP2 SWAP1 POP JUMP JUMPDEST PUSH2 0x825 DUP2 PUSH2 0x813 JUMP JUMPDEST DUP3 MSTORE POP POP JUMP JUMPDEST PUSH0 PUSH1 0x20 DUP3 ADD SWAP1 POP PUSH2 0x83E PUSH0 DUP4 ADD DUP5 PUSH2 0x81C JUMP JUMPDEST SWAP3 SWAP2 POP POP JUMP JUMPDEST PUSH2 0x84D DUP2 PUSH2 0x7AD JUMP JUMPDEST DUP3 MSTORE POP POP JUMP JUMPDEST PUSH0 PUSH1 0x20 DUP3 ADD SWAP1 POP PUSH2 0x866 PUSH0 DUP4 ADD DUP5 PUSH2 0x844 JUMP JUMPDEST SWAP3 SWAP2 POP POP JUMP JUMPDEST PUSH2 0x875 DUP2 PUSH2 0x813 JUMP JUMPDEST DUP2 EQ PUSH2 0x87F JUMPI PUSH0 PUSH0 REVERT JUMPDEST POP JUMP JUMPDEST PUSH0 DUP2 CALLDATALOAD SWAP1 POP PUSH2 0x890 DUP2 PUSH2 0x86C JUMP JUMPDEST SWAP3 SWAP2 POP POP JUMP JUMPDEST PUSH0 PUSH1 0x20 DUP3 DUP5 SUB SLT ISZERO PUSH2 0x8AB JUMPI PUSH2 0x8AA PUSH2 0x78A JUMP JUMPDEST JUMPDEST PUSH0 PUSH2 0x8B8 DUP5 DUP3 DUP6 ADD PUSH2 0x882 JUMP JUMPDEST SWAP2 POP POP SWAP3 SWAP2 POP POP JUMP JUMPDEST PUSH0 DUP3 DUP3 MSTORE PUSH1 0x20 DUP3 ADD SWAP1 POP SWAP3 SWAP2 POP POP JUMP JUMPDEST PUSH32 0x6E6F7420656E676F756768204554480000000000000000000000000000000000 PUSH0 DUP3 ADD MSTORE POP JUMP JUMPDEST PUSH0 PUSH2 0x905 PUSH1 0xF DUP4 PUSH2 0x8C1 JUMP JUMPDEST SWAP2 POP PUSH2 0x910 DUP3 PUSH2 0x8D1 JUMP JUMPDEST PUSH1 0x20 DUP3 ADD SWAP1 POP SWAP2 SWAP1 POP JUMP JUMPDEST PUSH0 PUSH1 0x20 DUP3 ADD SWAP1 POP DUP2 DUP2 SUB PUSH0 DUP4 ADD MSTORE PUSH2 0x932 DUP2 PUSH2 0x8F9 JUMP JUMPDEST SWAP1 POP SWAP2 SWAP1 POP JUMP JUMPDEST PUSH32 0x4E487B7100000000000000000000000000000000000000000000000000000000 PUSH0 MSTORE PUSH1 0x11 PUSH1 0x4 MSTORE PUSH1 0x24 PUSH0 REVERT JUMPDEST PUSH0 PUSH2 0x970 DUP3 PUSH2 0x813 JUMP JUMPDEST SWAP2 POP PUSH2 0x97B DUP4 PUSH2 0x813 JUMP JUMPDEST SWAP3 POP DUP3 DUP3 ADD SWAP1 POP DUP1 DUP3 GT ISZERO PUSH2 0x993 JUMPI PUSH2 0x992 PUSH2 0x939 JUMP JUMPDEST JUMPDEST SWAP3 SWAP2 POP POP JUMP JUMPDEST PUSH32 0x4E487B7100000000000000000000000000000000000000000000000000000000 PUSH0 MSTORE PUSH1 0x32 PUSH1 0x4 MSTORE PUSH1 0x24 PUSH0 REVERT JUMPDEST PUSH32 0x4E487B7100000000000000000000000000000000000000000000000000000000 PUSH0 MSTORE PUSH1 0x41 PUSH1 0x4 MSTORE PUSH1 0x24 PUSH0 REVERT JUMPDEST PUSH0 DUP2 SWAP1 POP SWAP3 SWAP2 POP POP JUMP JUMPDEST POP JUMP JUMPDEST PUSH0 PUSH2 0xA0B PUSH0 DUP4 PUSH2 0x9F3 JUMP JUMPDEST SWAP2 POP PUSH2 0xA16 DUP3 PUSH2 0x9FD JUMP JUMPDEST PUSH0 DUP3 ADD SWAP1 POP SWAP2 SWAP1 POP JUMP JUMPDEST PUSH0 PUSH2 0xA2A DUP3 PUSH2 0xA00 JUMP JUMPDEST SWAP2 POP DUP2 SWAP1 POP SWAP2 SWAP1 POP JUMP JUMPDEST PUSH0 DUP2 MLOAD SWAP1 POP PUSH2 0xA42 DUP2 PUSH2 0x86C JUMP JUMPDEST SWAP3 SWAP2 POP POP JUMP JUMPDEST PUSH0 PUSH1 0x20 DUP3 DUP5 SUB SLT ISZERO PUSH2 0xA5D JUMPI PUSH2 0xA5C PUSH2 0x78A JUMP JUMPDEST JUMPDEST PUSH0 PUSH2 0xA6A DUP5 DUP3 DUP6 ADD PUSH2 0xA34 JUMP JUMPDEST SWAP2 POP POP SWAP3 SWAP2 POP POP JUMP JUMPDEST PUSH0 PUSH2 0xA7D DUP3 PUSH2 0x813 JUMP JUMPDEST SWAP2 POP PUSH2 0xA88 DUP4 PUSH2 0x813 JUMP JUMPDEST SWAP3 POP DUP3 DUP3 MUL PUSH2 0xA96 DUP2 PUSH2 0x813 JUMP JUMPDEST SWAP2 POP DUP3 DUP3 DIV DUP5 EQ DUP4 ISZERO OR PUSH2 0xAAD JUMPI PUSH2 0xAAC PUSH2 0x939 JUMP JUMPDEST JUMPDEST POP SWAP3 SWAP2 POP POP JUMP JUMPDEST PUSH32 0x4E487B7100000000000000000000000000000000000000000000000000000000 PUSH0 MSTORE PUSH1 0x12 PUSH1 0x4 MSTORE PUSH1 0x24 PUSH0 REVERT JUMPDEST PUSH0 PUSH2 0xAEB DUP3 PUSH2 0x813 JUMP JUMPDEST SWAP2 POP PUSH2 0xAF6 DUP4 PUSH2 0x813 JUMP JUMPDEST SWAP3 POP DUP3 PUSH2 0xB06 JUMPI PUSH2 0xB05 PUSH2 0xAB4 JUMP JUMPDEST JUMPDEST DUP3 DUP3 DIV SWAP1 POP SWAP3 SWAP2 POP POP JUMP JUMPDEST PUSH0 PUSH10 0xFFFFFFFFFFFFFFFFFFFF DUP3 AND SWAP1 POP SWAP2 SWAP1 POP JUMP JUMPDEST PUSH2 0xB2F DUP2 PUSH2 0xB11 JUMP JUMPDEST DUP2 EQ PUSH2 0xB39 JUMPI PUSH0 PUSH0 REVERT JUMPDEST POP JUMP JUMPDEST PUSH0 DUP2 MLOAD SWAP1 POP PUSH2 0xB4A DUP2 PUSH2 0xB26 JUMP JUMPDEST SWAP3 SWAP2 POP POP JUMP JUMPDEST PUSH0 DUP2 SWAP1 POP SWAP2 SWAP1 POP JUMP JUMPDEST PUSH2 0xB62 DUP2 PUSH2 0xB50 JUMP JUMPDEST DUP2 EQ PUSH2 0xB6C JUMPI PUSH0 PUSH0 REVERT JUMPDEST POP JUMP JUMPDEST PUSH0 DUP2 MLOAD SWAP1 POP PUSH2 0xB7D DUP2 PUSH2 0xB59 JUMP JUMPDEST SWAP3 SWAP2 POP POP JUMP JUMPDEST PUSH0 PUSH0 PUSH0 PUSH0 PUSH0 PUSH1 0xA0 DUP7 DUP9 SUB SLT ISZERO PUSH2 0xB9C JUMPI PUSH2 0xB9B PUSH2 0x78A JUMP JUMPDEST JUMPDEST PUSH0 PUSH2 0xBA9 DUP9 DUP3 DUP10 ADD PUSH2 0xB3C JUMP JUMPDEST SWAP6 POP POP PUSH1 0x20 PUSH2 0xBBA DUP9 DUP3 DUP10 ADD PUSH2 0xB6F JUMP JUMPDEST SWAP5 POP POP PUSH1 0x40 PUSH2 0xBCB DUP9 DUP3 DUP10 ADD PUSH2 0xA34 JUMP JUMPDEST SWAP4 POP POP PUSH1 0x60 PUSH2 0xBDC DUP9 DUP3 DUP10 ADD PUSH2 0xA34 JUMP JUMPDEST SWAP3 POP POP PUSH1 0x80 PUSH2 0xBED DUP9 DUP3 DUP10 ADD PUSH2 0xB3C JUMP JUMPDEST SWAP2 POP POP SWAP3 SWAP6 POP SWAP3 SWAP6 SWAP1 SWAP4 POP JUMP JUMPDEST PUSH0 PUSH2 0xC04 DUP3 PUSH2 0xB50 JUMP JUMPDEST SWAP2 POP PUSH2 0xC0F DUP4 PUSH2 0xB50 JUMP JUMPDEST SWAP3 POP DUP3 DUP3 MUL PUSH2 0xC1D DUP2 PUSH2 0xB50 JUMP JUMPDEST SWAP2 POP PUSH32 0x8000000000000000000000000000000000000000000000000000000000000000 DUP5 EQ PUSH0 DUP5 SLT AND ISZERO PUSH2 0xC54 JUMPI PUSH2 0xC53 PUSH2 0x939 JUMP JUMPDEST JUMPDEST DUP3 DUP3 SDIV DUP5 EQ DUP4 ISZERO OR PUSH2 0xC69 JUMPI PUSH2 0xC68 PUSH2 0x939 JUMP JUMPDEST JUMPDEST POP SWAP3 SWAP2 POP POP JUMP INVALID LOG2 PUSH5 0x6970667358 0x22 SLT KECCAK256 RETURN CREATE2 JUMPF 0x16AB PUSH24 0x38BD82EE8CB6AB102CF88356248D10E3572A79E37B4CF365 0x28 DUP15 PUSH5 0x736F6C6343 STOP ADDMOD 0x1E STOP CALLER "
				},
				"gasEstimates": {
					"creation": {
						"codeDepositCost": "647600",
						"executionCost": "infinite",
						"totalCost": "infinite"
					},
					"external": {
						"": "infinite",
						"MINIMUM_USD()": "325",
						"addressToAmountFunded(address)": "2825",
						"fund()": "infinite",
						"funders(uint256)": "5009",
						"getVerson()": "infinite",
						"i_owner()": "infinite",
						"withdraw()": "infinite"
					}
				},
				"methodIdentifiers": {
					"MINIMUM_USD()": "6b69a592",
					"addressToAmountFunded(address)": "3e47d6f3",
					"fund()": "b60d4288",
					"funders(uint256)": "dc0d3dff",
					"getVerson()": "6141c5a7",
					"i_owner()": "dba6335f",
					"withdraw()": "3ccfd60b"
				}
			},
			"storageLayout": {
				"storage": [
					{
						"astId": 121,
						"contract": "contracts/Fundme.sol:FundMe",
						"label": "funders",
						"offset": 0,
						"slot": "0",
						"type": "t_array(t_address)dyn_storage"
					},
					{
						"astId": 125,
						"contract": "contracts/Fundme.sol:FundMe",
						"label": "addressToAmountFunded",
						"offset": 0,
						"slot": "1",
						"type": "t_mapping(t_address,t_uint256)"
					}
				],
				"types": {
					"t_address": {
						"encoding": "inplace",
						"label": "address",
						"numberOfBytes": "20"
					},
					"t_array(t_address)dyn_storage": {
						"base": "t_address",
						"encoding": "dynamic_array",
						"label": "address[]",
						"numberOfBytes": "32"
					},
					"t_mapping(t_address,t_uint256)": {
						"encoding": "mapping",
						"key": "t_address",
						"label": "mapping(address => uint256)",
						"numberOfBytes": "32",
						"value": "t_uint256"
					},
					"t_uint256": {
						"encoding": "inplace",
						"label": "uint256",
						"numberOfBytes": "32"
					}
				}
			},
			"userdoc": {
				"kind": "user",
				"methods": {},
				"version": 1
			}
		}
	}
}