{"abi":[{"type":"constructor","inputs":[{"name":"bankCapacity","type":"uint256","internalType":"uint256"}],"stateMutability":"nonpayable"},{"type":"function","name":"deposit","inputs":[],"outputs":[],"stateMutability":"payable"},{"type":"function","name":"depositCount","inputs":[],"outputs":[{"name":"","type":"uint256","internalType":"uint256"}],"stateMutability":"view"},{"type":"function","name":"getContractBalance","inputs":[],"outputs":[{"name":"actualBalance","type":"uint256","internalType":"uint256"}],"stateMutability":"view"},{"type":"function","name":"getUserBalance","inputs":[{"name":"user","type":"address","internalType":"address"}],"outputs":[{"name":"","type":"uint256","internalType":"uint256"}],"stateMutability":"view"},{"type":"function","name":"i_bankCapacity","inputs":[],"outputs":[{"name":"","type":"uint256","internalType":"uint256"}],"stateMutability":"view"},{"type":"function","name":"i_maxWithdrawPerTx","inputs":[],"outputs":[{"name":"","type":"uint256","internalType":"uint256"}],"stateMutability":"view"},{"type":"function","name":"userBalance","inputs":[{"name":"","type":"address","internalType":"address"}],"outputs":[{"name":"","type":"uint256","internalType":"uint256"}],"stateMutability":"view"},{"type":"function","name":"withdraw","inputs":[{"name":"amount","type":"uint256","internalType":"uint256"}],"outputs":[],"stateMutability":"nonpayable"},{"type":"function","name":"withdrawCount","inputs":[],"outputs":[{"name":"","type":"uint256","internalType":"uint256"}],"stateMutability":"view"},{"type":"event","name":"SuccessfullyDeposited","inputs":[{"name":"user","type":"address","indexed":true,"internalType":"address"},{"name":"amount","type":"uint256","indexed":false,"internalType":"uint256"}],"anonymous":false},{"type":"event","name":"SuccessfullyWithdrawn","inputs":[{"name":"user","type":"address","indexed":true,"internalType":"address"},{"name":"amount","type":"uint256","indexed":false,"internalType":"uint256"}],"anonymous":false},{"type":"error","name":"ExceedsBankCapacity","inputs":[]},{"type":"error","name":"InsufficientBalance","inputs":[]},{"type":"error","name":"InvalidAmount","inputs":[]},{"type":"error","name":"InvalidMaxWithdrawAmount","inputs":[]}],"bytecode":{"object":"0x60c06040525f5f555f600155678ac7230489e8000060a090815250348015610025575f5ffd5b50604051610a11380380610a118339818101604052810190610047919061008c565b8060808181525050506100b7565b5f5ffd5b5f819050919050565b61006b81610059565b8114610075575f5ffd5b50565b5f8151905061008681610062565b92915050565b5f602082840312156100a1576100a0610055565b5b5f6100ae84828501610078565b91505092915050565b60805160a05161092b6100e65f395f8181610349015261059101525f818161056601526105ef015261092b5ff3fe608060405260043610610085575f3560e01c80634cc05a71116100585780634cc05a71146101535780634fe7619e1461017d5780636f9fb98a146101a7578063860108e1146101d1578063d0e30db0146101fb57610085565b80630103c92b146100895780632dfdf0b5146100c55780632e1a7d4d146100ef5780634773489214610117575b5f5ffd5b348015610094575f5ffd5b506100af60048036038101906100aa919061076a565b610205565b6040516100bc91906107ad565b60405180910390f35b3480156100d0575f5ffd5b506100d961021a565b6040516100e691906107ad565b60405180910390f35b3480156100fa575f5ffd5b50610115600480360381019061011091906107f0565b61021f565b005b348015610122575f5ffd5b5061013d6004803603810190610138919061076a565b6104a2565b60405161014a91906107ad565b60405180910390f35b34801561015e575f5ffd5b5061016761055e565b60405161017491906107ad565b60405180910390f35b348015610188575f5ffd5b50610191610564565b60405161019e91906107ad565b60405180910390f35b3480156101b2575f5ffd5b506101bb610588565b6040516101c891906107ad565b60405180910390f35b3480156101dc575f5ffd5b506101e561058f565b6040516101f291906107ad565b60405180910390f35b6102036105b3565b005b6002602052805f5260405f205f915090505481565b5f5481565b805f8103610259576040517f2c5211c600000000000000000000000000000000000000000000000000000000815260040160405180910390fd5b335f60025f8373ffffffffffffffffffffffffffffffffffffffff1673ffffffffffffffffffffffffffffffffffffffff1681526020019081526020015f2054036102d0576040517ff4d678b800000000000000000000000000000000000000000000000000000000815260040160405180910390fd5b8260025f3373ffffffffffffffffffffffffffffffffffffffff1673ffffffffffffffffffffffffffffffffffffffff1681526020019081526020015f20541015610347576040517ff4d678b800000000000000000000000000000000000000000000000000000000815260040160405180910390fd5b7f00000000000000000000000000000000000000000000000000000000000000008311156103a1576040517f0ad0cad400000000000000000000000000000000000000000000000000000000815260040160405180910390fd5b8260025f3373ffffffffffffffffffffffffffffffffffffffff1673ffffffffffffffffffffffffffffffffffffffff1681526020019081526020015f205f8282546103ed9190610848565b9250508190555060015f8154809291906104069061087b565b91905055503373ffffffffffffffffffffffffffffffffffffffff166108fc8490811502906040515f60405180830381858888f1935050505015801561044e573d5f5f3e3d5ffd5b503373ffffffffffffffffffffffffffffffffffffffff167f15773d2eebfd5229d532e45267123904f3b1510022d2d986ad2d431cb2cc88ee8460405161049591906107ad565b60405180910390a2505050565b5f5f60025f8473ffffffffffffffffffffffffffffffffffffffff1673ffffffffffffffffffffffffffffffffffffffff1681526020019081526020015f205403610519576040517ff4d678b800000000000000000000000000000000000000000000000000000000815260040160405180910390fd5b60025f8373ffffffffffffffffffffffffffffffffffffffff1673ffffffffffffffffffffffffffffffffffffffff1681526020019081526020015f20549050919050565b60015481565b7f000000000000000000000000000000000000000000000000000000000000000081565b5f47905090565b7f000000000000000000000000000000000000000000000000000000000000000081565b345f81036105ed576040517f2c5211c600000000000000000000000000000000000000000000000000000000815260040160405180910390fd5b7f0000000000000000000000000000000000000000000000000000000000000000473461061a91906108c2565b1115610652576040517ff335b18b00000000000000000000000000000000000000000000000000000000815260040160405180910390fd5b3460025f3373ffffffffffffffffffffffffffffffffffffffff1673ffffffffffffffffffffffffffffffffffffffff1681526020019081526020015f205f82825461069e91906108c2565b925050819055505f5f8154809291906106b69061087b565b91905055503373ffffffffffffffffffffffffffffffffffffffff167fa155d4cdc6e4c7c708da428e6dba018e815bce0e0e83e85449df7e3624878b2e3460405161070191906107ad565b60405180910390a250565b5f5ffd5b5f73ffffffffffffffffffffffffffffffffffffffff82169050919050565b5f61073982610710565b9050919050565b6107498161072f565b8114610753575f5ffd5b50565b5f8135905061076481610740565b92915050565b5f6020828403121561077f5761077e61070c565b5b5f61078c84828501610756565b91505092915050565b5f819050919050565b6107a781610795565b82525050565b5f6020820190506107c05f83018461079e565b92915050565b6107cf81610795565b81146107d9575f5ffd5b50565b5f813590506107ea816107c6565b92915050565b5f602082840312156108055761080461070c565b5b5f610812848285016107dc565b91505092915050565b7f4e487b71000000000000000000000000000000000000000000000000000000005f52601160045260245ffd5b5f61085282610795565b915061085d83610795565b92508282039050818111156108755761087461081b565b5b92915050565b5f61088582610795565b91507fffffffffffffffffffffffffffffffffffffffffffffffffffffffffffffffff82036108b7576108b661081b565b5b600182019050919050565b5f6108cc82610795565b91506108d783610795565b92508282019050808211156108ef576108ee61081b565b5b9291505056fea264697066735822122070ec6757a7f5ef52d95f6d6db37278c4507435194001c068c7c67c66d744fb8a64736f6c634300081e0033","linkReferences":{}},"methodIdentifiers":{"deposit()":"d0e30db0","depositCount()":"2dfdf0b5","getContractBalance()":"6f9fb98a","getUserBalance(address)":"47734892","i_bankCapacity()":"4fe7619e","i_maxWithdrawPerTx()":"860108e1","userBalance(address)":"0103c92b","withdraw(uint256)":"2e1a7d4d","withdrawCount()":"4cc05a71"},"id":0}