{"abi":[{"type":"constructor","inputs":[{"name":"bankCapacity","type":"uint256","internalType":"uint256"},{"name":"maxWithdrawPerTx","type":"uint256","internalType":"uint256"}],"stateMutability":"nonpayable"},{"type":"fallback","stateMutability":"payable"},{"type":"receive","stateMutability":"payable"},{"type":"function","name":"deposit","inputs":[],"outputs":[],"stateMutability":"payable"},{"type":"function","name":"depositCount","inputs":[],"outputs":[{"name":"","type":"uint256","internalType":"uint256"}],"stateMutability":"view"},{"type":"function","name":"getContractBalance","inputs":[],"outputs":[{"name":"actualBalance","type":"uint256","internalType":"uint256"}],"stateMutability":"view"},{"type":"function","name":"getUserBalance","inputs":[{"name":"user","type":"address","internalType":"address"}],"outputs":[{"name":"balance","type":"uint256","internalType":"uint256"}],"stateMutability":"view"},{"type":"function","name":"i_bankCapacity","inputs":[],"outputs":[{"name":"","type":"uint256","internalType":"uint256"}],"stateMutability":"view"},{"type":"function","name":"i_maxWithdrawPerTx","inputs":[],"outputs":[{"name":"","type":"uint256","internalType":"uint256"}],"stateMutability":"view"},{"type":"function","name":"userBalance","inputs":[{"name":"","type":"address","internalType":"address"}],"outputs":[{"name":"","type":"uint256","internalType":"uint256"}],"stateMutability":"view"},{"type":"function","name":"withdraw","inputs":[{"name":"amount","type":"uint256","internalType":"uint256"}],"outputs":[],"stateMutability":"nonpayable"},{"type":"function","name":"withdrawCount","inputs":[],"outputs":[{"name":"","type":"uint256","internalType":"uint256"}],"stateMutability":"view"},{"type":"event","name":"SuccessfullyDeposited","inputs":[{"name":"user","type":"address","indexed":true,"internalType":"address"},{"name":"amount","type":"uint256","indexed":false,"internalType":"uint256"}],"anonymous":false},{"type":"event","name":"SuccessfullyWithdrawn","inputs":[{"name":"user","type":"address","indexed":true,"internalType":"address"},{"name":"amount","type":"uint256","indexed":false,"internalType":"uint256"}],"anonymous":false},{"type":"error","name":"ExceedsBankCapacity","inputs":[]},{"type":"error","name":"InsufficientBalance","inputs":[]},{"type":"error","name":"InvalidAmount","inputs":[]},{"type":"error","name":"InvalidDepositPath","inputs":[]},{"type":"error","name":"InvalidMaxWithdrawAmount","inputs":[]},{"type":"error","name":"ReentrancyGuard","inputs":[]},{"type":"error","name":"TransferFailed","inputs":[]}],"bytecode":{"object":"0x60c06040526001600355348015610014575f5ffd5b50604051610afa380380610afa83398181016040528101906100369190610084565b81608081815250508060a0818152505050506100c2565b5f5ffd5b5f819050919050565b61006381610051565b811461006d575f5ffd5b50565b5f8151905061007e8161005a565b92915050565b5f5f6040838503121561009a5761009961004d565b5b5f6100a785828601610070565b92505060206100b885828601610070565b9150509250929050565b60805160a051610a096100f15f395f818161038901526104e701525f81816104bc01526107c90152610a095ff3fe608060405260043610610089575f3560e01c80634cc05a71116100585780634cc05a71146101bc5780634fe7619e146101e65780636f9fb98a14610210578063860108e11461023a578063d0e30db014610264576100c0565b80630103c92b146100f25780632dfdf0b51461012e5780632e1a7d4d146101585780634773489214610180576100c0565b366100c0576040517f1265d7a800000000000000000000000000000000000000000000000000000000815260040160405180910390fd5b6040517f1265d7a800000000000000000000000000000000000000000000000000000000815260040160405180910390fd5b3480156100fd575f5ffd5b5061011860048036038101906101139190610881565b61026e565b60405161012591906108c4565b60405180910390f35b348015610139575f5ffd5b50610142610283565b60405161014f91906108c4565b60405180910390f35b348015610163575f5ffd5b5061017e60048036038101906101799190610907565b610288565b005b34801561018b575f5ffd5b506101a660048036038101906101a19190610881565b6103f8565b6040516101b391906108c4565b60405180910390f35b3480156101c7575f5ffd5b506101d06104b4565b6040516101dd91906108c4565b60405180910390f35b3480156101f1575f5ffd5b506101fa6104ba565b60405161020791906108c4565b60405180910390f35b34801561021b575f5ffd5b506102246104de565b60405161023191906108c4565b60405180910390f35b348015610245575f5ffd5b5061024e6104e5565b60405161025b91906108c4565b60405180910390f35b61026c610509565b005b6002602052805f5260405f205f915090505481565b5f5481565b6002600354036102c4576040517f8beb9d1600000000000000000000000000000000000000000000000000000000815260040160405180910390fd5b6002600381905550805f8103610306576040517f2c5211c600000000000000000000000000000000000000000000000000000000815260040160405180910390fd5b335f60025f8373ffffffffffffffffffffffffffffffffffffffff1673ffffffffffffffffffffffffffffffffffffffff1681526020019081526020015f20540361037d576040517ff4d678b800000000000000000000000000000000000000000000000000000000815260040160405180910390fd5b61038733846105ff565b7f00000000000000000000000000000000000000000000000000000000000000008311156103e1576040517f0ad0cad400000000000000000000000000000000000000000000000000000000815260040160405180910390fd5b6103eb338461067a565b5050600160038190555050565b5f5f60025f8473ffffffffffffffffffffffffffffffffffffffff1673ffffffffffffffffffffffffffffffffffffffff1681526020019081526020015f20540361046f576040517ff4d678b800000000000000000000000000000000000000000000000000000000815260040160405180910390fd5b60025f8373ffffffffffffffffffffffffffffffffffffffff1673ffffffffffffffffffffffffffffffffffffffff1681526020019081526020015f20549050919050565b60015481565b7f000000000000000000000000000000000000000000000000000000000000000081565b5f47905090565b7f000000000000000000000000000000000000000000000000000000000000000081565b345f8103610543576040517f2c5211c600000000000000000000000000000000000000000000000000000000815260040160405180910390fd5b61054b6107c7565b3460025f3373ffffffffffffffffffffffffffffffffffffffff1673ffffffffffffffffffffffffffffffffffffffff1681526020019081526020015f205f828254610597919061095f565b925050819055505f5f81548092919060010191905055503373ffffffffffffffffffffffffffffffffffffffff167fa155d4cdc6e4c7c708da428e6dba018e815bce0e0e83e85449df7e3624878b2e346040516105f491906108c4565b60405180910390a250565b8060025f8473ffffffffffffffffffffffffffffffffffffffff1673ffffffffffffffffffffffffffffffffffffffff1681526020019081526020015f20541015610676576040517ff4d678b800000000000000000000000000000000000000000000000000000000815260040160405180910390fd5b5050565b8060025f8473ffffffffffffffffffffffffffffffffffffffff1673ffffffffffffffffffffffffffffffffffffffff1681526020019081526020015f205f828254039250508190555060015f81548092919060010191905055505f8273ffffffffffffffffffffffffffffffffffffffff16826040516106fa906109bf565b5f6040518083038185875af1925050503d805f8114610734576040519150601f19603f3d011682016040523d82523d5f602084013e610739565b606091505b5050905080610774576040517f90b8ec1800000000000000000000000000000000000000000000000000000000815260040160405180910390fd5b8273ffffffffffffffffffffffffffffffffffffffff167f15773d2eebfd5229d532e45267123904f3b1510022d2d986ad2d431cb2cc88ee836040516107ba91906108c4565b60405180910390a2505050565b7f0000000000000000000000000000000000000000000000000000000000000000471115610821576040517ff335b18b00000000000000000000000000000000000000000000000000000000815260040160405180910390fd5b565b5f5ffd5b5f73ffffffffffffffffffffffffffffffffffffffff82169050919050565b5f61085082610827565b9050919050565b61086081610846565b811461086a575f5ffd5b50565b5f8135905061087b81610857565b92915050565b5f6020828403121561089657610895610823565b5b5f6108a38482850161086d565b91505092915050565b5f819050919050565b6108be816108ac565b82525050565b5f6020820190506108d75f8301846108b5565b92915050565b6108e6816108ac565b81146108f0575f5ffd5b50565b5f81359050610901816108dd565b92915050565b5f6020828403121561091c5761091b610823565b5b5f610929848285016108f3565b91505092915050565b7f4e487b71000000000000000000000000000000000000000000000000000000005f52601160045260245ffd5b5f610969826108ac565b9150610974836108ac565b925082820190508082111561098c5761098b610932565b5b92915050565b5f81905092915050565b50565b5f6109aa5f83610992565b91506109b58261099c565b5f82019050919050565b5f6109c98261099f565b915081905091905056fea264697066735822122039e9c0e3930b0f907aa18e225a533c3f9ff438c833c8df05a0de5a4bc090df4d64736f6c634300081e0033","linkReferences":{}},"methodIdentifiers":{"deposit()":"d0e30db0","depositCount()":"2dfdf0b5","getContractBalance()":"6f9fb98a","getUserBalance(address)":"47734892","i_bankCapacity()":"4fe7619e","i_maxWithdrawPerTx()":"860108e1","userBalance(address)":"0103c92b","withdraw(uint256)":"2e1a7d4d","withdrawCount()":"4cc05a71"},"id":0}