{"abi":[{"type":"constructor","inputs":[{"name":"proposalNames","type":"string[3]","internalType":"string[3]"}],"stateMutability":"nonpayable"},{"type":"function","name":"currentPhase","inputs":[],"outputs":[{"name":"","type":"uint8","internalType":"enum Projeto_2.Phase"}],"stateMutability":"view"},{"type":"function","name":"endVotingPhase","inputs":[],"outputs":[],"stateMutability":"nonpayable"},{"type":"function","name":"hasVoted","inputs":[{"name":"","type":"address","internalType":"address"}],"outputs":[{"name":"","type":"bool","internalType":"bool"}],"stateMutability":"view"},{"type":"function","name":"i_admin","inputs":[],"outputs":[{"name":"","type":"address","internalType":"address"}],"stateMutability":"view"},{"type":"function","name":"proposalWinner","inputs":[],"outputs":[{"name":"winnerNames_","type":"string[]","internalType":"string[]"}],"stateMutability":"view"},{"type":"function","name":"proposals","inputs":[{"name":"","type":"uint256","internalType":"uint256"}],"outputs":[{"name":"name","type":"string","internalType":"string"},{"name":"voteCount","type":"uint256","internalType":"uint256"}],"stateMutability":"view"},{"type":"function","name":"startVotingPhase","inputs":[],"outputs":[],"stateMutability":"nonpayable"},{"type":"function","name":"vote","inputs":[{"name":"proposalIndex","type":"uint256","internalType":"uint256"}],"outputs":[],"stateMutability":"nonpayable"},{"type":"function","name":"voteContinue","inputs":[],"outputs":[],"stateMutability":"nonpayable"},{"type":"event","name":"Closure","inputs":[],"anonymous":false},{"type":"event","name":"Opening","inputs":[],"anonymous":false},{"type":"event","name":"RestartingVotingPhase","inputs":[],"anonymous":false},{"type":"event","name":"Voted","inputs":[{"name":"voter","type":"address","indexed":true,"internalType":"address"},{"name":"proposalIndex","type":"uint256","indexed":true,"internalType":"uint256"}],"anonymous":false},{"type":"error","name":"AlreadyVoted","inputs":[]},{"type":"error","name":"IndexOutOfBounds","inputs":[]},{"type":"error","name":"OnlyAdminCanCallThisFunction","inputs":[]},{"type":"error","name":"PhaseError","inputs":[]}],"bytecode":{"object":"0x60a060405234801561000f575f5ffd5b5060405161170138038061170183398181016040528101906100319190610340565b3373ffffffffffffffffffffffffffffffffffffffff1660808173ffffffffffffffffffffffffffffffffffffffff16815250505f5f90505b60038110156100f3575f604051806040016040528084846003811061009257610091610387565b5b602002015181526020015f815250908060018154018082558091505060019003905f5260205f2090600202015f909190919091505f820151815f0190816100d991906105c4565b50602082015181600101555050808060010191505061006a565b505f60035f6101000a81548160ff0219169083600381111561011857610117610693565b5b0217905550506106c0565b5f604051905090565b5f5ffd5b5f5ffd5b5f5ffd5b5f601f19601f8301169050919050565b7f4e487b71000000000000000000000000000000000000000000000000000000005f52604160045260245ffd5b61017e82610138565b810181811067ffffffffffffffff8211171561019d5761019c610148565b5b80604052505050565b5f6101af610123565b90506101bb8282610175565b919050565b5f67ffffffffffffffff8211156101da576101d9610148565b5b602082029050919050565b5f5ffd5b5f5ffd5b5f67ffffffffffffffff82111561020757610206610148565b5b61021082610138565b9050602081019050919050565b8281835e5f83830152505050565b5f61023d610238846101ed565b6101a6565b905082815260208101848484011115610259576102586101e9565b5b61026484828561021d565b509392505050565b5f82601f8301126102805761027f610134565b5b815161029084826020860161022b565b91505092915050565b5f6102ab6102a6846101c0565b6101a6565b905080602084028301858111156102c5576102c46101e5565b5b835b8181101561030c57805167ffffffffffffffff8111156102ea576102e9610134565b5b8086016102f7898261026c565b855260208501945050506020810190506102c7565b5050509392505050565b5f82601f83011261032a57610329610134565b5b6003610337848285610299565b91505092915050565b5f602082840312156103555761035461012c565b5b5f82015167ffffffffffffffff81111561037257610371610130565b5b61037e84828501610316565b91505092915050565b7f4e487b71000000000000000000000000000000000000000000000000000000005f52603260045260245ffd5b5f81519050919050565b7f4e487b71000000000000000000000000000000000000000000000000000000005f52602260045260245ffd5b5f600282049050600182168061040257607f821691505b602082108103610415576104146103be565b5b50919050565b5f819050815f5260205f209050919050565b5f6020601f8301049050919050565b5f82821b905092915050565b5f600883026104777fffffffffffffffffffffffffffffffffffffffffffffffffffffffffffffffff8261043c565b610481868361043c565b95508019841693508086168417925050509392505050565b5f819050919050565b5f819050919050565b5f6104c56104c06104bb84610499565b6104a2565b610499565b9050919050565b5f819050919050565b6104de836104ab565b6104f26104ea826104cc565b848454610448565b825550505050565b5f5f905090565b6105096104fa565b6105148184846104d5565b505050565b5b818110156105375761052c5f82610501565b60018101905061051a565b5050565b601f82111561057c5761054d8161041b565b6105568461042d565b81016020851015610565578190505b6105796105718561042d565b830182610519565b50505b505050565b5f82821c905092915050565b5f61059c5f1984600802610581565b1980831691505092915050565b5f6105b4838361058d565b9150826002028217905092915050565b6105cd826103b4565b67ffffffffffffffff8111156105e6576105e5610148565b5b6105f082546103eb565b6105fb82828561053b565b5f60209050601f83116001811461062c575f841561061a578287015190505b61062485826105a9565b86555061068b565b601f19841661063a8661041b565b5f5b828110156106615784890151825560018201915060208501945060208101905061063c565b8683101561067e578489015161067a601f89168261058d565b8355505b6001600288020188555050505b505050505050565b7f4e487b71000000000000000000000000000000000000000000000000000000005f52602160045260245ffd5b6080516110146106ed5f395f81816107270152818161074b0152818161089601526109e101526110145ff3fe608060405234801561000f575f5ffd5b5060043610610091575f3560e01c806311a54e2f1161006457806311a54e2f146101305780634c43d2841461014e578063a300e2241461016c578063b20216da14610176578063cb43284e1461018057610091565b80630121b93f14610095578063013cf08b146100b1578063055ad42e146100e257806309eef43e14610100575b5f5ffd5b6100af60048036038101906100aa9190610b60565b61018a565b005b6100cb60048036038101906100c69190610b60565b61038b565b6040516100d9929190610c0a565b60405180910390f35b6100ea61043f565b6040516100f79190610cab565b60405180910390f35b61011a60048036038101906101159190610d1e565b610451565b6040516101279190610d63565b60405180910390f35b61013861046e565b6040516101459190610e7f565b60405180910390f35b610156610725565b6040516101639190610eae565b60405180910390f35b610174610749565b005b61017e610894565b005b6101886109df565b005b600160035f9054906101000a900460ff1660038111156101ad576101ac610c38565b5b8160038111156101c0576101bf610c38565b5b146101f7576040517f3996cb9300000000000000000000000000000000000000000000000000000000815260040160405180910390fd5b60025f3373ffffffffffffffffffffffffffffffffffffffff1673ffffffffffffffffffffffffffffffffffffffff1681526020019081526020015f205f9054906101000a900460ff1615610278576040517f7c9a1cf900000000000000000000000000000000000000000000000000000000815260040160405180910390fd5b5f8054905082106102b5576040517f4e23d03500000000000000000000000000000000000000000000000000000000815260040160405180910390fd5b600160025f3373ffffffffffffffffffffffffffffffffffffffff1673ffffffffffffffffffffffffffffffffffffffff1681526020019081526020015f205f6101000a81548160ff02191690831515021790555060015f838154811061031f5761031e610ec7565b5b905f5260205f2090600202016001015f82825461033c9190610f21565b92505081905550813373ffffffffffffffffffffffffffffffffffffffff167f4d99b957a2bc29a30ebd96a7be8e68fe50a3c701db28a91436490b7d53870ca460405160405180910390a35050565b5f8181548110610399575f80fd5b905f5260205f2090600202015f91509050805f0180546103b890610f81565b80601f01602080910402602001604051908101604052809291908181526020018280546103e490610f81565b801561042f5780601f106104065761010080835404028352916020019161042f565b820191905f5260205f20905b81548152906001019060200180831161041257829003601f168201915b5050505050908060010154905082565b60035f9054906101000a900460ff1681565b6002602052805f5260405f205f915054906101000a900460ff1681565b6060600260035f9054906101000a900460ff16600381111561049357610492610c38565b5b8160038111156104a6576104a5610c38565b5b146104dd576040517f3996cb9300000000000000000000000000000000000000000000000000000000815260040160405180910390fd5b5f5f90505f5f90505b5f8054905081101561054f57815f828154811061050657610505610ec7565b5b905f5260205f209060020201600101541115610542575f818154811061052f5761052e610ec7565b5b905f5260205f2090600202016001015491505b80806001019150506104e6565b505f5f90505f5f90505b5f805490508110156105ab57825f828154811061057957610578610ec7565b5b905f5260205f209060020201600101540361059e5760018261059b9190610f21565b91505b8080600101915050610559565b508067ffffffffffffffff8111156105c6576105c5610fb1565b5b6040519080825280602002602001820160405280156105f957816020015b60608152602001906001900390816105e45790505b5093505f5f90505f5f90505b5f8054905081101561071d57835f828154811061062557610624610ec7565b5b905f5260205f2090600202016001015403610710575f818154811061064d5761064c610ec7565b5b905f5260205f2090600202015f01805461066690610f81565b80601f016020809104026020016040519081016040528092919081815260200182805461069290610f81565b80156106dd5780601f106106b4576101008083540402835291602001916106dd565b820191905f5260205f20905b8154815290600101906020018083116106c057829003601f168201915b50505050508683815181106106f5576106f4610ec7565b5b602002602001018190525060018261070d9190610f21565b91505b8080600101915050610605565b505050505090565b7f000000000000000000000000000000000000000000000000000000000000000081565b7f000000000000000000000000000000000000000000000000000000000000000073ffffffffffffffffffffffffffffffffffffffff163373ffffffffffffffffffffffffffffffffffffffff16146107ce576040517f4eefa73c00000000000000000000000000000000000000000000000000000000815260040160405180910390fd5b600160035f9054906101000a900460ff1660038111156107f1576107f0610c38565b5b81600381111561080457610803610c38565b5b1461083b576040517f3996cb9300000000000000000000000000000000000000000000000000000000815260040160405180910390fd5b600260035f6101000a81548160ff021916908360038111156108605761085f610c38565b5b02179055507f0a5329b51241310d9116550aa284b8a640cf4c0bf86285bc305441f13944349c60405160405180910390a150565b7f000000000000000000000000000000000000000000000000000000000000000073ffffffffffffffffffffffffffffffffffffffff163373ffffffffffffffffffffffffffffffffffffffff1614610919576040517f4eefa73c00000000000000000000000000000000000000000000000000000000815260040160405180910390fd5b600260035f9054906101000a900460ff16600381111561093c5761093b610c38565b5b81600381111561094f5761094e610c38565b5b14610986576040517f3996cb9300000000000000000000000000000000000000000000000000000000815260040160405180910390fd5b600160035f6101000a81548160ff021916908360038111156109ab576109aa610c38565b5b02179055507f906b4948bb13cc0d409e982b8faec69e3212446f1543dc95ad81049e39aada0760405160405180910390a150565b7f000000000000000000000000000000000000000000000000000000000000000073ffffffffffffffffffffffffffffffffffffffff163373ffffffffffffffffffffffffffffffffffffffff1614610a64576040517f4eefa73c00000000000000000000000000000000000000000000000000000000815260040160405180910390fd5b5f60035f9054906101000a900460ff166003811115610a8657610a85610c38565b5b816003811115610a9957610a98610c38565b5b14610ad0576040517f3996cb9300000000000000000000000000000000000000000000000000000000815260040160405180910390fd5b600160035f6101000a81548160ff02191690836003811115610af557610af4610c38565b5b02179055507f2e4c6d3abda9e5f7c7f0202025caee0b434ec221745824760df63b55e0d15b4560405160405180910390a150565b5f5ffd5b5f819050919050565b610b3f81610b2d565b8114610b49575f5ffd5b50565b5f81359050610b5a81610b36565b92915050565b5f60208284031215610b7557610b74610b29565b5b5f610b8284828501610b4c565b91505092915050565b5f81519050919050565b5f82825260208201905092915050565b8281835e5f83830152505050565b5f601f19601f8301169050919050565b5f610bcd82610b8b565b610bd78185610b95565b9350610be7818560208601610ba5565b610bf081610bb3565b840191505092915050565b610c0481610b2d565b82525050565b5f6040820190508181035f830152610c228185610bc3565b9050610c316020830184610bfb565b9392505050565b7f4e487b71000000000000000000000000000000000000000000000000000000005f52602160045260245ffd5b60048110610c7657610c75610c38565b5b50565b5f819050610c8682610c65565b919050565b5f610c9582610c79565b9050919050565b610ca581610c8b565b82525050565b5f602082019050610cbe5f830184610c9c565b92915050565b5f73ffffffffffffffffffffffffffffffffffffffff82169050919050565b5f610ced82610cc4565b9050919050565b610cfd81610ce3565b8114610d07575f5ffd5b50565b5f81359050610d1881610cf4565b92915050565b5f60208284031215610d3357610d32610b29565b5b5f610d4084828501610d0a565b91505092915050565b5f8115159050919050565b610d5d81610d49565b82525050565b5f602082019050610d765f830184610d54565b92915050565b5f81519050919050565b5f82825260208201905092915050565b5f819050602082019050919050565b5f82825260208201905092915050565b5f610dbf82610b8b565b610dc98185610da5565b9350610dd9818560208601610ba5565b610de281610bb3565b840191505092915050565b5f610df88383610db5565b905092915050565b5f602082019050919050565b5f610e1682610d7c565b610e208185610d86565b935083602082028501610e3285610d96565b805f5b85811015610e6d5784840389528151610e4e8582610ded565b9450610e5983610e00565b925060208a01995050600181019050610e35565b50829750879550505050505092915050565b5f6020820190508181035f830152610e978184610e0c565b905092915050565b610ea881610ce3565b82525050565b5f602082019050610ec15f830184610e9f565b92915050565b7f4e487b71000000000000000000000000000000000000000000000000000000005f52603260045260245ffd5b7f4e487b71000000000000000000000000000000000000000000000000000000005f52601160045260245ffd5b5f610f2b82610b2d565b9150610f3683610b2d565b9250828201905080821115610f4e57610f4d610ef4565b5b92915050565b7f4e487b71000000000000000000000000000000000000000000000000000000005f52602260045260245ffd5b5f6002820490506001821680610f9857607f821691505b602082108103610fab57610faa610f54565b5b50919050565b7f4e487b71000000000000000000000000000000000000000000000000000000005f52604160045260245ffdfea26469706673582212204d94c53180ead0b382bee0e2c878f1ceffb3b6a5b8c8dd4a06c86896b56bfdf564736f6c634300081e0033","linkReferences":{}},"methodIdentifiers":{"currentPhase()":"055ad42e","endVotingPhase()":"a300e224","hasVoted(address)":"09eef43e","i_admin()":"4c43d284","proposalWinner()":"11a54e2f","proposals(uint256)":"013cf08b","startVotingPhase()":"cb43284e","vote(uint256)":"0121b93f","voteContinue()":"b20216da"},"id":0}