{"abi":[{"type":"constructor","inputs":[{"name":"proposalNames","type":"string[]","internalType":"string[]"}],"stateMutability":"nonpayable"},{"type":"function","name":"currentPhase","inputs":[],"outputs":[{"name":"","type":"uint8","internalType":"enum Projeto_2.Phase"}],"stateMutability":"view"},{"type":"function","name":"endVotingPhase","inputs":[],"outputs":[],"stateMutability":"nonpayable"},{"type":"function","name":"getProposals","inputs":[],"outputs":[{"name":"list","type":"tuple[]","internalType":"struct Projeto_2.Proposal[]","components":[{"name":"name","type":"string","internalType":"string"},{"name":"voteCount","type":"uint256","internalType":"uint256"}]}],"stateMutability":"view"},{"type":"function","name":"i_admin","inputs":[],"outputs":[{"name":"","type":"address","internalType":"address"}],"stateMutability":"view"},{"type":"function","name":"proposals","inputs":[{"name":"","type":"uint256","internalType":"uint256"}],"outputs":[{"name":"name","type":"string","internalType":"string"},{"name":"voteCount","type":"uint256","internalType":"uint256"}],"stateMutability":"view"},{"type":"function","name":"roundId","inputs":[],"outputs":[{"name":"","type":"uint256","internalType":"uint256"}],"stateMutability":"view"},{"type":"function","name":"startVotingPhase","inputs":[],"outputs":[],"stateMutability":"nonpayable"},{"type":"function","name":"vote","inputs":[{"name":"proposalIndex","type":"uint256","internalType":"uint256"}],"outputs":[],"stateMutability":"nonpayable"},{"type":"function","name":"voteContinue","inputs":[{"name":"newProposalNames","type":"string[]","internalType":"string[]"}],"outputs":[],"stateMutability":"nonpayable"},{"type":"function","name":"votedRound","inputs":[{"name":"","type":"address","internalType":"address"}],"outputs":[{"name":"","type":"uint256","internalType":"uint256"}],"stateMutability":"view"},{"type":"function","name":"winner","inputs":[],"outputs":[{"name":"","type":"string[]","internalType":"string[]"}],"stateMutability":"view"},{"type":"function","name":"winners","inputs":[{"name":"","type":"uint256","internalType":"uint256"}],"outputs":[{"name":"","type":"string","internalType":"string"}],"stateMutability":"view"},{"type":"event","name":"Closure","inputs":[{"name":"roundId","type":"uint256","indexed":true,"internalType":"uint256"},{"name":"highestVoteCount","type":"uint256","indexed":false,"internalType":"uint256"},{"name":"winnersCount","type":"uint256","indexed":false,"internalType":"uint256"}],"anonymous":false},{"type":"event","name":"Opening","inputs":[{"name":"roundId","type":"uint256","indexed":true,"internalType":"uint256"}],"anonymous":false},{"type":"event","name":"RestartingVotingPhase","inputs":[{"name":"newRoundId","type":"uint256","indexed":true,"internalType":"uint256"}],"anonymous":false},{"type":"event","name":"Voted","inputs":[{"name":"voter","type":"address","indexed":true,"internalType":"address"},{"name":"proposalIndex","type":"uint256","indexed":true,"internalType":"uint256"},{"name":"roundId","type":"uint256","indexed":true,"internalType":"uint256"}],"anonymous":false},{"type":"error","name":"AlreadyVoted","inputs":[]},{"type":"error","name":"EmptyProposalList","inputs":[]},{"type":"error","name":"IndexOutOfBounds","inputs":[]},{"type":"error","name":"OnlyAdminCanCallThisFunction","inputs":[]},{"type":"error","name":"PhaseError","inputs":[{"name":"expected","type":"uint8","internalType":"enum Projeto_2.Phase"},{"name":"actual","type":"uint8","internalType":"enum Projeto_2.Phase"}]}],"bytecode":{"object":"0x60a060405234801561000f575f5ffd5b5060405161257438038061257483398181016040528101906100319190610496565b5f81510361006b576040517f533db85d00000000000000000000000000000000000000000000000000000000815260040160405180910390fd5b3373ffffffffffffffffffffffffffffffffffffffff1660808173ffffffffffffffffffffffffffffffffffffffff16815250506100ae816100e560201b60201c565b5f60045f6101000a81548160ff021916908360038111156100d2576100d16104dd565b5b0217905550600160028190555050610816565b5f5f6100f191906101c2565b5f815190505f810361012f576040517f533db85d00000000000000000000000000000000000000000000000000000000815260040160405180910390fd5b5f5f90505b818110156101bd575f604051806040016040528085848151811061015b5761015a61050a565b5b602002602001015181526020015f815250908060018154018082558091505060019003905f5260205f2090600202015f909190919091505f820151815f0190816101a59190610747565b50602082015181600101555050806001019050610134565b505050565b5080545f8255600202905f5260205f20908101906101e091906101e3565b50565b5b8082111561020b575f5f82015f6101fb919061020f565b600182015f9055506002016101e4565b5090565b50805461021b9061056e565b5f825580601f1061022c5750610249565b601f0160209004905f5260205f2090810190610248919061024c565b5b50565b5b80821115610263575f815f90555060010161024d565b5090565b5f604051905090565b5f5ffd5b5f5ffd5b5f5ffd5b5f601f19601f8301169050919050565b7f4e487b71000000000000000000000000000000000000000000000000000000005f52604160045260245ffd5b6102c28261027c565b810181811067ffffffffffffffff821117156102e1576102e061028c565b5b80604052505050565b5f6102f3610267565b90506102ff82826102b9565b919050565b5f67ffffffffffffffff82111561031e5761031d61028c565b5b602082029050602081019050919050565b5f5ffd5b5f5ffd5b5f67ffffffffffffffff8211156103515761035061028c565b5b61035a8261027c565b9050602081019050919050565b8281835e5f83830152505050565b5f61038761038284610337565b6102ea565b9050828152602081018484840111156103a3576103a2610333565b5b6103ae848285610367565b509392505050565b5f82601f8301126103ca576103c9610278565b5b81516103da848260208601610375565b91505092915050565b5f6103f56103f084610304565b6102ea565b905080838252602082019050602084028301858111156104185761041761032f565b5b835b8181101561045f57805167ffffffffffffffff81111561043d5761043c610278565b5b80860161044a89826103b6565b8552602085019450505060208101905061041a565b5050509392505050565b5f82601f83011261047d5761047c610278565b5b815161048d8482602086016103e3565b91505092915050565b5f602082840312156104ab576104aa610270565b5b5f82015167ffffffffffffffff8111156104c8576104c7610274565b5b6104d484828501610469565b91505092915050565b7f4e487b71000000000000000000000000000000000000000000000000000000005f52602160045260245ffd5b7f4e487b71000000000000000000000000000000000000000000000000000000005f52603260045260245ffd5b5f81519050919050565b7f4e487b71000000000000000000000000000000000000000000000000000000005f52602260045260245ffd5b5f600282049050600182168061058557607f821691505b60208210810361059857610597610541565b5b50919050565b5f819050815f5260205f209050919050565b5f6020601f8301049050919050565b5f82821b905092915050565b5f600883026105fa7fffffffffffffffffffffffffffffffffffffffffffffffffffffffffffffffff826105bf565b61060486836105bf565b95508019841693508086168417925050509392505050565b5f819050919050565b5f819050919050565b5f61064861064361063e8461061c565b610625565b61061c565b9050919050565b5f819050919050565b6106618361062e565b61067561066d8261064f565b8484546105cb565b825550505050565b5f5f905090565b61068c61067d565b610697818484610658565b505050565b5b818110156106ba576106af5f82610684565b60018101905061069d565b5050565b601f8211156106ff576106d08161059e565b6106d9846105b0565b810160208510156106e8578190505b6106fc6106f4856105b0565b83018261069c565b50505b505050565b5f82821c905092915050565b5f61071f5f1984600802610704565b1980831691505092915050565b5f6107378383610710565b9150826002028217905092915050565b61075082610537565b67ffffffffffffffff8111156107695761076861028c565b5b610773825461056e565b61077e8282856106be565b5f60209050601f8311600181146107af575f841561079d578287015190505b6107a7858261072c565b86555061080e565b601f1984166107bd8661059e565b5f5b828110156107e4578489015182556001820191506020850194506020810190506107bf565b8683101561080157848901516107fd601f891682610710565b8355505b6001600288020188555050505b505050505050565b608051611d316108435f395f81816104d701528181610705015281816108c40152610a2c0152611d315ff3fe608060405234801561000f575f5ffd5b50600436106100b2575f3560e01c80638cd221c91161006f5780638cd221c91461018d578063a2fb1175146101ab578063a300e224146101db578063cb43284e146101e5578063d4c58224146101ef578063dfbf53ae1461020b576100b2565b80630121b93f146100b6578063013cf08b146100d2578063055ad42e1461010357806328ed966b146101215780634c43d2841461015157806362564c481461016f575b5f5ffd5b6100d060048036038101906100cb91906111bf565b610229565b005b6100ec60048036038101906100e791906111bf565b6103fa565b6040516100fa929190611269565b60405180910390f35b61010b6104ae565b604051610118919061130a565b60405180910390f35b61013b6004803603810190610136919061137d565b6104c0565b60405161014891906113a8565b60405180910390f35b6101596104d5565b60405161016691906113d0565b60405180910390f35b6101776104f9565b6040516101849190611535565b60405180910390f35b610195610657565b6040516101a291906113a8565b60405180910390f35b6101c560048036038101906101c091906111bf565b61065d565b6040516101d29190611555565b60405180910390f35b6101e3610703565b005b6101ed6108c2565b005b61020960048036038101906102049190611783565b610a2a565b005b610213610b88565b6040516102209190611885565b60405180910390f35b600160045f9054906101000a900460ff16600381111561024c5761024b611297565b5b81600381111561025f5761025e611297565b5b146102b1578060045f9054906101000a900460ff166040517f4828a50b0000000000000000000000000000000000000000000000000000000081526004016102a89291906118a5565b60405180910390fd5b6102ba82610d0d565b60025460035f3373ffffffffffffffffffffffffffffffffffffffff1673ffffffffffffffffffffffffffffffffffffffff1681526020019081526020015f205403610332576040517f7c9a1cf900000000000000000000000000000000000000000000000000000000815260040160405180910390fd5b60025460035f3373ffffffffffffffffffffffffffffffffffffffff1673ffffffffffffffffffffffffffffffffffffffff1681526020019081526020015f208190555060015f838154811061038b5761038a6118cc565b5b905f5260205f2090600202016001015f8282546103a89190611926565b92505081905550600254823373ffffffffffffffffffffffffffffffffffffffff167fea66f58e474bc09f580000e81f31b334d171db387d0c6098ba47bd897741679b60405160405180910390a45050565b5f8181548110610408575f80fd5b905f5260205f2090600202015f91509050805f01805461042790611986565b80601f016020809104026020016040519081016040528092919081815260200182805461045390611986565b801561049e5780601f106104755761010080835404028352916020019161049e565b820191905f5260205f20905b81548152906001019060200180831161048157829003601f168201915b5050505050908060010154905082565b60045f9054906101000a900460ff1681565b6003602052805f5260405f205f915090505481565b7f000000000000000000000000000000000000000000000000000000000000000081565b60605f5f8054905090508067ffffffffffffffff81111561051d5761051c611579565b5b60405190808252806020026020018201604052801561055657816020015b610543611025565b81526020019060019003908161053b5790505b5091505f5f90505b81811015610652575f8181548110610579576105786118cc565b5b905f5260205f2090600202016040518060400160405290815f8201805461059f90611986565b80601f01602080910402602001604051908101604052809291908181526020018280546105cb90611986565b80156106165780601f106105ed57610100808354040283529160200191610616565b820191905f5260205f20905b8154815290600101906020018083116105f957829003601f168201915b5050505050815260200160018201548152505083828151811061063c5761063b6118cc565b5b602002602001018190525080600101905061055e565b505090565b60025481565b6001818154811061066c575f80fd5b905f5260205f20015f91509050805461068490611986565b80601f01602080910402602001604051908101604052809291908181526020018280546106b090611986565b80156106fb5780601f106106d2576101008083540402835291602001916106fb565b820191905f5260205f20905b8154815290600101906020018083116106de57829003601f168201915b505050505081565b7f000000000000000000000000000000000000000000000000000000000000000073ffffffffffffffffffffffffffffffffffffffff163373ffffffffffffffffffffffffffffffffffffffff1614610788576040517f4eefa73c00000000000000000000000000000000000000000000000000000000815260040160405180910390fd5b600160045f9054906101000a900460ff1660038111156107ab576107aa611297565b5b8160038111156107be576107bd611297565b5b14610810578060045f9054906101000a900460ff166040517f4828a50b0000000000000000000000000000000000000000000000000000000081526004016108079291906118a5565b60405180910390fd5b5f5f61081a610d4d565b915091506108288282610dc8565b6001908051906020019061083d92919061103e565b506001808054905011610851576002610854565b60035b60045f6101000a81548160ff0219169083600381111561087757610876611297565b5b02179055506002547f681ebfc4fa2d596c2a12a73605267a661d107e6c212899bd5b21d4ebe807c166836001805490506040516108b59291906119b6565b60405180910390a2505050565b7f000000000000000000000000000000000000000000000000000000000000000073ffffffffffffffffffffffffffffffffffffffff163373ffffffffffffffffffffffffffffffffffffffff1614610947576040517f4eefa73c00000000000000000000000000000000000000000000000000000000815260040160405180910390fd5b5f60045f9054906101000a900460ff16600381111561096957610968611297565b5b81600381111561097c5761097b611297565b5b146109ce578060045f9054906101000a900460ff166040517f4828a50b0000000000000000000000000000000000000000000000000000000081526004016109c59291906118a5565b60405180910390fd5b600160045f6101000a81548160ff021916908360038111156109f3576109f2611297565b5b02179055506002547fc87af711e7f1d4625591a1b880d3cc95d22bdbfc7680895a30fc160a064aad7a60405160405180910390a250565b7f000000000000000000000000000000000000000000000000000000000000000073ffffffffffffffffffffffffffffffffffffffff163373ffffffffffffffffffffffffffffffffffffffff1614610aaf576040517f4eefa73c00000000000000000000000000000000000000000000000000000000815260040160405180910390fd5b5f81511115610ac657610ac181610f48565b610b10565b5f5f8054905090505f5f90505b81811015610b0d575f5f8281548110610aef57610aee6118cc565b5b905f5260205f20906002020160010181905550806001019050610ad3565b50505b60015f610b1d9190611095565b60025f815460010191905081905550600160045f6101000a81548160ff02191690836003811115610b5157610b50611297565b5b02179055506002547f5cbbe8e697170d36a379668b51f7493703c32a5811f2073d1cdc2206cb76605a60405160405180910390a250565b606060026003811115610b9e57610b9d611297565b5b60045f9054906101000a900460ff166003811115610bbf57610bbe611297565b5b1480610bfc5750600380811115610bd957610bd8611297565b5b60045f9054906101000a900460ff166003811115610bfa57610bf9611297565b5b145b610c3b576040517f08c379a0000000000000000000000000000000000000000000000000000000008152600401610c3290611a27565b60405180910390fd5b6001805480602002602001604051908101604052809291908181526020015f905b82821015610d04578382905f5260205f20018054610c7990611986565b80601f0160208091040260200160405190810160405280929190818152602001828054610ca590611986565b8015610cf05780601f10610cc757610100808354040283529160200191610cf0565b820191905f5260205f20905b815481529060010190602001808311610cd357829003601f168201915b505050505081526020019060010190610c5c565b50505050905090565b5f805490508110610d4a576040517f4e23d03500000000000000000000000000000000000000000000000000000000815260040160405180910390fd5b50565b5f5f5f5f8054905090505f5f90505b81811015610dc2575f5f8281548110610d7857610d776118cc565b5b905f5260205f20906002020160010154905084811115610d9e5780945060019350610db6565b848103610db557600184610db29190611926565b93505b5b81600101915050610d5c565b50509091565b60608167ffffffffffffffff811115610de457610de3611579565b5b604051908082528060200260200182016040528015610e1757816020015b6060815260200190600190039081610e025790505b5090505f5f5f8054905090505f5f90505b81811015610f3f57855f8281548110610e4457610e436118cc565b5b905f5260205f2090600202016001015403610f34575f8181548110610e6c57610e6b6118cc565b5b905f5260205f2090600202015f018054610e8590611986565b80601f0160208091040260200160405190810160405280929190818152602001828054610eb190611986565b8015610efc5780601f10610ed357610100808354040283529160200191610efc565b820191905f5260205f20905b815481529060010190602001808311610edf57829003601f168201915b5050505050848480610f0d90611a45565b955081518110610f2057610f1f6118cc565b5b602002602001018190525084830315610f3f575b806001019050610e28565b50505092915050565b5f5f610f5491906110b3565b5f815190505f8103610f92576040517f533db85d00000000000000000000000000000000000000000000000000000000815260040160405180910390fd5b5f5f90505b81811015611020575f6040518060400160405280858481518110610fbe57610fbd6118cc565b5b602002602001015181526020015f815250908060018154018082558091505060019003905f5260205f2090600202015f909190919091505f820151815f0190816110089190611c2c565b50602082015181600101555050806001019050610f97565b505050565b6040518060400160405280606081526020015f81525090565b828054828255905f5260205f20908101928215611084579160200282015b828111156110835782518290816110739190611c2c565b509160200191906001019061105c565b5b50905061109191906110d4565b5090565b5080545f8255905f5260205f20908101906110b091906110d4565b50565b5080545f8255600202905f5260205f20908101906110d191906110f7565b50565b5b808211156110f3575f81816110ea9190611123565b506001016110d5565b5090565b5b8082111561111f575f5f82015f61110f9190611123565b600182015f9055506002016110f8565b5090565b50805461112f90611986565b5f825580601f10611140575061115d565b601f0160209004905f5260205f209081019061115c9190611160565b5b50565b5b80821115611177575f815f905550600101611161565b5090565b5f604051905090565b5f5ffd5b5f5ffd5b5f819050919050565b61119e8161118c565b81146111a8575f5ffd5b50565b5f813590506111b981611195565b92915050565b5f602082840312156111d4576111d3611184565b5b5f6111e1848285016111ab565b91505092915050565b5f81519050919050565b5f82825260208201905092915050565b8281835e5f83830152505050565b5f601f19601f8301169050919050565b5f61122c826111ea565b61123681856111f4565b9350611246818560208601611204565b61124f81611212565b840191505092915050565b6112638161118c565b82525050565b5f6040820190508181035f8301526112818185611222565b9050611290602083018461125a565b9392505050565b7f4e487b71000000000000000000000000000000000000000000000000000000005f52602160045260245ffd5b600481106112d5576112d4611297565b5b50565b5f8190506112e5826112c4565b919050565b5f6112f4826112d8565b9050919050565b611304816112ea565b82525050565b5f60208201905061131d5f8301846112fb565b92915050565b5f73ffffffffffffffffffffffffffffffffffffffff82169050919050565b5f61134c82611323565b9050919050565b61135c81611342565b8114611366575f5ffd5b50565b5f8135905061137781611353565b92915050565b5f6020828403121561139257611391611184565b5b5f61139f84828501611369565b91505092915050565b5f6020820190506113bb5f83018461125a565b92915050565b6113ca81611342565b82525050565b5f6020820190506113e35f8301846113c1565b92915050565b5f81519050919050565b5f82825260208201905092915050565b5f819050602082019050919050565b5f82825260208201905092915050565b5f61142c826111ea565b6114368185611412565b9350611446818560208601611204565b61144f81611212565b840191505092915050565b6114638161118c565b82525050565b5f604083015f8301518482035f8601526114838282611422565b9150506020830151611498602086018261145a565b508091505092915050565b5f6114ae8383611469565b905092915050565b5f602082019050919050565b5f6114cc826113e9565b6114d681856113f3565b9350836020820285016114e885611403565b805f5b85811015611523578484038952815161150485826114a3565b945061150f836114b6565b925060208a019950506001810190506114eb565b50829750879550505050505092915050565b5f6020820190508181035f83015261154d81846114c2565b905092915050565b5f6020820190508181035f83015261156d8184611222565b905092915050565b5f5ffd5b7f4e487b71000000000000000000000000000000000000000000000000000000005f52604160045260245ffd5b6115af82611212565b810181811067ffffffffffffffff821117156115ce576115cd611579565b5b80604052505050565b5f6115e061117b565b90506115ec82826115a6565b919050565b5f67ffffffffffffffff82111561160b5761160a611579565b5b602082029050602081019050919050565b5f5ffd5b5f5ffd5b5f67ffffffffffffffff82111561163e5761163d611579565b5b61164782611212565b9050602081019050919050565b828183375f83830152505050565b5f61167461166f84611624565b6115d7565b9050828152602081018484840111156116905761168f611620565b5b61169b848285611654565b509392505050565b5f82601f8301126116b7576116b6611575565b5b81356116c7848260208601611662565b91505092915050565b5f6116e26116dd846115f1565b6115d7565b905080838252602082019050602084028301858111156117055761170461161c565b5b835b8181101561174c57803567ffffffffffffffff81111561172a57611729611575565b5b80860161173789826116a3565b85526020850194505050602081019050611707565b5050509392505050565b5f82601f83011261176a57611769611575565b5b813561177a8482602086016116d0565b91505092915050565b5f6020828403121561179857611797611184565b5b5f82013567ffffffffffffffff8111156117b5576117b4611188565b5b6117c184828501611756565b91505092915050565b5f81519050919050565b5f82825260208201905092915050565b5f819050602082019050919050565b5f6117fe8383611422565b905092915050565b5f602082019050919050565b5f61181c826117ca565b61182681856117d4565b935083602082028501611838856117e4565b805f5b85811015611873578484038952815161185485826117f3565b945061185f83611806565b925060208a0199505060018101905061183b565b50829750879550505050505092915050565b5f6020820190508181035f83015261189d8184611812565b905092915050565b5f6040820190506118b85f8301856112fb565b6118c560208301846112fb565b9392505050565b7f4e487b71000000000000000000000000000000000000000000000000000000005f52603260045260245ffd5b7f4e487b71000000000000000000000000000000000000000000000000000000005f52601160045260245ffd5b5f6119308261118c565b915061193b8361118c565b9250828201905080821115611953576119526118f9565b5b92915050565b7f4e487b71000000000000000000000000000000000000000000000000000000005f52602260045260245ffd5b5f600282049050600182168061199d57607f821691505b6020821081036119b0576119af611959565b5b50919050565b5f6040820190506119c95f83018561125a565b6119d6602083018461125a565b9392505050565b7f57696e6e65727320617661696c61626c65206f6e6c7920616674657220656e645f82015250565b5f611a116020836111f4565b9150611a1c826119dd565b602082019050919050565b5f6020820190508181035f830152611a3e81611a05565b9050919050565b5f611a4f8261118c565b91507fffffffffffffffffffffffffffffffffffffffffffffffffffffffffffffffff8203611a8157611a806118f9565b5b600182019050919050565b5f819050815f5260205f209050919050565b5f6020601f8301049050919050565b5f82821b905092915050565b5f60088302611ae87fffffffffffffffffffffffffffffffffffffffffffffffffffffffffffffffff82611aad565b611af28683611aad565b95508019841693508086168417925050509392505050565b5f819050919050565b5f611b2d611b28611b238461118c565b611b0a565b61118c565b9050919050565b5f819050919050565b611b4683611b13565b611b5a611b5282611b34565b848454611ab9565b825550505050565b5f5f905090565b611b71611b62565b611b7c818484611b3d565b505050565b5b81811015611b9f57611b945f82611b69565b600181019050611b82565b5050565b601f821115611be457611bb581611a8c565b611bbe84611a9e565b81016020851015611bcd578190505b611be1611bd985611a9e565b830182611b81565b50505b505050565b5f82821c905092915050565b5f611c045f1984600802611be9565b1980831691505092915050565b5f611c1c8383611bf5565b9150826002028217905092915050565b611c35826111ea565b67ffffffffffffffff811115611c4e57611c4d611579565b5b611c588254611986565b611c63828285611ba3565b5f60209050601f831160018114611c94575f8415611c82578287015190505b611c8c8582611c11565b865550611cf3565b601f198416611ca286611a8c565b5f5b82811015611cc957848901518255600182019150602085019450602081019050611ca4565b86831015611ce65784890151611ce2601f891682611bf5565b8355505b6001600288020188555050505b50505050505056fea264697066735822122031d80eae413de401fb82690d083a5fcbb065608fc9abdb34d777a9a4a2f2eab664736f6c634300081e0033","linkReferences":{}},"methodIdentifiers":{"currentPhase()":"055ad42e","endVotingPhase()":"a300e224","getProposals()":"62564c48","i_admin()":"4c43d284","proposals(uint256)":"013cf08b","roundId()":"8cd221c9","startVotingPhase()":"cb43284e","vote(uint256)":"0121b93f","voteContinue(string[])":"d4c58224","votedRound(address)":"28ed966b","winner()":"dfbf53ae","winners(uint256)":"a2fb1175"},"id":0}