{"abi":[{"type":"constructor","inputs":[{"name":"proposalNames","type":"string[3]","internalType":"string[3]"}],"stateMutability":"nonpayable"},{"type":"function","name":"currentPhase","inputs":[],"outputs":[{"name":"","type":"uint8","internalType":"enum Projeto_2.Phase"}],"stateMutability":"view"},{"type":"function","name":"hasVoted","inputs":[{"name":"","type":"address","internalType":"address"}],"outputs":[{"name":"","type":"bool","internalType":"bool"}],"stateMutability":"view"},{"type":"function","name":"i_admin","inputs":[],"outputs":[{"name":"","type":"address","internalType":"address"}],"stateMutability":"view"},{"type":"function","name":"proposals","inputs":[{"name":"","type":"uint256","internalType":"uint256"}],"outputs":[{"name":"name","type":"string","internalType":"string"},{"name":"voteCount","type":"uint256","internalType":"uint256"}],"stateMutability":"view"},{"type":"event","name":"Closure","inputs":[],"anonymous":false},{"type":"event","name":"Opening","inputs":[],"anonymous":false},{"type":"event","name":"Voted","inputs":[{"name":"voter","type":"address","indexed":true,"internalType":"address"},{"name":"proposalIndex","type":"uint256","indexed":true,"internalType":"uint256"}],"anonymous":false},{"type":"error","name":"AlreadyVoted","inputs":[]},{"type":"error","name":"IndexOutOfBounds","inputs":[]},{"type":"error","name":"PhaseError","inputs":[]}],"bytecode":{"object":"0x60a060405234801561000f575f5ffd5b50604051610bda380380610bda83398181016040528101906100319190610341565b3373ffffffffffffffffffffffffffffffffffffffff1660808173ffffffffffffffffffffffffffffffffffffffff16815250505f5f90505b60038110156100f4576001604051806040016040528084846003811061009357610092610388565b5b602002015181526020015f815250908060018154018082558091505060019003905f5260205f2090600202015f909190919091505f820151815f0190816100da91906105c5565b50602082015181600101555050808060010191505061006a565b505f60035f6101000a81548160ff0219169083600281111561011957610118610694565b5b0217905550506106c1565b5f604051905090565b5f5ffd5b5f5ffd5b5f5ffd5b5f601f19601f8301169050919050565b7f4e487b71000000000000000000000000000000000000000000000000000000005f52604160045260245ffd5b61017f82610139565b810181811067ffffffffffffffff8211171561019e5761019d610149565b5b80604052505050565b5f6101b0610124565b90506101bc8282610176565b919050565b5f67ffffffffffffffff8211156101db576101da610149565b5b602082029050919050565b5f5ffd5b5f5ffd5b5f67ffffffffffffffff82111561020857610207610149565b5b61021182610139565b9050602081019050919050565b8281835e5f83830152505050565b5f61023e610239846101ee565b6101a7565b90508281526020810184848401111561025a576102596101ea565b5b61026584828561021e565b509392505050565b5f82601f83011261028157610280610135565b5b815161029184826020860161022c565b91505092915050565b5f6102ac6102a7846101c1565b6101a7565b905080602084028301858111156102c6576102c56101e6565b5b835b8181101561030d57805167ffffffffffffffff8111156102eb576102ea610135565b5b8086016102f8898261026d565b855260208501945050506020810190506102c8565b5050509392505050565b5f82601f83011261032b5761032a610135565b5b600361033884828561029a565b91505092915050565b5f602082840312156103565761035561012d565b5b5f82015167ffffffffffffffff81111561037357610372610131565b5b61037f84828501610317565b91505092915050565b7f4e487b71000000000000000000000000000000000000000000000000000000005f52603260045260245ffd5b5f81519050919050565b7f4e487b71000000000000000000000000000000000000000000000000000000005f52602260045260245ffd5b5f600282049050600182168061040357607f821691505b602082108103610416576104156103bf565b5b50919050565b5f819050815f5260205f209050919050565b5f6020601f8301049050919050565b5f82821b905092915050565b5f600883026104787fffffffffffffffffffffffffffffffffffffffffffffffffffffffffffffffff8261043d565b610482868361043d565b95508019841693508086168417925050509392505050565b5f819050919050565b5f819050919050565b5f6104c66104c16104bc8461049a565b6104a3565b61049a565b9050919050565b5f819050919050565b6104df836104ac565b6104f36104eb826104cd565b848454610449565b825550505050565b5f5f905090565b61050a6104fb565b6105158184846104d6565b505050565b5b818110156105385761052d5f82610502565b60018101905061051b565b5050565b601f82111561057d5761054e8161041c565b6105578461042e565b81016020851015610566578190505b61057a6105728561042e565b83018261051a565b50505b505050565b5f82821c905092915050565b5f61059d5f1984600802610582565b1980831691505092915050565b5f6105b5838361058e565b9150826002028217905092915050565b6105ce826103b5565b67ffffffffffffffff8111156105e7576105e6610149565b5b6105f182546103ec565b6105fc82828561053c565b5f60209050601f83116001811461062d575f841561061b578287015190505b61062585826105aa565b86555061068c565b601f19841661063b8661041c565b5f5b828110156106625784890151825560018201915060208501945060208101905061063d565b8683101561067f578489015161067b601f89168261058e565b8355505b6001600288020188555050505b505050505050565b7f4e487b71000000000000000000000000000000000000000000000000000000005f52602160045260245ffd5b6080516105016106d95f395f6101d101526105015ff3fe608060405234801561000f575f5ffd5b506004361061004a575f3560e01c8063013cf08b1461004e578063055ad42e1461007f57806309eef43e1461009d5780634c43d284146100cd575b5f5ffd5b6100686004803603810190610063919061022a565b6100eb565b6040516100769291906102d4565b60405180910390f35b6100876101a0565b6040516100949190610375565b60405180910390f35b6100b760048036038101906100b291906103e8565b6101b2565b6040516100c4919061042d565b60405180910390f35b6100d56101cf565b6040516100e29190610455565b60405180910390f35b600181815481106100fa575f80fd5b905f5260205f2090600202015f91509050805f0180546101199061049b565b80601f01602080910402602001604051908101604052809291908181526020018280546101459061049b565b80156101905780601f1061016757610100808354040283529160200191610190565b820191905f5260205f20905b81548152906001019060200180831161017357829003601f168201915b5050505050908060010154905082565b60035f9054906101000a900460ff1681565b6002602052805f5260405f205f915054906101000a900460ff1681565b7f000000000000000000000000000000000000000000000000000000000000000081565b5f5ffd5b5f819050919050565b610209816101f7565b8114610213575f5ffd5b50565b5f8135905061022481610200565b92915050565b5f6020828403121561023f5761023e6101f3565b5b5f61024c84828501610216565b91505092915050565b5f81519050919050565b5f82825260208201905092915050565b8281835e5f83830152505050565b5f601f19601f8301169050919050565b5f61029782610255565b6102a1818561025f565b93506102b181856020860161026f565b6102ba8161027d565b840191505092915050565b6102ce816101f7565b82525050565b5f6040820190508181035f8301526102ec818561028d565b90506102fb60208301846102c5565b9392505050565b7f4e487b71000000000000000000000000000000000000000000000000000000005f52602160045260245ffd5b600381106103405761033f610302565b5b50565b5f8190506103508261032f565b919050565b5f61035f82610343565b9050919050565b61036f81610355565b82525050565b5f6020820190506103885f830184610366565b92915050565b5f73ffffffffffffffffffffffffffffffffffffffff82169050919050565b5f6103b78261038e565b9050919050565b6103c7816103ad565b81146103d1575f5ffd5b50565b5f813590506103e2816103be565b92915050565b5f602082840312156103fd576103fc6101f3565b5b5f61040a848285016103d4565b91505092915050565b5f8115159050919050565b61042781610413565b82525050565b5f6020820190506104405f83018461041e565b92915050565b61044f816103ad565b82525050565b5f6020820190506104685f830184610446565b92915050565b7f4e487b71000000000000000000000000000000000000000000000000000000005f52602260045260245ffd5b5f60028204905060018216806104b257607f821691505b6020821081036104c5576104c461046e565b5b5091905056fea26469706673582212204ead4dee152da589e97a1afdfb7713cd96921d1adaaf17d7a4f6f6b3c6ad199464736f6c634300081e0033","linkReferences":{}},"methodIdentifiers":{"currentPhase()":"055ad42e","hasVoted(address)":"09eef43e","i_admin()":"4c43d284","proposals(uint256)":"013cf08b"},"id":0}